:020000040800F2
:10000000600700202902000883170008B1130008C8
:10001000811700081F040008811A00080000000072
:10002000000000000000000000000000871700082A
:100030007D040008000000008517000889170008EB
:10004000430200084302000843020008430200087C
:10005000430200084302000843020008430200086C
:10006000430200084302000843020008430200085C
:10007000430200084302000843020008430200084C
:10008000430200084302000843020008430200083C
:10009000430200084302000843020008430200082C
:1000A000430200084302000843020008430200081C
:1000B000430200084302000843020008430200080C
:1000C00043020008430200084302000843020008FC
:1000D00043020008430200084302000843020008EC
:1000E00043020008430200084302000843020008DC
:1000F00043020008430200084302000843020008CC
:1001000043020008430200084302000843020008BB
:1001100043020008430200084302000843020008AB
:10012000430200084302000843020008430200089B
:10013000430200084302000843020008430200088B
:10014000430200084302000843020008430200087B
:10015000430200084302000843020008430200086B
:10016000430200084302000843020008430200085B
:100170004302000843020008430200080000000098
:10018000430200084302000800F002F800F03CF8C7
:100190000AA090E8000C82448344AAF10107DA45E2
:1001A00001D100F031F8AFF2090EBAE80F0013F0F8
:1001B000010F18BFFB1A43F001031847F41A00009F
:1001C000141B0000103A24BF78C878C1FAD852072F
:1001D00024BF30C830C144BF04680C6070470000C1
:1001E0000023002400250026103A28BF78C1FBD840
:1001F000520728BF30C148BF0B6070471FB501F0E0
:1002000045FD1FBD10B510BD00F0CFF81146FFF73A
:10021000F5FF01F0A7FC00F0EDF803B4FFF7F2FFE3
:1002200003BC00F0F5F80000094880470948004782
:10023000FEE7FEE7FEE7FEE7FEE7FEE7FEE7FEE796
:10024000FEE7FEE704480549054A064B70470000F3
:1002500021180008890100086001002060070020C3
:10026000600300206003002053EA020C00F0698064
:100270002DE9F04B4FF00006002B1FBFB3FA83F5BA
:1002800003FA05F424FA05F65E4012BF1643B2FAEB
:1002900082F502FA05F4C5F120051EBF22FA05FC1D
:1002A00044EA0C04203556EA044C4FEA144418BFC3
:1002B000641C4FF000084FF00009904271EB030CF2
:1002C00039D3002919BFB1FA81F701FA07F6B0FA5C
:1002D00080F700FA07F6C7F120071EBF20FA07FCD7
:1002E00046EA0C062037B6FBF4FCA7EB0507103FE7
:1002F00007F01F0BCBF120060CFA0BFB2CFA06F6CD
:1003000044BFB3460026202FA4BF5E464FF0000B2B
:100310005BEA060C08BF4FF0010B19EB0B09ABFBB6
:10032000027C48EB0608C01B06FB02CC0BFB03CC8F
:1003300071EB0C01C1E70B46024641464846BDE859
:10034000F08B13B54FF000004FF00001AFF30080C9
:10035000BDE81C4070474FF0000200B513469446BC
:100360009646203922BFA0E80C50A0E80C50B1F10D
:100370002001BFF4F7AF090728BFA0E80C5048BF21
:100380000CC05DF804EB890028BF40F8042B08BFBF
:10039000704748BF20F8022B11F0804F18BF00F8BB
:1003A000012B7047704770477047754600F02CF876
:1003B000AE4605006946534620F00700854618B052
:1003C00020B5FFF73FFFBDE820404FF000064FF09B
:1003D00000074FF000084FF0000B21F00701AC467A
:1003E000ACE8C009ACE8C009ACE8C009ACE8C00999
:1003F0008D46704710B50446AFF300802046BDE837
:100400001040FFF70ABF000000487047FC000020C2
:1004100001491820ABBEFEE7260002007047FEE748
:1004200010B501F01DFC144C01220221204600F001
:1004300036F900220221204600F031F9142000F0A4
:100440001FF801220221204600F029F901F0F4FBF7
:100450000221204600F01EF90128F9D00221204691
:1004600000F018F90028F9D00221204600F012F916
:100470000128F9D010BD00000000024070470000C4
:1004800070B5044600F010F90546601C02D004481F
:100490000078044400F008F9401BA042FAD370BD74
:1004A000080000202DE9F84FDFF8BCA1002201254B
:1004B00003264FF00F090AF1040BAAF1040E00BF46
:1004C0000B6805FA02F42340A34270D10F7907F0BC
:1004D0000307012F01D0022F16D187684FEA420887
:1004E00006FA08FC27EA0C07D1F80CC00CFA08FC45
:1004F0004CEA070CC0F808C04768A7430C79C4F35E
:10050000001494403C4344600C79E443A4070AD0AF
:10051000C4684FEA420C06FA0CF7BC438F6807FA2E
:100520000CF72743C7600C7904F00304022C12D1A6
:10053000D40800EB840CDCF820405707FF0E09FAC2
:1005400007F824EA0804D1F8108008FA07F848EA06
:100550000408CCF8208004684FEA420C06FA0CF735
:10056000BC430F7907F0030707FA0CF7274307602E
:100570004C6814F4403F70D03C4C276847F48047E7
:100580002760246822F0030704F480440094384C68
:1005900007EB040CDCF8084897074FEA177809FACC
:1005A00008F7BC43334FB84202D1002724E054E09F
:1005B000314FB84201D101271EE0304FB84201D17E
:1005C000022719E02E4FB84201D1032714E02D4F26
:1005D000B84201D104270FE02B4FB84201D10527C3
:1005E0000AE02A4FB84201D1062705E0284FB84259
:1005F00001D1072700E0082707FA08F72743CCF8BE
:100600000878DAF800405746D1F804C09C435FEA06
:10061000CC2C00D51C433C60DBF800405F46D1F891
:1006200004C09C435FEA8C2C00D51C433C60DEF880
:1006300000407746D1F804C09C435FEA8C3C00D56B
:100640001C433C60084F083F3C68D1F804C09C4301
:100650005FEACC3C00D51C433C60521C102AFFF4DE
:100660002FAFBDE8F88F0000083C0140443802403D
:100670000030014000000240000402400008024037
:10068000000C02400010024000140240001802401A
:10069000001C02400069084000D0012070470AB1E8
:1006A000816170470904FBE70148806870470000DA
:1006B0000800002070B5040025D094F83D00002506
:1006C00020B984F83C50204600F04EF9242084F8EC
:1006D0003D002068016821F0010101602068016887
:1006E00041F4004101602068016821F4004101608B
:1006F00000F094FA4D4A6168914201D84C4900E0FB
:100700004C49884201D2012070BD4B492368B0FB9F
:10071000F1F15E6826F03F060E435E606368934227
:1007200006D94FF4967359434FF47A73B1FBF3F142
:100730002368491C1E6A26F03F063143196261682E
:10074000914210D84900401EB0FBF1F2521CC2F396
:100750000B02042A01D2042022E0B0FBF1F0401C7D
:10076000C0F30B001CE0A268F2B301EBC10303EB82
:100770000116431EB3FBF6F35B1C43F480431B05D9
:1007800049D092B301EBC10202EB0111401EB0FB54
:10079000F1F0401CC0F30B0040F4804040F40040F6
:1007A0002168CA694CF6FF739A431043C861D4E9C3
:1007B000071001432068026822F0C0021143016063
:1007C000D4E9030101432068826848F2FF339A4369
:1007D00011438160D4E9050108432168CA6822F009
:1007E000FF021043C86001E00EE016E020680168D7
:1007F00041F0010101602564202084F83D0025635B
:1008000084F83E50002070BD01EB4106431EB3FB4F
:10081000F6F35B1CB3E70120C2E701EB4101401E88
:10082000B0FBF1F0401CC0F30B00B7E7A08601005D
:1008300080841E0000093D0040420F002DE9F84F62
:100840001F4690468A460446DDF82890FFF72CFFA5
:10085000054694F83D0020287FD119230122404904
:100860002046009500F036FE002876D194F83C0032
:10087000012872D0012084F83C0020680168C90773
:1008800003D1016841F0010101602068016821F491
:1008900000610160212084F83D00102084F83E00B2
:1008A00000262664C4F824806785608D20852D4845
:1008B000E0622B464A465146204600F091FD90B931
:1008C000206841698069009036E02A464946204602
:1008D00000F0A6FE50B1206C042804D12068016805
:1008E00041F4007101600120BDE8F88F606A216861
:1008F00000780861606A401C6062618D491E6185F4
:10090000218D491E89B2218522685369DB435B072B
:100910000BD451B100781061606A401C6062608D38
:10092000401E6085208D401E20852A46494620466F
:1009300000F0A4FD0028CED1208D0028C5D154F8A8
:100940003D0B016841F400710160202004F81E098C
:10095000E67766770020C7E7FFE70220C4E70000DC
:10096000020010000000FFFF10B586B004461421FD
:100970006846FFF7F0FC13492068884220D11248EE
:100980000021026842F002020260006800F00200EA
:100990000590C02000901220CDE9010103200390B2
:1009A0000420049069460948FFF77CFD0648103092
:1009B000016841F400110160006800F40010059026
:1009C00006B010BD00540040303802400004024020
:1009D0000248816802781144816070470800002055
:1009E0000B4810B5016841F400710160016841F4E1
:1009F00080610160016841F480710160032000F0B2
:100A000061F80F2000F006F800F024F8002010BD77
:100A1000003C024070B50D4D04464FF47A712878C1
:100A2000B1FBF0F00A490968B1FBF0F000F0FEFA02
:100A300048B9102C07D200222146501E00F022F89F
:100A400000206C6070BD012070BD00000800002017
:100A5000140000200A4808B5016841F48041016093
:100A6000006800F4804000900548001F016841F0D4
:100A700080510160006800F08050009008BD0000C7
:100A800044380240F0B40E4B1B680C46C3F30223FB
:100A9000C3F10705042D00D90425191D072901D22A
:100AA000002300E0DB1E012606FA05F1491E214065
:100AB00099409E40761E16403143F0BC00F0E1BFE5
:100AC0000CED00E0064900F0070208684FF6FF034E
:100AD000184040EA0220034A1043086070470000B3
:100AE0000CED00E00000FA052DE9F0470E46050088
:100AF00065D0DFF81481D8F80000F7B200F00700E5
:100B0000B04207D288F80070D8F8000000F0070063
:100B1000B04254D128683D4C810712D5400703D517
:100B2000206840F4E05020602878000703D5206852
:100B300040F4604020602068A96820F0F00008437D
:100B400020602878C0072DD030496868083901280E
:100B500012D0022813D0032811D009688907002970
:100B60002DDA216821F0030101432160FFF79CFD8C
:100B7000814641F2883A0EE009688903EFE7096887
:100B80008901ECE7FFF790FDA0EB0901514502D97F
:100B90000320BDE8F0872068696800F00C00B0EB26
:100BA000810FEFD1D8F80010404601F00701B142A3
:100BB00007D90770006800F00700B04201D001209B
:100BC000E7E72878400705D52068E96820F4E05079
:100BD000084320602878000706D52068296920F49A
:100BE000604040EAC100206000F038F82168084AFF
:100BF000C1F30311515CC84006490860064800680B
:100C0000FFF708FF0020C4E7003C0240083802401C
:100C1000961C0008140000200C0000200448054920
:100C200000680968044AC1F38221515CC8407047DA
:100C30001400002008380240A61C0008044805499A
:100C400000680968044AC1F34231515CC8407047EA
:100C50001400002008380240A61C0008154810B5F2
:100C6000006810F00C02144813D01449042A0FD065
:100C7000082A0ED10F4C241F2268236802F03F027D
:100C80005B0207D52068C0F38810A0FB010106E0D5
:100C9000084610BD2168C1F38811A1FB00010023A3
:100CA000FFF7E2FA2168C1F30141491C4900B0FB9A
:100CB000F1F010BD083802400024F40040787D01B6
:100CC0002DE9F84F04006ED02078DFF84C93C00770
:100CD000A9F104054AD009F104000168C1F38101BA
:100CE000012908D00068C0F3810002280AD1D9F890
:100CF0000000400206D52868800337D560680028C8
:100D0000E1D033E06068B0F5803F10D0B0F5A02F9F
:100D1000286810D020F480302860286820F48020D3
:100D200028606068A8B1FFF7BFFC06460DE02868A0
:100D300040F48030F4E740F480202860F7E700BFFB
:100D4000FFF7B2FC801B642873D828688003F7D5AE
:100D50000CE0FFF7A9FC064605E000BFFFF7A4FC86
:100D6000801B6428F0D828688003F7D42078DFF847
:100D7000AC8280074FF0000A3ED5A748001D0168ED
:100D800011F00C0F08D00068C0F3810002280BD1CD
:100D9000D9F80000400207D42868800716D5E0681B
:100DA000012800D112E033E1E068B8B10120C8F8B1
:100DB0000000FFF779FC064605E000BFFFF774FC72
:100DC000801B0228C0D828688007F7D528682169C9
:100DD00020F0F80040EAC10028600DE0C8F800A04B
:100DE000FFF762FC064604E0FFF75EFC801B02286A
:100DF0001FD828688007F7D42078000722D5864FAF
:100E000087486169703771B101210160FFF74CFCBF
:100E1000064604E0FFF748FC801B022809D8386822
:100E20008007F7D50EE0C0F800A0FFF73DFC0646AE
:100E300005E082E0FFF738FC801B02287DD8386887
:100E40008007F7D42078400768D5DFF8CCB10027B9
:100E50000BF13C0BDBF80000C0000BD4DBF80010FA
:100E600041F08051CBF80010DBF80000012700F0C2
:100E7000805000906B4E3068C00510D4306840F44C
:100E800080703060FFF710FC009005E0FFF70CFC6D
:100E90000099401A022850D83068C005F6D55E4E39
:100EA000A0686C3601280FD00528306810D020F0DB
:100EB00001003060306820F004003060A068B8B1F4
:100EC000FFF7F2FB00900FE0306840F00100F4E71C
:100ED00040F004003060F7E7FFF7E6FB0099411AA5
:100EE00041F28830814266D830688007F4D50EE040
:100EF000FFF7DAFB009007E0FFF7D6FB0099411AF5
:100F000041F28830814256D830688007F4D42FB13E
:100F1000DBF8001021F08051CBF80010A069C8B3B5
:100F20003D49091D0968C1F3810102294AD00228FF
:100F3000504607D0C8F8600000E03CE0FFF7B4FB83
:100F400004463BE04746C8F86000FFF7ADFB0646A5
:100F500005E000BFFFF7A8FB801B02282BD82868FC
:100F60008001F7D4D4E907010843A16A2E4A490851
:100F700002EB0141626A41EA8211084394F82C10A5
:100F800040EA0161C9F8001001203866FFF78CFBC8
:100F9000044606E03EE000BFFFF786FB001B022888
:100FA00009D828688001F7D534E000BFFFF77CFB43
:100FB000001B022802D90320BDE8F88F28688001B1
:100FC000F4D427E00128F7D0D9F80000E26900F452
:100FD000800191421CD1226A00F03F01914217D159
:100FE00047F6C071626A0140B1EB821F10D1A26A5C
:100FF0004FF0FF3300F4403103EB5202B1EB024FEC
:1010000006D194F82C1000F07060B0EB016F01D0A5
:101010000120D1E70020CFE704380240000047421A
:10102000800E4742007000400000FFFF10B5401ED8
:10103000B0F1807F01D3012010BD4FF0E02460614A
:101040000F21601700F01DFD0020A0610720206126
:10105000002010BD70B590F83C20012A32D0012448
:1010600080F83C40022280F83D2003685A689D6861
:1010700022F070060A6832435A60134B02689A42A3
:1010800014D0B2F1804F11D0104B9A420ED0104BB9
:101090009A420BD00F4B9A4208D00F4B9A4205D080
:1010A0000E4B9A4202D00E4B9A4204D1496825F069
:1010B00080031943916080F83D40002180F83C1086
:1010C000084670BD022070BD0000014000040040D1
:1010D00000080040000C00400004014000400140B6
:1010E0000018004010B5040003D094F83D0010B182
:1010F00007E0012010BD002084F83C00204600F0ED
:101100001FF8022084F83D00211D206800F090FBAC
:10111000012084F8460084F83E0084F83F0084F8FB
:10112000400084F8410084F8420084F8430084F8C9
:10113000440084F8450084F83D00002010BD000004
:1011400008B500680649884208D10648016841F0A0
:1011500001010160006800F00100009008BD00007E
:10116000000001404438024090F83D10012901D0B0
:1011700001207047022180F83D1000681149884223
:1011800014D0B0F1804F11D00F4988420ED00F49D2
:1011900088420BD00E49884208D00E49884205D0BB
:1011A0000D49884202D00D49884204D1816801F07E
:1011B0000701062903D0016841F001010160002008
:1011C000704700000000014000040040000800409B
:1011D000000C0040000401400040014000180040A5
:1011E00001680A6A41F211131A4207D10A6A9B1078
:1011F0001A4203D10A6822F001020A60012180F834
:101200003D100020704770B5044690F83C00002562
:10121000012817D0012684F83C60022084F83D00A4
:101220002068826822F0770222F47F428260086898
:10123000502838D00DDC20284FD005DC90B3102882
:1012400011D14AE0022070BD302846D040280AD192
:101250003BE060282FD070280DD0B0F5805F03D020
:10126000B0F5005F12D0012584F83D60002084F8BD
:101270003C00284670BDCB68D1E90121206800F010
:1012800043FB2068816841F0770109E0CB68D1E930
:101290000121206800F038FB2068816841F480411A
:1012A0008160E1E719E0CA684968206800F03EFB08
:1012B0005021206806E0CA684968206800F047FBB2
:1012C0006021206800F02AFBCEE7CA6849682068E0
:1012D00000F02CFB40212068F4E72268014610460C
:1012E000F0E770B5040004D094F84100002510B177
:1012F00006E0012070BD84F84050204600F024F83C
:10130000242084F841002068C16821F40051C160A4
:10131000204600F02FFB2068016921F49041016113
:101320002068416921F02A0141612068C16841F4C7
:101330000051C1606564202084F8410084F84200B7
:101340006563002070BD000010B586B0044614210E
:101350006846FFF700F813492068884220D11248F8
:101360000021026842F400320260006800F400309C
:1013700005900D481038026842F0010202600068D2
:1013800000F0010005900C2000900220CDE9010141
:10139000032003900720049069460448FFF782F871
:1013A00006B010BD0044004040380240000002403A
:1013B000FEE701684A69D24352050FD46FF4806298
:1013C0004A61002140F8301F202242738173026974
:1013D00042F004020261017301207047002070474F
:1013E000F8B50446C06A1E460D461746082807D0C1
:1013F000012805D010F5803F02D0206B122804D1BF
:101400002068016841F480710160134600224FF0AA
:1014100001112046009600F05DF840B12068006898
:10142000C00502D54FF4007020640320F8BD206988
:10143000B0F5804F0ED00620216800EAD51040F0AC
:10144000F000086133463A460B49204600F08AF81E
:1014500078B902E005F0FE0000E0E8B2216808611A
:10146000054933463A46891F204600F07BF800289C
:10147000DCD00120F8BD00000800010070B5164660
:101480000D4604461EE02046FFF793FF08B10120F9
:1014900070BD681C16D0FFF707F9801BA84200D862
:1014A00085B920684069C04340070BD5002044F847
:1014B000300F20216173A073216941F02001216167
:1014C0002073E4E720684069C0434007DBD4002074
:1014D00070BD00002DE9F047984617460D460446BA
:1014E000C1F30746DDF820902AE000BFB8F1FF3FC6
:1014F00026D0FFF7D9F8A0EB0901414502D8B8F191
:10150000000F1DD12068012E16D0806925EA000049
:101510000004000C12D00020B84211D1002044F881
:10152000300F20216173A073216941F020012161F6
:1015300020730120BDE8F0874069E7E70120EBE771
:101540002068012E0AD0806925EA00000004000C02
:1015500006D00020B842C9D00020EBE74069F3E78D
:101560000120F7E72DE9F047984616460D46044658
:101570004FF000094FF0200AC1F3074723E020682D
:101580004069C043400515D42068016841F40071EA
:10159000016021686FF480604861C4F8309084F87D
:1015A0003DA084F83E90216C41F00401216484F850
:1015B0003C9021E0701C06D0FFF776F8A0EB080005
:1015C000B04203D816B1012F1FD021E02068012FAF
:1015D00015D0806925EA00000004000C18D000BF77
:1015E00044F8309F84F80DA084F80E90216941F0F2
:1015F0002001216184F80C900120BDE8F08740694A
:1016000025EA00000004000CEAD12068406901E0EE
:101610002068806925EA00000004000CAFD1ECE7E7
:1016200070B516460D4604461EE02046FFF7C1FE83
:1016300008B1012070BD681C16D0FFF735F8801B7B
:10164000A84200D885B920684069C04300060BD580
:10165000002044F8300F20216173A073216941F00C
:10166000200121612073E4E720684069C04300063F
:10167000DBD4002070BD000030B587B0142168466F
:10168000FEF769FE21480024016841F00401016071
:10169000016801F004010591016841F080010160D9
:1016A000016801F080010591016841F001010160CC
:1016B000016801F001010591016841F0020101603A
:1016C0000068134D00F00200059000220121284619
:1016D000FEF7E5FF4FF40040CDE9000469460D48F0
:1016E0000294FEF7DFFE01210091CDE90114694665
:1016F00028460394FEF7D6FE0220CDE90004694691
:1017000028460294FEF7CEFE07B030BD30380240C6
:10171000000002400008024010B586B000241748BF
:101720000094019402940394049413490594016075
:101730000921C0E901144FF6FF71C0E903144461A7
:101740008461FFF7CFFC08B172B6FEE74FF480501A
:10175000009069460948FFF756FD08B172B6FEE7EA
:10176000049404A905480594FFF774FC002801D0EF
:1017700072B6FEE706B010BD000001406C0000200C
:10178000FEE7FEE770477047FFF722B910B592B049
:1017900030216846FEF7DFFD14210CA8FEF7DBFDC3
:1017A0001D48016841F080510160006800F08050E0
:1017B00011901A48016841F48041016000680224D8
:1017C00000F48040119001200090000401908001FD
:1017D000CDE90640192008908020CDE909040420B5
:1017E0000B906846FFF76CFA08B172B6FEE70F205F
:1017F000CDE90C04A0200E9040010F904FF48050D2
:10180000109000210CA8FFF76FF9002801D072B6E4
:10181000FEE712B010BD00004038024000700040EA
:101820000248016841F470010160704788ED00E0F2
:10183000F0B50268294C2A4D2A4E2B4F2B4B4FF006
:10184000804CA04209D0604507D0A84205D0B042E4
:1018500003D0B84201D0984204D122F0700E4A68F9
:1018600042EA0E02A0421BD0604519D0A84217D010
:10187000B04215D0B84213D0984211D01C4DA842A6
:101880000ED01C4DA8420BD01B4DA84208D01B4DBA
:10189000A84205D01A4DA84202D01A4DA84203D141
:1018A00022F44075CA682A434D6922F080022A4317
:1018B00002608A68C2620A688262A04201D09842CD
:1018C00001D109690163012141610169C90703D09F
:1018D000016921F001010161F0BD0000000001403B
:1018E0000004004000080040000C004000040140DB
:1018F0000040014000440140004801400018004001
:10190000001C00400020004010B5846842EA032219
:1019100024F47F440A432243826010BD826822F08F
:1019200070020A4342F007018160704710B5036AF4
:10193000046A24F001040462846924F0F00444EA97
:10194000021423F00A020A438461026210BD10B53A
:10195000036A046A24F010040462846923F0A0037B
:1019600024F4704444EA023243EA011182610162C4
:1019700010BD000070B5044600680169E26821F4FA
:101980004051114301612169A068E269084361691E
:10199000114308432168CA6849F20C639A43024321
:1019A000CA6020684169A26921F440711143416114
:1019B00031492068884202D03049884202D1FFF77D
:1019C0003DF901E0FFF72AF9E269002319216425B6
:1019D0003226B2F5004F626828D0A0FB0101930FB8
:1019E0009200FEF741FC0146B0FBF5F06FF01802E3
:1019F000504301EB800006EB0010B0FBF5F000F067
:101A0000F002B1FBF5F002EB0012B1FBF5F06FF064
:101A10001803584301EB800006EB0010B0FBF5F013
:101A200000F00F0021681044886070BDA0FB010128
:101A300092185B41FEF718FC0146B0FBF5F002017D
:101A4000B1FBF5F06FF01803584301EB800006EB93
:101A5000C000B0FBF5F000F0F80002EB4002B1FB73
:101A6000F5F0584301EB800006EBC000B0FBF5F049
:101A700000F00700D6E7000000100140001401400C
:101A8000FEE70907090E002804DB00F1E02080F8DA
:101A90000014704700F00F0000F1E02080F8141DE2
:101AA0007047000010B504460748FFF75DFB064885
:101AB0000021026851620068416AA142FCD3BDE87E
:101AC00010400148FFF78CBB6C00002010B5FEF7FA
:101AD000A7FC00F087F8074CA07000F083F8E070D6
:101AE00000F080F8207000F07DF8607000F07AF867
:101AF000207110BD000000201CB500F0F00141F085
:101B00000C028DF8042041F008018DF805100C211D
:101B100041EA00118DF80610082141EA00108DF805
:101B200007000A200090042301AA4E210148FEF775
:101B300085FE1CBD1800002010B53320FFF7DCFF28
:101B40003220FFF7D9FF2820FFF7D6FF0C20FFF740
:101B5000D3FF0620FFF7D0FFBDE810400120FFF7BC
:101B6000CBBF0000FEF73CFFFFF710FEFFF784FD40
:101B700019481849002401601849C0E901144FF4BC
:101B80008041C0E9034144618461C4610462FEF79D
:101B900091FD08B172B6FEE7FFF7BEFD0E48104991
:101BA0009C3001604FF4E131C0E901140C21C460A4
:101BB000C0E904418461C461FFF793FB08B172B6C8
:101BC000FEE7FFF7B9FF00BFFFF780FF6420FEF7D5
:101BD00057FCF9E70054004018000020A0860100DF
:101BE000004400402DE9F0410024124E2546012713
:101BF00002213046FEF74EFD0028F9D02D20FFF7D8
:101C000051FF02213046FEF745FD01280ED060004D
:101C1000C4B202213046FEF73DFD0128F9D06D1C0B
:101C2000EDB2082DE4D32046BDE8F08107EB440077
:101C3000EEE700000000024000B585B014216846C0
:101C4000FEF789FB02200090002001900120029005
:101C500069460248FEF726FC05B000BD00000240C0
:101C600000B585B014216846FEF775FB0220009090
:101C70000120019002900020039069460248FEF77F
:101C800011FC05B000BD0000000002404FF04070A4
:101C9000E1EE100A704700000000000000000102A1
:101CA0000304060708090000000001020304000005
:101CB000D01C00080000002018000000C40100082B
:101CC000E81C00081800002048070000E001000898
:101CD00000000000000000000100000010000000F3
:081CE000000000000024F400E4
:040000050800018965
:00000001FF
