:020000040800F2
:10000000E00A002031020008DB1600089113000806
:10001000D9160008730600083D1B00080000000008
:100020000000000000000000000000008D1A000821
:100030007506000800000000DD1600088F1A000891
:100040004B0200084B0200084B0200084B0200085C
:100050004B0200084B0200084B0200084B0200084C
:100060004B0200084B0200084B0200084B0200083C
:100070004B0200084B0200084B0200084B0200082C
:100080004B0200084B0200084B0200084B0200081C
:100090004B0200084B0200084B0200084B0200080C
:1000A0004B0200084B0200084B0200084B020008FC
:1000B0004B0200084B0200084B0200084B020008EC
:1000C0004B0200084B0200084B0200084B020008DC
:1000D0004B0200084B0200084B0200084B020008CC
:1000E0004B0200084B0200084B0200084B020008BC
:1000F0004B0200084B0200084B0200084B020008AC
:100100004B0200084B0200084B0200084B0200089B
:100110004B0200084B0200084B0200084B0200088B
:100120004B0200084B0200084B0200084B0200087B
:100130004B0200084B0200084B0200084B0200086B
:100140004B0200084B0200084B0200084B0200085B
:100150004B0200084B0200084B0200084B0200084B
:100160004B0200084B0200084B0200084B0200083B
:100170004B0200084B0200084B0200080000000080
:100180004B0200084B02000800F002F800F041F8B2
:100190000AA090E8000C82448344AAF10107DA45E2
:1001A00001D100F036F8AFF2090EBAE80F0013F0F3
:1001B000010F18BFFB1A43F001031847543C00001D
:1001C000743C0000103A24BF78C878C1FAD85207AE
:1001D00024BF30C830C144BF04680C6070470000C1
:1001E0000023002400250026103A28BF78C1FBD840
:1001F000520728BF30C148BF0B607047642900F028
:10020000F780002070471FB501F09CFD1FBD10B5A1
:1002100010BD00F0F4F91146FFF7F5FF01F0A0FC66
:1002200000F012FA03B4FFF7F2FF03BC00F01AFA71
:100230000948804709480047FEE7FEE7FEE7FEE77A
:10024000FEE7FEE7FEE7FEE7FEE7FEE704480549B6
:10025000054A064B704700002D1B00088901000865
:10026000E0040020E00A0020E0060020E006002074
:1002700053EA020C00F069802DE9F04B4FF00006C4
:10028000002B1FBFB3FA83F503FA05F424FA05F631
:100290005E4012BF1643B2FA82F502FA05F4C5F1C8
:1002A00020051EBF22FA05FC44EA0C04203556EA5C
:1002B000044C4FEA144418BF641C4FF000084FF080
:1002C0000009904271EB030C39D3002919BFB1FA30
:1002D00081F701FA07F6B0FA80F700FA07F6C7F1DE
:1002E00020071EBF20FA07FC46EA0C062037B6FBA3
:1002F000F4FCA7EB0507103F07F01F0BCBF120061E
:100300000CFA0BFB2CFA06F644BFB3460026202F4E
:10031000A4BF5E464FF0000B5BEA060C08BF4FF02F
:10032000010B19EB0B09ABFB027C48EB0608C01B69
:1003300006FB02CC0BFB03CC71EB0C01C1E70B46B7
:10034000024641464846BDE8F08B13B54FF0000029
:100350004FF00001AFF30080BDE81C407047000083
:100360000FB41CB5074B06AA7B446946009005985C
:1003700000F00BF90020694600F01AF91CBC5DF88A
:1003800014FB0000450200002DE9F0410E46044632
:10039000002020622046E168884730B3252805D038
:1003A000D4E901219047206A401CF2E7E168204629
:1003B00000278847050018D0A5F14100192802D868
:1003C00020354FF400673246294620462760FFF764
:1003D00015FF40B1012804D0F61D26F007060836A7
:1003E000D8E7361DD6E72846DAE7206ABDE8F0816F
:1003F0002DE9F0410646002410687529314616A5FE
:1004000010D0AFF30080002802DA404213A507E0C5
:1004100031688A0701D512A502E0490704D511A564
:10042000012401E0AFF3008000210A2206F1240735
:1004300009E0B0FBF2FCB0FBF2F302FB1C00303031
:1004400078541846491C0028F3D123462A463046E2
:10045000BDE8F04100F03AB8000000002D000000B7
:100460002B0000002000000002F0FF0343EA0322FB
:1004700042EA024200F0A3B84FF0000200B5134672
:1004800094469646203922BFA0E80C50A0E80C50B4
:10049000B1F12001BFF4F7AF090728BFA0E80C5065
:1004A00048BF0CC05DF804EB890028BF40F8042B5E
:1004B00008BF704748BF20F8022B11F0804F18BFCB
:1004C00000F8012B70477047704770472DE9F047DF
:1004D0000D4699469246044600F1240801688806B4
:1004E00004D5E06921F01001216000E00120A8425C
:1004F00001DD471B00E00027A1697A1902EB090022
:10050000081AA0612078C00602D42046AFF300800C
:10051000002608E0D4E901211AF806009047206A75
:10052000401C761C20624E45F4DB2078C0060AD5BC
:100530002046AFF3008006E0D4E901213020904747
:10054000206A401C2062381EA7F10107F4DC07E096
:10055000D4E9012118F805009047206A401C206268
:10056000281EA5F10105F3DC2046AFF300802078BA
:10057000000602D50220BDE8F0870120FBE700005D
:1005800001694A1C02610878704700B58FB0CDE957
:1005900001310021059105497944CDE90310114647
:1005A0006846FFF7F1FE0FB000BD0000E5FFFFFF5A
:1005B0000A6802F8010B0A6070474FF00002042934
:1005C000C0F0128010F0030C3FF458AFCCF1040CD3
:1005D000BCF1020F18BF00F8012BA8BF20F8022BB6
:1005E000A1EB0C01FFF74ABF5FEAC17C24BF00F812
:1005F000012B00F8012B48BF00F8012B704775460E
:1006000000F02CF8AE4605006946534620F007007E
:10061000854618B020B5FFF719FEBDE820404FF021
:1006200000064FF000074FF000084FF0000B21F0DC
:100630000701AC46ACE8C009ACE8C009ACE8C009A9
:10064000ACE8C0098D46704710B50446AFF3008092
:100650002046BDE81040FFF7E5BD000000487047A8
:100660007C04002001491820ABBEFEE726000200F2
:100670007047FEE77047000070B5044600F00CF9C3
:100680000546601C02D004480078044400F004F9D8
:10069000401BA042FAD370BD180000202DE9F84F8E
:1006A000DFF8BCA10022012503264FF00F090AF153
:1006B000040BAAF1040E00BF0B6805FA02F42340F4
:1006C000A34270D10F7907F00307012F01D0022F49
:1006D00016D187684FEA420806FA08FC27EA0C0799
:1006E000D1F80CC00CFA08FC4CEA070CC0F808C0A2
:1006F0004768A7430C79C4F3001494403C4344601A
:100700000C79E443A4070AD0C4684FEA420C06FA05
:100710000CF7BC438F6807FA0CF72743C7600C79C6
:1007200004F00304022C12D1D40800EB840CDCF892
:1007300020405707FF0E09FA07F824EA0804D1F809
:10074000108008FA07F848EA0408CCF8208004680A
:100750004FEA420C06FA0CF7BC430F7907F0030787
:1007600007FA0CF7274307604C6814F4403F70D039
:100770003C4C276847F480472760246822F0030731
:1007800004F480440094384C07EB040CDCF808486F
:1007900097074FEA177809FA08F7BC43334FB84276
:1007A00002D1002724E054E0314FB84201D10127A3
:1007B0001EE0304FB84201D1022719E02E4FB84257
:1007C00001D1032714E02D4FB84201D104270FE0D7
:1007D0002B4FB84201D105270AE02A4FB84201D178
:1007E000062705E0284FB84201D1072700E0082777
:1007F00007FA08F72743CCF80878DAF8004057469C
:10080000D1F804C09C435FEACC2C00D51C433C606B
:10081000DBF800405F46D1F804C09C435FEA8C2CB3
:1008200000D51C433C60DEF800407746D1F804C098
:100830009C435FEA8C3C00D51C433C60084F083F5A
:100840003C68D1F804C09C435FEACC3C00D51C4313
:100850003C60521C102AFFF42FAFBDE8F88F000057
:10086000083C014044380240003001400000024092
:100870000004024000080240000C02400010024048
:100880000014024000180240001C02400AB18161BD
:1008900070470904FBE700000148806870470000CA
:1008A0001800002070B5040025D094F83D00002504
:1008B00020B984F83C50204600F004FA242084F843
:1008C0003D002068016821F0010101602068016895
:1008D00041F4004101602068016821F40041016099
:1008E00000F04AFB4D4A6168914201D84C4900E052
:1008F0004C49884201D2012070BD4B492368B0FBAE
:10090000F1F15E6826F03F060E435E606368934235
:1009100006D94FF4967359434FF47A73B1FBF3F150
:100920002368491C1E6A26F03F063143196261683C
:10093000914210D84900401EB0FBF1F2521CC2F3A4
:100940000B02042A01D2042022E0B0FBF1F0401C8B
:10095000C0F30B001CE0A268F2B301EBC10303EB90
:100960000116431EB3FBF6F35B1C43F480431B05E7
:1009700049D092B301EBC10202EB0111401EB0FB62
:10098000F1F0401CC0F30B0040F4804040F4004004
:100990002168CA694CF6FF739A431043C861D4E9D1
:1009A000071001432068026822F0C0021143016071
:1009B000D4E9030101432068826848F2FF339A4377
:1009C00011438160D4E9050108432168CA6822F017
:1009D000FF021043C86001E00EE016E020680168E5
:1009E00041F0010101602564202084F83D00256369
:1009F00084F83E50002070BD01EB4106431EB3FB5E
:100A0000F6F35B1CB3E70120C2E701EB4101401E96
:100A1000B0FBF1F0401CC0F30B00B7E7A08601006B
:100A200080841E0000093D0040420F002DE9FF4F69
:100A300081B089460446FFF72FFF054694F83D0034
:100A40004FF0000820287DD119230122504920466B
:100A5000009500F02FFD002874D194F83C00012887
:100A600070D0012084F83C0020680168C90703D1D8
:100A7000016841F0010101602068016821F4006112
:100A80000160242084F83D00002626644148E0628D
:100A90004FF0011B20272068016841F4807101603C
:100AA0000095002259462046049B00F003FD50B1FA
:100AB00020680068C00502D54FF400702064032050
:100AC00005B0BDE8F08F216809F0FE000861FFF76E
:100AD000E3FE2168054648694969C0F34000C1F357
:100AE00080214FF0A00A0FE0FFF7D6FE411B0498CB
:100AF000814200D808B984F83DA021684869496955
:100B0000C0F34000C1F3802194F83D20A02A02D018
:100B100008B90029E8D084F83D7020684169C943CC
:100B2000890716D4016841F40071016020684169A9
:100B300080691923012216492046009500F0BAFC6D
:100B4000B8B900E021E084F83D7084F83C600020F2
:100B5000B6E7016841F40071016021686FF48060BC
:100B60004861192301220A492046009500F0A2FCA1
:100B700008B10120A4E7039808F1010880458AD351
:100B800084F83D7084F83C60F3E7022098E70000A9
:100B9000020010000000FFFF2DE9F84F1F469046AD
:100BA0008A460446DDF82890FFF776FE054694F85D
:100BB0003D0020287FD1192301224049204600957D
:100BC00000F078FC002876D194F83C00012872D01F
:100BD000012084F83C0020680168C90703D101683E
:100BE00041F0010101602068016821F400610160A9
:100BF000212084F83D00102084F83E000026266461
:100C0000C4F824806785608D20852D48E0622B46DE
:100C10004A465146204600F0D3FB90B9206841690E
:100C20008069009036E02A464946204600F0E8FCFC
:100C300050B1206C042804D12068016841F400718F
:100C400001600120BDE8F88F606A216800780861C2
:100C5000606A401C6062618D491E6185218D491E5C
:100C600089B2218522685369DB435B070BD451B1FC
:100C700000781061606A401C6062608D401E608573
:100C8000208D401E20852A464946204600F0E6FB7E
:100C90000028CED1208D0028C5D154F83D0B016825
:100CA00041F400710160202004F81E09E6776677A0
:100CB0000020C7E7FFE70220C4E7000002001000A1
:100CC0000000FFFF10B586B0044614216846FFF708
:100CD000D3FB13492068884220D1124800210268C2
:100CE00042F002020260006800F002000590C0209D
:100CF00000901220CDE9010103200390042004900C
:100D000069460948FFF7CAFC06481030016841F4FB
:100D100000110160006800F40010059006B010BDDD
:100D2000005400403038024000040240024881680C
:100D30000278114481607047180000200B4810B5FC
:100D4000016841F400710160016841F48061016053
:100D5000016841F480710160032000F061F80F2008
:100D600000F006F800F024F8002010BD003C02401E
:100D700070B50D4D04464FF47A712878B1FBF0F050
:100D80000A490968B1FBF0F000F0EEFA48B9102CFE
:100D900007D200222146501E00F022F800206C608D
:100DA00070BD012070BD000018000020240000204C
:100DB0000A4808B5016841F480410160006800F408
:100DC000804000900548001F016841F0805101609B
:100DD000006800F08050009008BD000044380240D8
:100DE000F0B40E4B1B680C46C3F30223C3F1070596
:100DF000042D00D90425191D072901D2002300E084
:100E0000DB1E012606FA05F1491E214099409E404D
:100E1000761E16403143F0BC00F091BE0CED00E0B0
:100E2000064900F0070208684FF6FF03184040EA41
:100E30000220034A10430860704700000CED00E0F8
:100E40000000FA052DE9F0470E46050065D0DFF8F1
:100E50001481D8F80000F7B200F00700B04207D2C2
:100E600088F80070D8F8000000F00700B04254D1B4
:100E700028683D4C810712D5400703D5206840F40F
:100E8000E05020602878000703D5206840F46040D7
:100E900020602068A96820F0F000084320602878CE
:100EA000C0072DD0304968680839012812D00228BF
:100EB00013D0032811D00968890700292DDA216889
:100EC00021F0030101432160FFF7E6FC814641F276
:100ED000883A0EE009688903EFE709688901ECE7C1
:100EE000FFF7DAFCA0EB0901514502D90320BDE868
:100EF000F0872068696800F00C00B0EB810FEFD13B
:100F0000D8F80010404601F00701B14207D9077038
:100F1000006800F00700B04201D00120E7E7287820
:100F2000400705D52068E96820F4E05008432060B8
:100F30002878000706D52068296920F4604040EA37
:100F4000C100206000F028F82168084AC1F30311AD
:100F5000515CC8400649086006480068FFF708FF72
:100F60000020C4E7003C024008380240F63D00087B
:100F7000240000201C00002004480549006809687E
:100F8000044AC1F38221515CC8407047240000200C
:100F900008380240063E0008154810B5006810F0F9
:100FA0000C02144813D01449042A0FD0082A0ED179
:100FB0000F4C241F2268236802F03F025B0207D512
:100FC0002068C0F38810A0FB010106E0084610BDB0
:100FD0002168C1F38811A1FB00010023FFF748F944
:100FE0002168C1F30141491C4900B0FBF1F010BD7B
:100FF000083802400024F40040787D012DE9F84FC4
:1010000004006ED02078DFF84C93C007A9F10405E6
:101010004AD009F104000168C1F38101012908D017
:101020000068C0F3810002280AD1D9F8000040020C
:1010300006D52868800337D560680028E1D033E002
:101040006068B0F5803F10D0B0F5A02F286810D0B0
:1010500020F480302860286820F4802028606068B0
:10106000A8B1FFF719FC06460DE0286840F480306F
:10107000F4E740F480202860F7E700BFFFF70CFC9E
:10108000801B642873D828688003F7D50CE0FFF72D
:1010900003FC064605E000BFFFF7FEFB801B64284B
:1010A000F0D828688003F7D42078DFF8AC82800776
:1010B0004FF0000A3ED5A748001D016811F00C0F43
:1010C00008D00068C0F3810002280BD1D9F80000D5
:1010D000400207D42868800716D5E068012800D1AF
:1010E00012E033E1E068B8B10120C8F80000FFF772
:1010F000D3FB064605E000BFFFF7CEFB801B0228AE
:10110000C0D828688007F7D52868216920F0F80042
:1011100040EAC10028600DE0C8F800A0FFF7BCFB62
:10112000064604E0FFF7B8FB801B02281FD828689A
:101130008007F7D42078000722D5864F8748616959
:10114000703771B101210160FFF7A6FB064604E08C
:10115000FFF7A2FB801B022809D838688007F7D563
:101160000EE0C0F800A0FFF797FB064605E082E01E
:10117000FFF792FB801B02287DD838688007F7D4E0
:101180002078400768D5DFF8CCB100270BF13C0B85
:10119000DBF80000C0000BD4DBF8001041F08051F8
:1011A000CBF80010DBF80000012700F08050009021
:1011B0006B4E3068C00510D4306840F480703060E9
:1011C000FFF76AFB009005E0FFF766FB0099401A05
:1011D000022850D83068C005F6D55E4EA0686C363F
:1011E00001280FD00528306810D020F001003060B1
:1011F000306820F004003060A068B8B1FFF74CFB05
:1012000000900FE0306840F00100F4E740F0040087
:101210003060F7E7FFF740FB0099411A41F2883050
:10122000814266D830688007F4D50EE0FFF734FBC2
:10123000009007E0FFF730FB0099411A41F2883037
:10124000814256D830688007F4D42FB1DBF8001003
:1012500021F08051CBF80010A069C8B33D49091DA9
:101260000968C1F3810102294AD00228504607D0FB
:10127000C8F8600000E03CE0FFF70EFB04463BE0EE
:101280004746C8F86000FFF707FB064605E000BFC9
:10129000FFF702FB801B02282BD828688001F7D4B7
:1012A000D4E907010843A16A2E4A490802EB01412B
:1012B000626A41EA8211084394F82C1040EA016105
:1012C000C9F8001001203866FFF7E6FA044606E088
:1012D0003EE000BFFFF7E0FA001B022809D82868AB
:1012E0008001F7D534E000BFFFF7D6FA001B0228D3
:1012F00002D90320BDE8F88F28688001F4D427E0E4
:101300000128F7D0D9F80000E26900F48001914289
:101310001CD1226A00F03F01914217D147F6C071FB
:10132000626A0140B1EB821F10D1A26A4FF0FF3315
:1013300000F4403103EB5202B1EB024F06D194F8B6
:101340002C1000F07060B0EB016F01D00120D1E7EC
:101350000020CFE70438024000004742800E474299
:10136000007000400000FFFF10B5401EB0F1807F0C
:1013700001D3012010BD4FF0E02460610F21601700
:1013800000F0DDFB0020A06107202061002010BDDF
:10139000FEE701684A69D24352050FD46FF48062B8
:1013A0004A61002140F8301F202242738173026994
:1013B00042F004020261017301207047002070476F
:1013C000F8B50446C06A1E460D461746082807D0E1
:1013D000012805D010F5803F02D0206B122804D1DF
:1013E0002068016841F480710160134600224FF0CB
:1013F00001112046009600F05DF840B120680068B9
:10140000C00502D54FF4007020640320F8BD2069A8
:10141000B0F5804F0ED00620216800EAD51040F0CC
:10142000F000086133463A460B49204600F08AF83E
:1014300078B902E005F0FE0000E0E8B2216808613A
:10144000054933463A46891F204600F07BF80028BC
:10145000DCD00120F8BD00000800010070B5164680
:101460000D4604461EE02046FFF793FF08B1012019
:1014700070BD681C16D0FFF70FFA801BA84200D879
:1014800085B920684069C04340070BD5002044F867
:10149000300F20216173A073216941F02001216187
:1014A0002073E4E720684069C0434007DBD4002094
:1014B00070BD00002DE9F047984617460D460446DA
:1014C000C1F30746DDF820902AE000BFB8F1FF3FE6
:1014D00026D0FFF7E1F9A0EB0901414502D8B8F1A8
:1014E000000F1DD12068012E16D0806925EA00006A
:1014F0000004000C12D00020B84211D1002044F8A2
:10150000300F20216173A073216941F02001216116
:1015100020730120BDE8F0874069E7E70120EBE791
:101520002068012E0AD0806925EA00000004000C22
:1015300006D00020B842C9D00020EBE74069F3E7AD
:101540000120F7E72DE9F047984616460D46044678
:101550004FF000094FF0200AC1F3074723E020684D
:101560004069C043400515D42068016841F400710A
:10157000016021686FF480604861C4F8309084F89D
:101580003DA084F83E90216C41F00401216484F870
:101590003C9021E0701C06D0FFF77EF9A0EB08001C
:1015A000B04203D816B1012F1FD021E02068012FCF
:1015B00015D0806925EA00000004000C18D000BF97
:1015C00044F8309F84F80DA084F80E90216941F012
:1015D0002001216184F80C900120BDE8F08740696A
:1015E00025EA00000004000CEAD12068406901E00F
:1015F0002068806925EA00000004000CAFD1ECE708
:1016000070B516460D4604461EE02046FFF7C1FEA3
:1016100008B1012070BD681C16D0FFF73DF9801B92
:10162000A84200D885B920684069C04300060BD5A0
:10163000002044F8300F20216173A073216941F02C
:10164000200121612073E4E720684069C04300065F
:10165000DBD4002070BD000070B586B01421684650
:10166000FEF70AFF1A480024016841F0800101607A
:10167000016801F080010591016841F008010160F5
:10168000016801F008010591016841F00101016064
:10169000016801F001010591016841F0020101605A
:1016A00000680C4E00F002004FF400450590002247
:1016B00029463046FFF7EAF801200095CDE90104FC
:1016C000694630460394FEF7E9FF06B070BD00009E
:1016D00030380240000C0240FEE7FEE7704710B5CC
:1016E000002000F025F8BDE8104000F0ABB9000084
:1016F00070B5802813D2402911D20B4B012401F080
:1017000007051E79AC40094BC90800EBC1100EB1AA
:1017100032B101E0012A03D0195CA143195470BD14
:10172000195C2143FAE70000100000202800002087
:1017300028B1FF224FF480610248FEF795BE0022D7
:10174000F8E7000028000020014A1080518070470F
:101750001000002010B500F0C3FA44F62063012207
:1017600078215448FFF762F908B1002010BD40F617
:10177000C210401EFDD1AE220021782000F0B6FA42
:1017800020220021782000F0B1FA102200217820D8
:1017900000F0ACFAB0220021782000F0A7FAC822AD
:1017A0000021782000F0A2FA00221146782000F0F3
:1017B0009DFA10220021782000F098FA40220021A2
:1017C000782000F093FA81220021782000F08EFA30
:1017D000FF220021782000F089FAA1220021782040
:1017E00000F084FAA6220021782000F07FFAA822D7
:1017F0000021782000F07AFA3F220021782000F0C2
:1018000075FAA4220021782000F070FAD32200217A
:10181000782000F06BFA00221146782000F066FA7A
:10182000D5220021782000F061FAF02200217820F2
:1018300000F05CFAD9220021782000F057FA222229
:101840000021782000F052FADA220021782000F0FE
:101850004DFA12220021782000F048FADB22002104
:10186000782000F043FA20220021782000F03EFA90
:101870008D220021782000F039FA142200217820EE
:1018800000F034FAAF220021782000F02FFA2E2247
:101890000021782000F02AFA0020FFF749FF00F02D
:1018A000D1F805480021018041800121417108469D
:1018B00010BD000028040020100000202DE9F04792
:1018C000814625480D46924601882A781144802990
:1018D00005D28046408869780844402802D3002019
:1018E000BDE8F08700262AE0A9F1200111FB006085
:1018F0006A68002432F810701DE000BF07FA04F097
:10190000000409D5B8F80210B8F8000031442044AA
:1019100089B280B252460BE0BAF1000F1AD0002211
:10192000B8F80210B8F800003144204489B280B2FF
:10193000FFF7DEFE641C2878A042DFD8761C6878AA
:10194000B042D1D8B8F800102A7848461144A8F817
:101950000010C5E70122E3E71000002070B515462E
:101960000E46044609E02A463146FFF7A7FF2178D4
:10197000884201D0C8B270BD641C20780028F2D122
:10198000C0B270BD70B50C460546272200217820F4
:1019900000F0ACF900221146782000F0A7F92A46A1
:1019A0000021782000F0A2F900221146782000F0F2
:1019B0009DF922460021782000F098F90022114676
:1019C000782000F093F9FF220021782000F08EF9B2
:1019D000BDE870402F220021782000F087B970B553
:1019E0000C46054626220021782000F07FF90022CF
:1019F0001146782000F07AF92A460021782000F07C
:101A000075F900221146782000F070F92246002175
:101A1000782000F06BF900221146782000F066F97A
:101A2000FF220021782000F061F9BDE870402F22EC
:101A30000021782000F05AB92E220021782000F0F1
:101A400055B9000070B5104D002400BF04F1B0007E
:101A5000C2B20021782000F049F900221146782016
:101A600000F044F910220021782000F03FF905EB46
:101A7000C41280234021782000F048F9641CE4B2AD
:101A8000082CE3D370BD0000280000207047FFF74A
:101A90004DB9000030B593B030216846FEF7ECFC3C
:101AA00014210CA8FEF7E8FC1E480025016841F04F
:101AB00080510160006800F0805011901A48016860
:101AC00041F4804101600068022400F480401190DC
:101AD00001200090000401908001CDE9064019200A
:101AE00008904FF4A870CDE9090404200B906846D3
:101AF000FFF784FA08B172B6FEE70CA90F2081E85F
:101B000031004FF4A0500F904FF4805010900521F9
:101B10000CA8FFF797F9002801D072B6FEE713B0C2
:101B200030BD0000403802400070004002480168AB
:101B300041F470010160704788ED00E0FEE709079D
:101B4000090E002804DB00F1E02080F80014704743
:101B500000F00F0000F1E02080F8141D7047000035
:101B60001CB5FFF7EBF8FFF795FFFFF775FD4B4846
:101B700049494FF480420160494941600021816038
:101B8000C0E9031241618161C1610162FEF78AFE11
:101B900008B172B6FEE7FFF7DDFD00210846FFF74A
:101BA000D3FD4FF47A752846FEF766FD01223D49C4
:101BB0003DA0FFF7D3FE1E210020FFF7C5FD012247
:101BC00038493CA0FFF7CAFEFFF73CFF2846FEF766
:101BD00053FD07210020FFF702FF2846FEF74CFDCA
:101BE00007210020FFF7CEFE2846FEF745FDFFF750
:101BF00023FFFFF774FDFFF772FD00212320FFF79D
:101C0000A3FD012227492DA0FFF7A8FEFFF71AFF29
:101C100040F6B830FEF730FDFFF761FD00212320CC
:101C2000FFF792FD01221F4925A0FFF797FE6F10D5
:101C300042F210760124224623A16846FEF790FB6B
:101C40001E210020FFF780FD0122204920A0FFF780
:101C500085FEFFF7F7FE0A2C02DA1E2135200BE085
:101C6000642C02DA1E212D2006E0AC424FF01E014A
:101C700001DA252000E01E20FFF766FD012213494E
:101C80006846FFF76BFEFFF7DDFE3846FEF7F4FC13
:101C9000641CB442CFDDCDE700540040280400208E
:101CA000801A0600000000204C4F47414E2078204B
:101CB0000000000048494555000000005349550008
:101CC00053434F52450000002564000008000020E7
:101CD0002020202020202020202020202000000064
:101CE0000148401EFDD1704790D003001CB502236F
:101CF0008DF804100A2100918DF80520014601AAF3
:101D00000148FEF749FF1CBD2804002070B5C2B091
:101D100000248DF8041001A904E0155D0E19641C5F
:101D20007570E4B29C42F8D30A2100915B1C014615
:101D30009BB201AA0248FEF72FFF42B070BD00001F
:101D4000280400204FF04070E1EE100A70470000B8
:101D50000000000000000000000000000000000083
:101D60000000000000000000000000000000000073
:101D700000000000000C000C000C000C000C000C1B
:101D8000000C000C000C000C000C0000000C000CFF
:101D90000000000000000000001B001B001B001BD7
:101DA000001B000000000000000000000000000018
:101DB00000000000000000000000000080198019F1
:101DC00080198019C07FC07F80190033C07FC07F19
:101DD0000033003300330033000000000000000037
:101DE000001E003F807580650074003C001E0007E7
:101DF0008005806580658075003F001E000400043A
:101E000000000000007000D840D8C0D880D900730E
:101E10000006000C801BC036C066C046C0068003AA
:101E20000000000000000000001E003F00330033EF
:101E30000033001E000CC03CC0668063806180637C
:101E4000C03E801C0000000000000000000C000CE0
:101E5000000C000C000C000000000000000000005E
:101E600000000000000000000000000000008000F2
:101E700000010003000600060004000C000C000C2A
:101E8000000C000C000C000400060006000300011A
:101E90008000002000100018000C000C0004000658
:101EA000000600060006000600060004000C000CF8
:101EB0000018001000200000000C002D003F001E44
:101EC00000330000000000000000000000000000DF
:101ED0000000000000000000000000000000000002
:101EE000000C000C000C000CC0FFC0FF000C000C2C
:101EF000000C000C000000000000000000000000CA
:101F000000000000000000000000000000000000D1
:101F10000000000000000000000C000C00040004A1
:101F200000080000000000000000000000000000A9
:101F300000000000001E001E000000000000000065
:101F40000000000000000000000000000000000091
:101F50000000000000000000000000000000000081
:101F6000000C000C00000000000000000003000353
:101F700000030006000600060006000C000C000C22
:101F8000000C0018001800180000000000000000FD
:101F9000001E003F0033806180618061806D806D34
:101FA0008061806180610033003F001E00000000FE
:101FB000000000000006000E001E0036002600068D
:101FC00000060006000600060006000600060006E1
:101FD0000000000000000000001E003F80738061D0
:101FE0008061800100030006000C001800300060D2
:101FF000807F807F0000000000000000001C003E89
:10200000006300630003000E000E000380018001E6
:1020100080618073003F001E00000000000000008F
:102020000006000E000E001E001E001600360036D0
:102030000066807F807F000600060006000000002A
:1020400000000000007F007F006000600060006E04
:10205000007F80638001800180618073003F001EEB
:102060000000000000000000001E003F803380617F
:102070000060006E007F80738061806180618033CA
:10208000003F001E0000000000000000807F807FF5
:1020900080010003000300060006000C000C000C89
:1020A00000080018001800180000000000000000E0
:1020B000001E003F8063806180610021001E003FA0
:1020C0008061806180618061003F001E000000002F
:1020D00000000000001E003F00738061806180618D
:1020E0008073803F801D800180610073003F001E6F
:1020F00000000000000000000000000000000000E0
:10210000000C000C000000000000000000000000B7
:10211000000C000C000000000000000000000000A7
:10212000000000000000000C000C00000000000097
:1021300000000000000C000C000400040008000077
:1021400000000000000080008003000E00380060E6
:102150000038000E80038000000000000000000036
:10216000000000000000000000000000807F807F71
:1021700000000000807F807F000000000000000061
:10218000000000000000000000000000000000400F
:102190000070001C000780010007001C0070004058
:1021A000000000000000000000000000001F803F51
:1021B000C071C060C000C00180030007000E000CA9
:1021C000000C0000000C000C0000000000000000EB
:1021D000001E003F803180718063806F806D806D54
:1021E000806F806700600032003E001C000000002D
:1021F00000000000000E000E001B001B001B001B57
:1022000080318031803F803F8031C060C060C060DD
:102210000000000000000000007C007E00630063FE
:1022200000630063007E007E0063806180618063E4
:10223000007F007E0000000000000000001E003F44
:1022400080318061006000600060006000600060BC
:1022500080618031003F001E00000000000000008F
:10226000007C007F006380638061806180618061A9
:102270008061806100630063007E007C00000000DC
:1022800000000000807F807F0060006000600060D0
:10229000007F007F0060006000600060807F807FC2
:1022A0000000000000000000807F807F0060006070
:1022B00000600060007F007F0060006000600060E0
:1022C000006000600000000000000000001E003FF1
:1022D00080318061006000600060806380638061A5
:1022E00080618031803F001E00000000000000007F
:1022F000806180618061806180618061807F807F9A
:102300008061806180618061806180610000000087
:1023100000000000003F003F000C000C000C000C0F
:10232000000C000C000C000C000C000C003F003FE7
:102330000000000000000000800180018001800199
:102340008001800180018001800180618061807353
:10235000003F001E0000000000000000C06080611F
:10236000006300660066006C0078007C0066006612
:10237000006380618061C060000000000000000018
:10238000006000600060006000600060006000604D
:102390000060006000600060807F807F00000000BF
:1023A00000000000C071C071C07BC07AC06AC06A02
:1023B000C06EC064C060C060C060C060C060C0600B
:1023C0000000000000000000807180718079807939
:1023D0008079806D806D806D8065806780678067A3
:1023E000806380630000000000000000001E003FCA
:1023F0000033806180618061806180618061806183
:1024000080610033003F001E00000000000000005B
:10241000007E007F80638061806180618063007FD7
:10242000007E00600060006000600060000000004E
:1024300000000000001E003F003380618061806169
:10244000806180618061806580670033803F401ECD
:102450000000000000000000007E007F80638061BB
:1024600080618063007F007E00660063006380619E
:102470008061C0600000000000000000000E001F2E
:102480008031803100300038001E000780038061F9
:1024900080618031003F001E00000000000000004D
:1024A000C0FFC0FF000C000C000C000C000C000C66
:1024B000000C000C000C000C000C000C00000000D4
:1024C00000000000806180618061806180618061C6
:1024D000806180618061806180618073003F001E47
:1024E0000000000000000000C060C060C0608031DB
:1024F00080318031001B001B001B001B000E000EF2
:10250000000E00040000000000000000C0C0C0C0B9
:10251000C0C0C0C0C0C0C0CC804C804C805E805267
:102520008052807380618061000000000000000024
:10253000C0C0806080610033003B001E000C000CB6
:10254000001E001F003B80718061C0C000000000C1
:1025500000000000C0C08061806100330033001EB5
:10256000001E000C000C000C000C000C000C000CF9
:102570000000000000000000803F803F8001000359
:1025800000030006000C000C00180018003000606A
:10259000807F807F000000000000000F000F000C13
:1025A000000C000C000C000C000C000C000C000CCB
:1025B000000C000C000C000C000C000F000F0000C1
:1025C000001800180018000C000C000C000C00068D
:1025D00000060006000600030003000300000000E0
:1025E0000000001E001E0006000600060006000691
:1025F00000060006000600060006000600060006AB
:102600000006001E001E0000000C000C001E001240
:102610000033003380618061000000000000000092
:1026200000000000000000000000000000000000AA
:10263000000000000000000000000000000000009A
:1026400000000000000000000000E0FF00000000AB
:1026500000380018000C000000000000000000001E
:10266000000000000000000000000000000000006A
:10267000000000000000000000000000001F803F7C
:1026800080618001801F803F80618063807FC038CF
:1026900000000000000000000060006000600060BA
:1026A000006E007F807380618061806180618073D3
:1026B000007F006E0000000000000000000000002D
:1026C00000000000001E003F807380610060006019
:1026D00080618073003F001E0000000000000000C9
:1026E0008001800180018001801D803F80738061B6
:1026F0008061806180618073803F801D00000000E8
:10270000000000000000000000000000001E003F6C
:1027100000738061807F807F00608071003F001EB9
:102720000000000000000000C007C00F000C000CFB
:10273000807F807F000C000C000C000C000C000C53
:10274000000C000C00000000000000000000000071
:102750000000801D803F80738061806180618061A6
:102760008073803F801D80018063007F003E0000F9
:102770000060006000600060006F807F8071806199
:102780008061806180618061806180610000000003
:10279000000000000006000600000000003E003EB1
:1027A00000060006000600060006000600060006F9
:1027B0000000000000000006000600000000003ECF
:1027C000003E0006000600060006000600060006A1
:1027D000000600060046007E003C0000006000602D
:1027E00000600060806100630066006C007C007621
:1027F000006300638061C060000000000000000012
:10280000003E003E00060006000600060006000628
:102810000006000600060006000600060000000094
:1028200000000000000000000000000080DDC0FF8C
:10283000C0CEC0CCC0CCC0CCC0CCC0CCC0CCC0CC36
:102840000000000000000000000000000000000088
:10285000006F807F807180618061806180618061B4
:1028600080618061000000000000000000000000A6
:1028700000000000001E003F807380618061806165
:1028800080618073003F001E000000000000000017
:10289000000000000000006E007F80738061806196
:1028A000806180618073007F006E00600060006066
:1028B00000600000000000000000801D803F807369
:1028C00080618061806180618073803F801D8001B4
:1028D0008001800180010000000000000000000075
:1028E0000067803F00390030003000300030003099
:1028F0000030003000000000000000000000000078
:1029000000000000001E803F80610060007F803F6B
:1029100080018061007F001E0000000000000000B8
:102920000000000800180018007F007F0018001841
:102930000018001800180018801F800F0000000009
:1029400000000000000000000000000080618061C5
:10295000806180618061806180618063807F803D73
:102960000000000000000000000000000000000067
:10297000C060803180318031001B001B001B000EC5
:10298000000E000600000000000000000000000033
:102990000000000080DD80DD80DD00550055005521
:1029A00000770077002200220000000000000000F5
:1029B0000000000000000000806100330033001EB2
:1029C000000C000C001E003300338061000000008A
:1029D0000000000000000000000080618061803184
:1029E00000330033001B001B001B000E000E000E06
:1029F000001C007C007000000000000000000000CF
:102A0000C07FC07F800100030006000C001800306A
:102A1000C07FC07F00000000000080038007000628
:102A20000006000600060006000E001C001C000E3A
:102A30000006000600060006000680078003000668
:102A40000006000600060006000600060006000656
:102A50000006000600060006000600060006000646
:102A600000060038003C000C000C000C000C000CB0
:102A7000000E00070007000E000C000C000C000CFC
:102A8000000C003C003800000000000000000000C6
:102A9000000000008038807F004700000000000038
:102AA0000000000000000000000000000000000026
:102AB0000000000000000000000000000000000016
:102AC0000000000000000000000000000000000006
:102AD0000000000000000000000000000000E00313
:102AE000E003E003E003E003E003E003E003C003EE
:102AF000C003C001C001C001C001C001000000004E
:102B00000000E003E003E00300000000000000001C
:102B100000003C1E3C1E3C1E3C1E3C1E3C1E3C1E3F
:102B200000000000000000000000000000000000A5
:102B30000000000000000000000000000000000095
:102B4000000000000000CE01CE03DE039E039C03C4
:102B50009C07FF3FFF7F3807380F780F780F780EFC
:102B6000FFFFFFFFF01EF01CE01CE03CE03DE03901
:102B700000000000000000000000FC03FE0FEE1F3C
:102B8000E01EE01EE01EE01EE01FE00FE007F00385
:102B9000FC01FE01FE01FE01FE01FE01FE01FE3D03
:102BA000FC3FF00FE001E001000000000000033EE8
:102BB00007F78FE78EE79EE3BCE3B8E7F8E7F0F7A7
:102BC000E03FC001FF03FF07F307F30FF31EF33CE1
:102BD000F338F3787FF03FE00000000000000000D1
:102BE0000000E007F80F780F781F781F781F780F24
:102BF000F00FE00F801FC37FC3FBE7F3F7F1F7F09F
:102C0000FFF07FF03EF87F7CFF3FEF1F00000000E9
:102C1000000000000000E003E003E003E003E00345
:102C2000C003C00100000000000000000000000020
:102C30000000000000000000000000000000000094
:102C4000000000000000000000003F007C00F001D8
:102C5000E001C003C00780078007800F000F000F4E
:102C6000000F000F000F000F800F80078007C007C4
:102C7000C003E001F0017C003F000F000000007E77
:102C8000001FC007C003E001F001F000F000F800F1
:102C9000780078007800780078007800F800F0007C
:102CA000F000F001E001C003C007001F007E0078C3
:102CB0000000E003C003C001CE39FF3F7F3F200387
:102CC0007003F807780F3C1F380600000000000072
:102CD00000000000000000000000000000000000F4
:102CE00000000000000000000000000000000000E4
:102CF0000000C001C001C001C001C001C001C0018D
:102D0000FFFFFFFFC001C001C001C001C001C00141
:102D100000000000000000000000000000000000B3
:102D200000000000000000000000000000000000A3
:102D3000000000000000000000000000E003E003CD
:102D4000E003E003E001E001E001C00180030000D6
:102D50000000000000000000000000000000000073
:102D600000000000FE3FFE3F0000000000000000E9
:102D70000000000000000000000000000000000053
:102D80000000000000000000000000000000000043
:102D90000000000000000000000000000000000033
:102DA00000000000E003E003E003E0030000000097
:102DB0000000000000000F000F001E001E003C007D
:102DC0003C0078007800F000F000E001E001C00372
:102DD000C00380078007000F000F001E001E003C8C
:102DE000003C0078007800F00000F007F80F7C1F2E
:102DF0003E3E1E3C1F7C1F7C0F780F780F780F78AB
:102E00000F780F780F781F7C1F7C1E3C3E3E7C1F86
:102E1000F80FF00700000000000000000000F000C4
:102E2000F007F03FF03FF001F001F001F001F00198
:102E3000F001F001F001F001F001F001F001F0010A
:102E4000F001F001FF3FFF3F000000000000000024
:102E50000000E00FF83F7C3C3C003E003E003E009E
:102E60003C003C007C00F800F001E003C007800754
:102E7000000F001E003E003CFE3FFE3F0000000031
:102E8000000000000000F00FF81F7C1C3E003E0018
:102E90003E003C003C00F800F00FF80F7C003E00C4
:102EA0001E001E001E001E003E007C1CF81FE01FBE
:102EB000000000000000000000007800F800F800AA
:102EC000F801F803F807F807780F781E781E783CA9
:102ED00078787878FFFFFFFF780078007800780036
:102EE0007800780000000000000000000000FC1FD7
:102EF000FC1FFC1F001E001E001E001E001EE01F07
:102F0000F81FFC007C003E003E001E003E003E001C
:102F10003C007C1CF81FE01F0000000000000000C7
:102F20000000FC01FE078E0F001F001E003E003C4B
:102F3000003CF83DFC3F3E7F1F7E0F3C0F3C0F3CAA
:102F40000F3C0F3E1F1E3E1FFC0FF0030000000051
:102F5000000000000000FF3FFF3FFF3F0F001E008A
:102F60001E003C0038007800F000F000E001E001B5
:102F7000C003C0038007800F800F000F001F001FD9
:102F800000000000000000000000F807FC0F3E1FDA
:102F90001E1E1E3E1E3E1E1E3C1FF80FF007F80FA1
:102FA000FC1E3E3E1F3C1F7C0F7C0F7C1F3C3E3FA7
:102FB000FC1FF00700000000000000000000F00708
:102FC000F80F7C1E3E3C1E3C1F7C1F7C1F7C1F7C20
:102FD0001F3C3F3EFF1FEF071F001E001E003E006C
:102FE0003C00F838F03FE01F000000000000000047
:102FF0000000000000000000000000000000E003EE
:10300000E003E003E0030000000000000000000017
:1030100000000000E003E003E003E0030000000024
:1030200000000000000000000000000000000000A0
:103030000000E003E003E003E00300000000000004
:103040000000000000000000E003E003E003E003F4
:10305000E001E001E001C003800300000000000087
:1030600000000000000003000F003F00FC00F00320
:10307000C00F003F00FE003FC00FF003FC003F0008
:103080000F0003000000000000000000000000002E
:103090000000000000000000000000000000000030
:1030A0000000FFFFFFFF000000000000FFFFFFFF28
:1030B0000000000000000000000000000000000010
:1030C000000000000000000000000000000000E020
:1030D00000F8007E801FE007F8017E001F007E00E0
:1030E000F801E007801F007E00F800E0000000000B
:1030F000000000000000F01FFC3F3E381F381F3862
:103100001E001E003C007800F000E001C003C00378
:10311000C007C007000000000000C007C007C007CC
:1031200000000000000000000000F803FE0F1E1F5A
:103130000F3E7F3CFF78EF79C773C7F38FF38FF3B0
:103140008FF39FF39FF3FF73FF7BF779003C1C1F06
:10315000FC0FF80300000000000000000000000069
:1031600000000000E003E003F007F007F007780F2D
:10317000780F7C0E3C1E3C1E3E3CFE3FFF3F1F78FE
:103180000F780FF007F007F00000000000000000CB
:103190000000000000000000F83FFC3F3E3C1E3CE9
:1031A0001E3C1E3C3E3C7C3CF03FF83F7E3C1F3CBE
:1031B0001F3C0F3C0F3C1F3CFE3FF83F000000004F
:1031C000000000000000000000000000FF01FF07F9
:1031D000871F003E003C007C007800780078007873
:1031E0000078007C007C003E003F831FFF07FF014A
:1031F00000000000000000000000000000000000CF
:10320000F07FFC7F7E781F781F780F780F780F781B
:103210000F780F780F780F780F781F781E787E78E8
:10322000F87FE07F000000000000000000000000C8
:1032300000000000FF3FFF3F003E003E003E003E1A
:10324000003E003EFE3FFE3F003E003E003E003E90
:10325000003E003EFF3FFF3F000000000000000076
:103260000000000000000000FF1FFF1F001E001EE6
:10327000001E001E001E001EFF1FFF1F001E001E5E
:10328000001E001E001E001E001E001E000000008A
:10329000000000000000000000000000FE03FF0F1F
:1032A000871F003E007C007C007800F800F87FF863
:1032B0007FF80F780F7C0F7C0F3E8F1FFF0FFE03F0
:1032C00000000000000000000000000000000000FE
:1032D0001F7C1F7C1F7C1F7C1F7C1F7C1F7C1F7C16
:1032E000FF7FFF7F1F7C1F7C1F7C1F7C1F7C1F7C40
:1032F0001F7C1F7C00000000000000000000000098
:1033000000000000FF3FFF3FE003E003E003E003B5
:10331000E003E003E003E003E003E003E003E00395
:10332000E003E003FF3FFF3F00000000000000005B
:103330000000000000000000FC1FFC1F7C007C005F
:103340007C007C007C007C007C007C007C007C009D
:103350007C0078007800F838F03FC03F00000000A3
:103360000000000000000000000000001F3C1E3CA8
:103370003C3C783CF03CE03DE03FC03F803FC03FFC
:10338000E03FF03DF03C783C7C3C3E3C1F3C0F3C39
:10339000000000000000000000000000000000002D
:1033A000003E003E003E003E003E003E003E003E2D
:1033B000003E003E003E003E003E003E003E003E1D
:1033C000FF3FFF3F00000000000000000000000081
:1033D000000000001FF81FFC1FFC3FFE3FFE3FFEE9
:1033E0007FFF77FF77FFF7F7E7F7E7F3E7F3C7F339
:1033F00007F007F007F007F00000000000000000F1
:1034000000000000000000000F7C0F7C0F7E0F7F8B
:103410000F7F8F7F8F7FCF7FEF7BEF79FF79FF78F3
:10342000FF787F783F783F781F781F780000000092
:10343000000000000000000000000000F007FC1F7A
:103440003E3E1F7C0F780F780FF80FF80FF80FF83B
:103450000FF80FF80F780F781F7C3E3EFC1FF00727
:10346000000000000000000000000000000000005C
:10347000FC3FFF3F1F3E0F3E0F3E0F3E0F3E1F3EE5
:103480003F3EFC3FF03F003E003E003E003E003E1F
:10349000003E003E000000000000000000000000B0
:1034A00000000000F007FC1F3E3E1F7C0F780F78E5
:1034B0000FF80FF80FF80FF80FF80FF80F780F78D4
:1034C0001F7C3E3EFC1FF8077C003F000F000300FE
:1034D0000000000000000000F03FFC3F7E3C3E3C4E
:1034E0001E3C1E3C3E3C3C3CFC3CF03FE03FF03D83
:1034F000F83C7C3C3E3C1E3C1F3C0F3C0000000066
:10350000000000000000000000000000FC07FE1F9B
:103510000E3E003C003C003C003EC01FF80FFE0386
:103520007F001F000F000F001F203E3CFC3FF01FDC
:10353000000000000000000000000000000000008B
:10354000FFFFFFFFE003E003E003E003E003E0032D
:10355000E003E003E003E003E003E003E003E00353
:10356000E003E00300000000000000000000000095
:10357000000000000F7C0F7C0F7C0F7C0F7C0F7C09
:103580000F7C0F7C0F7C0F7C0F7C0F7C0F7C1E3C14
:103590001E3C3E3EFC1FF007000000000000000043
:1035A000000000000000000007F007F007F80F78A7
:1035B0000F7C1E3C1E3C1E3E3C1E3C1F781F780F9D
:1035C000F80FF007F007F007E003E0030000000049
:1035D00000000000000000000000000003E003F015
:1035E00003F007F0E7F3E7F3E7F3E773F77BF77F21
:1035F000FF7F7F7F7F7F7E7F7E3F3E3E3E3E3E3E23
:1036000000000000000000000000000000000000BA
:1036100007F80F7C1E3E3E3E3C1FF80FF007E00708
:10362000E003E003F007F80F7C0F7C1E3E3C1F78A0
:103630000F780FF000000000000000000000000004
:103640000000000007F807780F7C1E3C1E3E3C1F60
:10365000780FF80FF007E003E003E003E003E00376
:10366000E003E003E003E0030000000000000000CE
:103670000000000000000000FF7FFF7F0F001F0020
:103680003E007C00F800F000E001E003C007800F7E
:10369000000F001E003E007CFF7FFF7F0000000047
:1036A000000000000000FF078007800780078007F8
:1036B00080078007800780078007800780078007D2
:1036C00080078007800780078007800780078007C2
:1036D00080078007FF07FF07000000780078003CA4
:1036E000003C001E001E000F000F80078007C00373
:1036F000C003E001E001F000F000780078003C0039
:103700003C001E001E000F000F0007000000F07FAD
:10371000F000F000F000F000F000F000F000F00029
:10372000F000F000F000F000F000F000F000F00019
:10373000F000F000F000F000F000F000F07FF07F0B
:103740000000C000C001C001E003E003F007F00783
:103750007807780F380F3C1E3C1E1E3C1E3C0F386D
:103760000F78077800000000000000000000000053
:103770000000000000000000000000000000000049
:103780000000000000000000000000000000000039
:103790000000000000000000000000000000000029
:1037A000FFFFFFFF000000000000F000000000002D
:1037B0000000000000000000000000000000000009
:1037C00000000000000000000000000000000000F9
:1037D00000000000000000000000000000000000E9
:1037E00000000000000000000000F80FFC3F7C3CDF
:1037F0003E003E003E00FE07FE1F3E3E3E7C3E7801
:103800003E7C7E7CFF3FCF1F0000000000000000D8
:103810000000003C003C003C003C003C003CF83D0B
:10382000FE3F3E3F1F3E0F3C0F3C0F3C0F3C0F3C0A
:103830000F3C1F3C1E3C3E3FFC3FF03B00000000A5
:103840000000000000000000000000000000000078
:103850000000FE03FF0F871F003E003E003C007C7F
:10386000007C007C003C003E003E871FFF0FFE03F3
:10387000000000000000000000001F001F001F00EB
:103880001F001F001F00FF07FF1F3F3E1F3C1F7C44
:103890001F7C1F7C1F781F781F7C1F7C3F3C7F3E56
:1038A000FF1FDF0F0000000000000000000000000C
:1038B00000000000000000000000F803FC0F3E1FA5
:1038C0001E3E1F3C1F7CFF7FFF7F007C007C003C76
:1038D000003E071FFF0FFE03000000000000000075
:1038E0000000FF01E103C003C007C007C007FF7F5E
:1038F000FF7FC007C007C007C007C007C007C007D9
:10390000C007C007C007C007C007C007000000000D
:1039100000000000000000000000000000000000A7
:103920000000EF07FF1F7F3E1F3C1F7C1F7C1F789E
:103930001F781F781F7C1F7C3F3C7F3EFF1FDF0FDF
:103940001E001E001E007C38F83F003C003C003C7E
:10395000003C003C003CFC3DFE3F9E3F1F3F1F3EA5
:103960001F3C1F3C1F3C1F3C1F3C1F3C1F3C1F3C7F
:103970001F3C1F3C00000000000000000000F001A0
:10398000F0010000000000000000E07FE07FE001A7
:10399000E001E001E001E001E001E001E001E0011F
:1039A000E001E001E001E001000000000000000093
:1039B0000000F800F8000000000000000000F83FE0
:1039C000F83FF800F800F800F800F800F800F800F8
:1039D000F800F800F800F800F800F800F800F80027
:1039E000F000F071E07F003C003C003C003C003CFB
:1039F000003C1F3C3E3C7C3CF83CF03DE03DC03F81
:103A0000C03FE03FF03DF83C7C3C3E3C1F3C1F3C4F
:103A100000000000000000000000F07FF001F00155
:103A2000F001F001F001F001F001F001F001F0010E
:103A3000F001F001F001F001F001F001F001F001FE
:103A4000F001F00100000000000000000000000094
:103A5000000000000000000000009EF7FFFFFFFFD5
:103A6000FFFFE7FBE7F9C7F1C7F1C7F1C7F1C7F1FE
:103A7000C7F1C7F1C7F1C7F1000000000000000066
:103A80000000000000000000000000000000FC3DFD
:103A9000FE3F9E3F1F3F1F3E1F3C1F3C1F3C1F3CE5
:103AA0001F3C1F3C1F3C1F3C1F3C1F3C00000000F4
:103AB0000000000000000000000000000000000006
:103AC0000000F007FC1F3E3E1F3C1F7C0F780F7864
:103AD0000F780F780F781F7C1F3C3E3EFC1FF007CD
:103AE00000000000000000000000000000000000D6
:103AF000000000000000F83DFE3F3E3F1F3E0F3C2F
:103B00000F3C0F3C0F3C0F3C0F3C1F3C1E3E3E3F0A
:103B1000FC3FF83F003C003C003C003C003C000007
:103B200000000000000000000000EE07FE1F7E3EC7
:103B30001E3C1E7C1E781E781E781E781E781E7C09
:103B40003E7C7E3EFE1FDE0F1E001E001E001E007D
:103B50001E000000000000000000000000007F1FA9
:103B6000FF1FE71FC71F871F001F001F001F001F29
:103B7000001F001F001F001F001F001F000000008B
:103B80000000000000000000000000000000000035
:103B90000000FC07FE1F0E1E003E003E003FE01F1F
:103BA000FC07FE003E001E001E003E3CFC3FF01FD6
:103BB0000000000000000000000000000000000005
:103BC000800780078007FF7FFF7F800780078007CF
:103BD0008007800780078007800780078007C0076D
:103BE000FF03FF01000000000000000000000000D3
:103BF000000000000000000000001E3C1E3C1E3CB7
:103C00001E3C1E3C1E3C1E3C1E3C1E3C1E3C3E3CC4
:103C10007E3CFE3EFE1FDE0F0000000000000000A4
:103C2000000000000000000000000000000007F09D
:103C30000F780F781E3C1E3C1E3E3C1E3C1E780F2B
:103C4000780FF00FF007F007E003E003000000003A
:103C50000000000000000000000000000000000064
:103C6000000003F0E3F1E3F3E7F3F7F3F7F3F77F93
:103C7000777F7F7F7F7F7F7F3E3E3E3E3E3E3E3E64
:103C80000000000000000000000000000000000034
:103C90000000000000000F7C1E3E3C3E3C1FF80F61
:103CA000F007F007E003F007F807F80F7C1E3E3E30
:103CB0001F3C1F7800000000000000000000000012
:103CC0000000000000000000000007F80F780F7CE3
:103CD0001E3C1E3C3C1E3C1E3C1F780FF80FF0079C
:103CE000F007E003E003C003C003C0038007800FB8
:103CF000007F000000000000000000000000FF3F07
:103D0000FF3F1F003E007C00F800F001E003C00709
:103D1000800F001F001E003CFF7FFF7F000000009F
:103D2000000000000000FE01E003C003C003C00368
:103D3000C003E001E001E001C001C003803F803F1B
:103D4000C003C001E001E001E001C003C003C00303
:103D5000C003E003FE017E000000C001C001C001FD
:103D6000C001C001C001C001C001C001C001C0014B
:103D7000C001C001C001C001C001C001C001C0013B
:103D8000C001C001C001C001C001C0010000C03FAE
:103D9000E003E001E001E001E001C001C003C00375
:103DA000C001E001FE00FE00E001C001C003C0034D
:103DB000C001E001E001E001E001E003C03F003F9D
:103DC00000000000000000000000000000000000F3
:103DD0000000000000000000073FC77FE773FFF10D
:103DE0007EF0000000000000000000000000000065
:103DF00000000000000000000000000000000102C0
:103E00000304060708090000000001020304000083
:103E1000303E00080000002028000000C401000817
:103E2000583E000828000020B80A0000E001000801
:103E30000B1200004E1D0008101A0000AA2A0008EC
:103E40000000000000000000010000001000000061
:083E5000000000000024F40052
:040000050800018965
:00000001FF
