:020000040800F2
:10000000500B002091010008091B00082D16000864
:10001000071B0008030600084F1E00080000000030
:10002000000000000000000000000000E91D0008C2
:1000300005060008000000000B1B0008EB1D00086F
:10004000AB010008AB010008AB010008AB010008E0
:10005000AB010008AB010008AB010008AB010008D0
:10006000AB010008AB010008AB010008AB010008C0
:10007000AB010008AB010008AB010008AB010008B0
:10008000AB010008AB010008AB010008AB010008A0
:10009000AB010008AB010008AB010008AB01000890
:1000A000AB010008AB010008AB010008AB01000880
:1000B000AB010008AB010008AB010008AB01000870
:1000C000AB010008AB010008AB010008AB01000860
:1000D000AB010008AB010008AB010008AB01000850
:1000E000AB010008AB010008AB01000800F002F80A
:1000F00000F03FF80AA090E8000C82448344AAF183
:100100000107DA4501D100F034F8AFF2090EBAE880
:100110000F0013F0010F18BFFB1A43F0010318473B
:10012000982D0000B82D0000103A24BF78C878C17F
:10013000FAD8520724BF30C830C144BF04680C60ED
:10014000704700000023002400250026103A28BF35
:1001500078C1FBD8520728BF30C148BF0B60704739
:10016000642900F07180002070471FB51FBD10B5D5
:1001700010BD00F00CFA1146FFF7F7FF01F004FF85
:1001800000F02AFA03B4FFF7F2FF03BC00F032FAE2
:100190000948804709480047FEE7FEE7FEE7FEE71B
:1001A000FEE7FEE7FEE7FEE7FEE7FEE70448054957
:1001B000054A064B704700004D1E0008ED00000880
:1001C00050050020500B0020500700205007002051
:1001D0000FB41CB5074B06AA7B44694600900598EE
:1001E00000F09BF90020694600F0AAF91CBC5DF8FC
:1001F00014FB00006503000070B5044685690068C3
:10020000C10601D5302600E02026C00707D070BD0A
:10021000D4E9012130469047206A401C20626D1EBF
:10022000F6D570BD70B5044685690078C00707D162
:1002300070BDD4E9012120209047206A401C206233
:100240006D1EF6D570BD00002DE9F0410646002474
:1002500010687529314616A510D0AFF3008000282C
:1002600002DA404213A507E031688A0701D512A5DA
:1002700002E0490704D511A5012401E0AFF3008095
:1002800000210A2206F1240709E0B0FBF2FCB0FBD2
:10029000F2F302FB1C00303078541846491C002849
:1002A000F3D123462A463046BDE8F04100F0D6B8E7
:1002B000000000002D0000002B00000020000000C6
:1002C0002DE9F05F894604464FF0000ADFF824B1BB
:1002D000FB44C0F820A02046E168884700287DD074
:1002E000252806D0D4E901219047206A401C2062CD
:1002F000F1E700255F462046E1688847202806464A
:1003000007DB312E05D2B81910F8200C08B10543CF
:10031000F1E7A80701D525F00405C4F81CA00027C3
:10032000C4F818A02A2E09D0304601F0A1FD38B338
:1003300004EB8708303EC8F8186019E059F8041B30
:10034000204604EB87029161E1688847012F064649
:1003500018D1E069002820DA25F020051DE0D8F842
:10036000180000EB800006EB40003038C8F8180099
:100370002046E1688847064601F07AFD0028EED164
:10038000012F0AD02E2E08D12046E16888477F1C15
:100390000646022F45F02005C4DBA069002803DAD9
:1003A000404245F00105A061E80701D025F01005A5
:1003B000A6B1A6F14100192802D8203645F40065FF
:1003C0004A463146204625604D46FFF7C9FE60B1DA
:1003D000012807D0ED1D25F0070000E007E000F13F
:1003E000080978E705F1040975E730467AE7206ADD
:1003F000BDE8F09FD22B000002F0FF0343EA032286
:1004000042EA024200F0A3B84FF0000200B51346E2
:1004100094469646203922BFA0E80C50A0E80C5024
:10042000B1F12001BFF4F7AF090728BFA0E80C50D5
:1004300048BF0CC05DF804EB890028BF40F8042BCE
:1004400008BF704748BF20F8022B11F0804F18BF3B
:1004500000F8012B70477047704770472DE9F0474F
:100460000D4699469246044600F124080168880624
:1004700004D5E06921F01001216000E00120A842CC
:1004800001DD471B00E00027A1697A1902EB090092
:10049000081AA0612078C00602D42046FFF7ACFEFF
:1004A000002608E0D4E901211AF806009047206AE6
:1004B000401C761C20624E45F4DB2078C0060AD52D
:1004C0002046FFF799FE06E0D4E90121302090474D
:1004D000206A401C2062381EA7F10107F4DC07E007
:1004E000D4E9012118F805009047206A401C2062D9
:1004F000281EA5F10105F3DC2046FFF793FE2078C6
:10050000000602D50220BDE8F0870120FBE70000CD
:1005100001694A1C02610878704700B58FB0CDE9C7
:1005200001310021059105497944CDE903101146B7
:100530006846FFF7C5FE0FB000BD0000E5FFFFFFF6
:100540000A6802F8010B0A6070474FF000020429A4
:10055000C0F0128010F0030C3FF458AFCCF1040C43
:10056000BCF1020F18BF00F8012BA8BF20F8022B26
:10057000A1EB0C01FFF74ABF5FEAC17C24BF00F882
:10058000012B00F8012B48BF00F8012B704775467E
:1005900000F02CF8AE4605006946534620F00700EF
:1005A000854618B020B5FFF701FEBDE820404FF0AA
:1005B00000064FF000074FF000084FF0000B21F04D
:1005C0000701AC46ACE8C009ACE8C009ACE8C0091A
:1005D000ACE8C0098D46704710B50446AFF3008003
:1005E0002046BDE81040FFF7CDBD00000048704731
:1005F000F004002001491820ABBEFEE726000200EF
:100600007047FEE7704700002DE9F84FDFF8B8911A
:100610000024A9F1040B23460F2709F1040AABF1CA
:10062000040EC9E00125A5402A40AA427DD1674EAB
:10063000D1F804C0ACEB0608B44532D014DCBCF1F0
:10064000030F3AD009DCBCF1000F2AD0BCF1010F36
:100650001CD0BCF1020F31D11DE0BCF1110F17D03D
:10066000BCF1120F2AD119E0B8F5881F19D006DCA9
:10067000B8F5803F15D0B8F5801F1FD111E0B8F54F
:10068000001F0ED0B8F5041F18D10AE0CB6815E0A2
:10069000CB681B1D12E0CB6808330FE0CB680C332E
:1006A0000CE08B682BB1012B4FF0080303D04561A0
:1006B00004E0042302E0056100E00023FF2A01D8E2
:1006C000064601E000F104064FEA840501D9A5F1D0
:1006D0002005D6F8008007FA05FC28EA0C0803FA82
:1006E00005F548EA0508C6F800804D68ED0062D5BA
:1006F000374DAE6946F00106AE61AD6924F00306E0
:1007000005F001050095334D06EB050CDCF80850AB
:10071000A607360F07FA06F825EA0805DFF8B880BD
:10072000404503D14FF0000817E044E0DFF8AC800B
:10073000404502D14FF001080FE0DFF8A4804045AA
:1007400002D14FF0020808E0DFF89880404502D15E
:100750004FF0030801E04FF0040808FA06F848EAF1
:100760000508CCF808804D68D9F80060ED024D46C8
:1007700001D5164300E096432E604D68DAF800601C
:10078000AD02554601D5164300E096432E604D68F4
:10079000DBF80060AD035D4601D5164300E09643EB
:1007A0002E604D68DEF80060ED03754601D51643F6
:1007B00000E096432E60641C0D682A46E5407FF4F5
:1007C00031AFBDE8F88F00000804014000001110AF
:1007D000001002400000014000080140000C0140F0
:1007E000001001400014014001488068704700007B
:1007F0002400002070B5040025D094F83D000025A9
:1008000020B984F83C50204600F0CAFB242084F82C
:100810003D002068016821F0010101602068016845
:1008200041F4004101602068016821F40041016049
:1008300000F022FD4D4A6168914201D84C4900E028
:100840004C49884201D2012070BD4B492368B0FB5E
:10085000F1F15E6826F03F060E435E6063689342E6
:1008600006D94FF4967359434FF47A73B1FBF3F101
:100870002368491C1E6A26F03F06314319626168ED
:10088000914210D84900401EB0FBF1F2521CC2F355
:100890000B02042A01D2042022E0B0FBF1F0401C3C
:1008A000C0F30B001CE0A268F2B301EBC10303EB41
:1008B0000116431EB3FBF6F35B1C43F480431B0598
:1008C00049D092B301EBC10202EB0111401EB0FB13
:1008D000F1F0401CC0F30B0040F4804040F40040B5
:1008E0002168CA694CF6FF739A431043C861D4E982
:1008F000071001432068026822F0C0021143016022
:10090000D4E9030101432068826848F2FF339A4327
:1009100011438160D4E9050108432168CA6822F0C7
:10092000FF021043C86001E00EE016E02068016895
:1009300041F0010101602564202084F83D00256319
:1009400084F83E50002070BD01EB4106431EB3FB0E
:10095000F6F35B1CB3E70120C2E701EB4101401E47
:10096000B0FBF1F0401CC0F30B00B7E7A08601001C
:1009700080841E0000093D0040420F002DE9FF4F1A
:1009800081B089460446FFF72FFF054694F83D00E5
:100990004FF0000820287DD119230122504920461C
:1009A000009500F0A7FF002874D194F83C000128BE
:1009B00070D0012084F83C0020680168C90703D189
:1009C000016841F0010101602068016821F40061C3
:1009D0000160242084F83D00002626644148E0623E
:1009E0004FF0011B20272068016841F480710160ED
:1009F0000095002259462046049B00F07BFF50B131
:100A000020680068C00502D54FF400702064032000
:100A100005B0BDE8F08F216809F0FE000861FFF71E
:100A2000E3FE2168054648694969C0F34000C1F307
:100A300080214FF0A00A0FE0FFF7D6FE411B04987B
:100A4000814200D808B984F83DA021684869496905
:100A5000C0F34000C1F3802194F83D20A02A02D0C9
:100A600008B90029E8D084F83D7020684169C9437D
:100A7000890716D4016841F400710160206841695A
:100A800080691923012216492046009500F032FFA3
:100A9000B8B900E021E084F83D7084F83C600020A3
:100AA000B6E7016841F40071016021686FF480606D
:100AB0004861192301220A492046009500F01AFFD7
:100AC00008B10120A4E7039808F1010880458AD302
:100AD00084F83D7084F83C60F3E7022098E700005A
:100AE000020010000000FFFF2DE9F84F1F4690465E
:100AF0008A460446DDF82890FFF776FE054694F80E
:100B00003D0020287FD1192301224049204600952D
:100B100000F0F0FE002876D194F83C00012872D055
:100B2000012084F83C0020680168C90703D10168EE
:100B300041F0010101602068016821F40061016059
:100B4000212084F83D00102084F83E000026266411
:100B5000C4F824806785608D20852D48E0622B468F
:100B60004A465146204600F079FD90B92068416917
:100B70008069009036E02A464946204600F098FFFA
:100B800050B1206C042804D12068016841F4007140
:100B900001600120BDE8F88F606A21680078086173
:100BA000606A401C6062618D491E6185218D491E0D
:100BB00089B2218522685369DB435B070BD451B1AD
:100BC00000781061606A401C6062608D401E608524
:100BD000208D401E20852A464946204600F05EFEB4
:100BE0000028CED1208D0028C5D154F83D0B0168D6
:100BF00041F400710160202004F81E09E677667751
:100C00000020C7E7FFE70220C4E700000200100051
:100C10000000FFFF2DE9FF4F83B00025DDE91079CB
:100C20009A4693460446DDF848800095FFF7DCFDC0
:100C3000064694F83D0020287CD1192301228849DA
:100C40002046009600F056FE0028F5D194F83C00AE
:100C500001286FD0012084F83C0020680168C90792
:100C600003D1016841F0010101602068016821F4AD
:100C700000610160222084F83D00402084F83E009D
:100C800025646762A4F82A90608D20857548E0622B
:100C9000CDE9008653465A462046049900F02CFDC3
:100CA00000287CD1208DDFF8C091202768B1012871
:100CB00014D00228206801681ED041F480610160D0
:100CC0002068416980690090BCE0206841698169C1
:100CD0000091016841F400710160B3E0206801688F
:100CE00021F48061016072B62068416981690091D8
:100CF000016841F400710AE041F40061016072B6DC
:100D00002068416981690091016821F48061016076
:100D100062B697E0032865D801280CD00228434624
:100D20004FF000024946204600960BD000F0E2FD4D
:100D3000A8BB0CE091E032464146204600F080FE20
:100D400068BB72E000F0D6FD48BB72B633E02068A5
:100D5000016821F48061016072B620680069616AEF
:100D60000870606A401C6062208D401E2085608D86
:100D7000401E60853D4846F2A8110068B0FBF1F0C6
:100D8000C0EBC00000EB80000090401E009007D038
:100D900020684069C04340070DD50098F5E727E07B
:100DA00044F8305F6773A573206940F0200020612C
:100DB00062B625731CE02068016841F4007101608F
:100DC00020680069616A0870606A401C6062218D59
:100DD000491E2185618D491E618562B621680969B8
:100DE000017026E032464146204600F029FE18B147
:100DF000012007B0BDE8F08F20680069616A0870C3
:100E0000606A401C6062208D401E81B22185608D29
:100E1000401E608520684269D243520712D40329DC
:100E200003D1016821F48061016020680069616A72
:100E30000870606A401C6062208D401E2085608DB5
:100E4000401E6085208D00287FF464AF84F83D70DB
:100E500084F83E5084F83C50CBE70220C9E70000FC
:100E6000020010000000FFFF04000100300000201D
:100E70002DE9FF4F83B09A46DDE91197934604466A
:100E8000DDF84080FFF7B0FC054694F83D002028CF
:100E90007FD11923012240492046009500F02AFD08
:100EA000002876D194F83C00012872D0012084F803
:100EB0003C0020680168C90703D1016841F00101C5
:100EC00001602068016821F400610160212084F83C
:100ED0003D00402084F83E0000262664C4F82480AB
:100EE000A4F82A90608D20852C48E062CDE9007539
:100EF00053465A462046049900F07CFC70B930E015
:100F00002A463946204600F0D3FD58B1206C04280B
:100F100004D12068016841F400710160012007B02C
:100F2000BDE8F08F606A216800780861606A401C43
:100F30006062218D491E89B22185628D521E6285B3
:100F400022685369DB435B070BD469B100781061F9
:100F5000606A401C6062208D401E2085608D401EAE
:100F60006085208D0028CBD12A463946204600F0E6
:100F700095FC0028CAD154F83D0B016841F400717A
:100F80000160202004F81E09E67766770020C6E796
:100F9000FFE70220C3E70000020010000000FFFF8F
:100FA00030B585B0002100910191029103911E4D51
:100FB00003681E4C122103221D48AB4216D1A369BF
:100FC00043F00803A361A369039203F008030493A9
:100FD000C023CDE900316946FFF716FBE06940F414
:100FE0000010E061E06900F4001019E0114DAB421F
:100FF00017D1A36943F00803A361A369039203F027
:10100000080304934FF44063CDE900316946FFF7CC
:10101000FBFAE06940F48000E061E06900F48000E0
:10102000049005B030BD00000054004000100240A4
:10103000000C0140005800400248816802781144C9
:101040008160704724000020074810B5016841F016
:1010500010010160032000F067F80F2000F006F88F
:1010600000F024F8002010BD0020024070B50D4DA6
:1010700004464FF47A712878B1FBF0F00A49096808
:10108000B1FBF0F000F0BEFA48B9102C07D20022F4
:101090002146501E00F028F800206C6070BD012031
:1010A00070BD000024000020300000200C4808B56E
:1010B000816941F001018161816901F001010091C3
:1010C000C16941F08051C161C06900F08050009059
:1010D0000448416821F0E06141F00071416008BDC1
:1010E0000010024000000140F0B40E4B1B680C469B
:1010F000C3F30223C3F10705042D00D90425191DEC
:10110000072901D2002300E0DB1E012606FA05F1C3
:10111000491E214099409E40761E16403143F0BC46
:1011200000F096BE0CED00E0064900F007020868EA
:101130004FF6FF03184040EA0220034A10430860BC
:10114000704700000CED00E00000FA052DE9F047C3
:101150000F46050061D0434E306800F00700B842EA
:1011600009D2306820F0070038433060306800F062
:101170000700B84251D128683B4C810712D540077F
:1011800003D5606840F4E06060602878000703D50C
:10119000606840F4605060606068A96820F0F0000A
:1011A000084360602878C00728D06868012810D0FC
:1011B0002168022810D0890700292EDA616821F001
:1011C000030101436160FFF70FFB804641F288395C
:1011D0000DE021688903EFE78901EDE7FFF704FBE4
:1011E000A0EB0801494502D90320BDE8F0876068FB
:1011F000696800F00C00B0EB810FEFD1306800F0AF
:101200000700B8420BD9306820F00700384330603F
:10121000306800F00700B84201D00120E5E72878E7
:10122000400705D56068E96820F4E0600843606025
:101230002878000706D56068296920F4605040EAE4
:10124000C100606000F028F86168084AC1F303112A
:10125000515CC8400649086006480068FFF706FF71
:101260000020C2E700200240001002408E2E00083D
:101270003000002028000020044805490068496823
:10128000044AC1F30221515CC8407047300000207D
:10129000001002409E2E00080E4A51680E4801F0D0
:1012A0000C03042B11D0082B0FD10C48C1F383433E
:1012B000C903C05C0AD55168084AC1F34041921E77
:1012C000515C054A5043B0FBF1F070470449484374
:1012D000704700000010024000127A007E2E0008C5
:1012E00000093D002DE9F84F040070D02078C04D72
:1012F000C00749D06868C0F38100012807D068683A
:10130000C0F38100022809D16868C00306D52868A7
:10131000800339D560680028E7D035E06068B0F513
:10132000803F0BD010B1B0F5A02F11D0286820F469
:1013300080302860286820F4802002E0286840F48B
:1013400080302860606890B1FFF74EFA06460AE0E8
:10135000286840F480202860F0E700BFFFF744FAD7
:10136000801B642873D828688003F7D50CE0FFF74A
:101370003BFA064605E000BFFFF736FA801B6428FB
:10138000F0D828688003F7D420789A4E80074FF071
:1013900001094FF0000839D5686810F00C0F07D02C
:1013A0006868C0F38100022809D16868C00306D4C8
:1013B0002868800714D52069012808D110E0206929
:1013C000B0B1C6F80090FFF70FFA074605E00AE152
:1013D000FFF70AFAC01B0228C4D828688007F7D58F
:1013E0002868616920F0F80040EAC10028600DE03B
:1013F000C6F80080FFF7F8F9074604E0FFF7F4F9B4
:10140000C01B022823D828688007F7D4207800075B
:101410002CD57948A169D9B1C0F80090FFF7E4F95B
:10142000074604E0FFF7E0F9C01B02280FD8686AFE
:101430008007F7D571484FF4FA510068B0FBF1F01E
:10144000009000BF0098411E0091FAD20EE080E0AB
:10145000C0F80080FFF7C8F9074604E0FFF7C4F9B9
:10146000C01B022875D8686A8007F7D42078400727
:1014700060D5E8690027C00008D4E86940F08050D2
:10148000E861E869012700F0805000905C4801683D
:10149000C90513D40168834641F480710160FFF7E8
:1014A000A3F9824606E000BFFFF79EF9A0EB0A0011
:1014B00064284ED8DBF80000C005F5D5E0680128A7
:1014C0000AD008B1052813D0286A20F0010028624C
:1014D000286A20F0040002E0286A40F00100286237
:1014E000E06841F2883B98B1FFF77EF982460BE055
:1014F000286A40F004002862EEE700BFFFF774F9A5
:10150000A0EB0A0159455AD8286A8007F6D50CE0A5
:10151000FFF76AF9824605E0FFF766F9A0EB0A01DA
:1015200059454CD8286A8007F6D41FB1E86920F0E5
:101530008050E861E06988B36968C1F381010229DC
:1015400044D00228C6F8608004D0FFF74DF9044665
:1015500038E034E0FFF748F9074604E0FFF744F9C4
:10156000C01B02282BD828688001F7D4206AB0F568
:10157000803F05D16868A16820F4003008436860A6
:10158000D4E908010843696821F4741108436860CC
:10159000C6F86090FFF728F9044606E025E000BF92
:1015A000FFF722F9001B022809D828688001F7D527
:1015B0001BE000BFFFF718F9001B022802D9032027
:1015C000BDE8F88F28688001F4D40EE00128F7D038
:1015D0006868226A00F48031914204D1616A00F4A3
:1015E0007010884201D00120EAE70020E8E70000FF
:1015F00000100240000042428004424230000020BD
:101600000070004010B5401EB0F1807F01D3012072
:1016100010BD4FF0E02460610F21601700F018FC4E
:101620000020A06107202061002010BDFEE70168B6
:101630004A69D24352050FD46FF480624A61002197
:1016400040F8301F202242738173026942F0040285
:10165000026101730120704700207047F8B504460D
:10166000C06A1E460D461746082807D0012805D037
:1016700010F5803F02D0206B122804D12068016849
:1016800041F480710160134600224FF001112046A1
:10169000009600F02FF940B120680068C00502D51F
:1016A0004FF4007020640320F8BD2069B0F5804F2E
:1016B0000ED00620216800EAD51040F0F000086145
:1016C00033463A460B49204600F05CF978B902E00F
:1016D00005F0FE0000E0E8B22168086105493346E4
:1016E0003A46891F204600F04DF90028DCD0012041
:1016F000F8BD0000080001002DE9F84F044600681D
:1017000089460B9D01689846174641F48061016047
:101710002068016841F48071016000954FF0011B61
:101720000022594620460A9B00F0E4F84FF4007A64
:1017300040B120680068C00501D5C4F840A003206E
:10174000BDE8F88F216809F0FE0008612B462849A2
:1017500020460A9A00F016F9F0BB206841698069BA
:1017600000902A4620460A9900F0A2F940B1206C68
:1017700004283AD12068016841F40071016034E026
:10178000FEB2B8F1010F09D02168380A08612A4673
:1017900020460A9900F08CF90028E8D120680661FB
:1017A0002A4620460A9900F083F90028DFD12068F4
:1017B000016841F48071016000950022594620467D
:1017C0000A9B00F097F80028B3D1216809F0FF00C8
:1017D00040F00100086100E007E02B460449204684
:1017E0000A9A00F0CFF80028AAD00120A8E700004C
:1017F000020001002DE9F843044600680D46DDE9CA
:10180000089701689846164641F4807101604B467E
:1018100000224FF001112046009700F06BF848B10C
:1018200020680068C00502D54FF4007020640320D2
:10183000BDE8F883216805F0FE0008613B464A4692
:101840001549204600F09EF888B9206841698069F2
:1018500000903A464946204600F02AF948B1206CEB
:10186000042804D12068016841F40071016001205E
:10187000DEE7F5B2B8F1010F09D02168300A08613E
:101880003A464946204600F013F90028E7D120687F
:1018900005610020CCE700000200010070B516468B
:1018A0000D4604461EE02046FFF7C1FE08B10120A8
:1018B00070BD681C16D0FEF797FF801BA84200D8A9
:1018C00085B920684069C04340070BD5002044F823
:1018D000300F20216173A073216941F02001216143
:1018E0002073E4E720684069C0434007DBD4002050
:1018F00070BD00002DE9F047984617460D46044696
:10190000C1F30746DDF820902AE000BFB8F1FF3FA1
:1019100026D0FEF769FFA0EB0901414502D8B8F1D6
:10192000000F1DD12068012E16D0806925EA000025
:101930000004000C12D00020B84211D1002044F85D
:10194000300F20216173A073216941F020012161D2
:1019500020730120BDE8F0874069E7E70120EBE74D
:101960002068012E0AD0806925EA00000004000CDE
:1019700006D00020B842C9D00020EBE74069F3E769
:101980000120F7E72DE9F047984616460D46044634
:101990004FF000094FF0200AC1F3074723E0206809
:1019A0004069C043400515D42068016841F40071C6
:1019B000016021686FF480604861C4F8309084F859
:1019C0003DA084F83E90216C41F00401216484F82C
:1019D0003C9021E0701C06D0FEF706FFA0EB08004B
:1019E000B04203D816B1012F1FD021E02068012F8B
:1019F00015D0806925EA00000004000C18D000BF53
:101A000044F8309F84F80DA084F80E90216941F0CD
:101A10002001216184F80C900120BDE8F087406925
:101A200025EA00000004000CEAD12068406901E0CA
:101A30002068806925EA00000004000CAFD1ECE7C3
:101A40002DE9F041002590460E460446202728E067
:101A50004069C043C0060CD454F8301B6FF010002E
:101A6000486144F810596777A577206A2062257786
:101A700014E0FEF7B9FEA0EB0800B04200D886B92A
:101A800020684069C04340060BD544F8305F677357
:101A9000A573206940F02000206125730120BDE876
:101AA000F08120684169C9434906D1D40020F6E796
:101AB00070B516460D4604461EE02046FFF7B7FDFA
:101AC00008B1012070BD681C16D0FEF78DFE801B8A
:101AD000A84200D885B920684069C04300060BD5EC
:101AE000002044F8300F20216173A073216941F078
:101AF000200121612073E4E720684069C0430006AB
:101B0000DBD4002070BDFEE7FEE7704770B580288B
:101B100013D2402911D20B4B012401F007051E7985
:101B2000AC40094BC90800EBC1100EB132B101E065
:101B3000012A03D0195CA143195470BD195C2143DB
:101B4000FAE70000080000203400002028B1FF223E
:101B50004FF480610248FEF74FBC0022F8E7000016
:101B600034000020014A1080518070470800002096
:101B700010B500F0A3FA44F62063012278215448FE
:101B8000FEF7FCFE08B1002010BD40F6C210401E5A
:101B9000FDD1AE220021782000F096FA202200210B
:101BA000782000F091FA10220021782000F08CFAC1
:101BB000B0220021782000F087FAC8220021782086
:101BC00000F082FA00221146782000F07DFA1022FF
:101BD0000021782000F078FA40220021782000F0DF
:101BE00073FA81220021782000F06EFAFF22002192
:101BF000782000F069FAA1220021782000F064FA30
:101C0000A6220021782000F05FFAA8220021782087
:101C100000F05AFA3F220021782000F055FAA42261
:101C20000021782000F050FAD3220021782000F023
:101C30004BFA00221146782000F046FAD522002106
:101C4000782000F041FAF0220021782000F03CFAE0
:101C5000D9220021782000F037FA222200217820B2
:101C600000F032FADA220021782000F02DFA122258
:101C70000021782000F028FADB220021782000F0F3
:101C800023FA20220021782000F01EFA8D22002164
:101C9000782000F019FA14220021782000F014FABC
:101CA000AF220021782000F00FFA2E2200217820A8
:101CB00000F00AFA0020FFF749FF00F071F805482C
:101CC00000210180418001214171084610BD0000C2
:101CD00088040020080000202DE9F04781462548AF
:101CE0000D46924601882A781144802905D2804603
:101CF000408869780844402802D30020BDE8F08776
:101D000000262AE0A9F1200101FB00606A68002496
:101D100032F810701DE000BF07FA04F0000409D586
:101D2000B8F80210B8F800003144204489B280B2FB
:101D300052460BE0BAF1000F1AD00022B8F8021098
:101D4000B8F800003144204489B280B2FFF7DEFECB
:101D5000641C2878A042DFD8761C6878B042D1D8BD
:101D6000B8F800102A7848461144A8F80010C5E7D2
:101D70000122E3E70800002070B515460E46044630
:101D800009E02A463146FFF7A7FF2178884201D0B3
:101D9000C8B270BD641C20780028F2D1C0B270BDFA
:101DA00070B5104D002400BF04F1B000C2B2002194
:101DB000782000F089F900221146782000F084F99B
:101DC00010220021782000F07FF905EBC412802357
:101DD0004021782000F088F9641CE4B2082CE3D399
:101DE00070BD0000340000207047FFF725B930B502
:101DF0008FB028216846FEF707FB14210AA8FEF7DA
:101E000003FB01210804CDE90010002402940225FF
:101E10000491CDE907504FF4E01009906846FFF7B0
:101E200061FA08B172B6FEE70F20CDE90A054FF45A
:101E30008060CDE90C4002210AA80E94FFF786F9D4
:101E4000002801D072B6FEE70FB030BD7047FEE744
:101E50000907090E002804DB00F1E02080F80014D7
:101E6000704700F00F0000F1E02080F8141D70476B
:101E700030380A2801D2012070470020704700F056
:101E80000F01000900EB800001EB4000C0B2704779
:101E90000A21B0FBF1F201FB1202B0FBF1F042EAC1
:101EA0000010C0B27047000038B500F03DF8154C86
:101EB00015A1A07900F5FA600090E37862791548E1
:101EC000FEF786F92078009012486378A27812A174
:101ED0000B30FEF77DF9012212490E48FFF74CFF47
:101EE0001E210020FFF73EFE0A4801220D490B305B
:101EF000FFF742FF00210846FFF734FEBDE83840F7
:101F0000FFF74EBF0E00002025642F25642F2530DB
:101F100034640000DC04002025643A25643A25641A
:101F200000000000000000203EB5154C6420072191
:101F30000094CDE9011001230022D0211148FEF7C1
:101F400069FE2078FFF79BFFA4F10E021070607805
:101F5000FFF795FF5070A078FFF791FF9070E07841
:101F6000FFF78DFF10712079FFF789FF50716079BD
:101F7000FFF785FFD070A079FFF781FF90713EBD1C
:101F80001C000020340400200EB5FFF75DF8FFF7B9
:101F90002EFF2848816941F020018161816901F0AB
:101FA00020010091816941F008018161816901F09E
:101FB00008010091816941F00401816180691E4935
:101FC00000F0040000901D4800244FF4804501609B
:101FD0001B49C0E90114C0E9034544618461C4613F
:101FE0000462FEF707FC08B172B6FEE71348154914
:101FF000543001601449C0E90114C0E9034544614B
:102000008461C4610462FEF7F5FB08B172B6FEE7B5
:10201000FFF7AEFD40F2E97205210C208DE80700C4
:1020200002230E222521002000F010F8FFF73CFFCC
:10203000FCE700000010024000540040340400207F
:10204000A086010000580040801A06002DE9FE43DA
:102050009946DDE90B45174688460A9EFFF718FFAB
:10206000144B18704046FFF713FF58703846FFF7BF
:102070000FFF98704846FFF70BFFD8703046FFF708
:1020800007FF18712046FFF703FF58716424B5FB62
:10209000F4F004FB1050FFF7FBFE98710720CDE928
:1020A0000030029401230022D0210348FEF7E0FE15
:1020B000BDE8FE8315000020340400200148401EC6
:1020C000FDD1704790D003001CB502238DF8041099
:1020D0000A2100918DF80520014601AA0148FEF76A
:1020E00003FD1CBD8804002070B5C2B000248DF82B
:1020F000041001A904E0155D0E19641C7570E4B2AA
:102100009C42F8D30A2100915B1C01469BB201AAB4
:102110000248FEF7E9FC42B070BD000088040020D0
:1021200000000000000000000000000000000000AF
:10213000000000000000000000000000000000009F
:10214000000000000000000C000C000C000C000C53
:10215000000C000C000C000C000C000C0000000C2B
:10216000000C0000000000000000001B001B001B12
:10217000001B001B00000000000000000000000029
:1021800000000000000000000000000000008019B6
:10219000801980198019C07FC07F80190033C07FEB
:1021A000C07F003300330033003300000000000024
:1021B0000000001E003F807580650074003C001E1A
:1021C00000078005806580658075003F001E000463
:1021D000000400000000007000D840D8C0D880D9AA
:1021E00000730006000C801BC036C066C046C006E7
:1021F00080030000000000000000001E003F0033CC
:1022000000330033001E000CC03CC0668063806158
:102210008063C03E801C0000000000000000000C35
:10222000000C000C000C000C00000000000000007E
:10223000000000000000000000000000000000009E
:10224000800000010003000600060004000C000CE2
:10225000000C000C000C000C00040006000600033B
:1022600000018000002000100018000C000C000489
:102270000006000600060006000600060004000C2A
:10228000000C0018001000200000000C002D003F82
:10229000001E0033000000000000000000000000ED
:1022A000000000000000000000000000000000002E
:1022B0000000000C000C000C000CC0FFC0FF000C64
:1022C000000C000C000C00000000000000000000EA
:1022D00000000000000000000000000000000000FE
:1022E00000000000000000000000000C000C0004D2
:1022F00000040008000000000000000000000000D2
:10230000000000000000001E001E00000000000091
:1023100000000000000000000000000000000000BD
:1023200000000000000000000000000000000000AD
:102330000000000C000C0000000000000000000382
:10234000000300030006000600060006000C000C57
:10235000000C000C0018001800180000000000001D
:102360000000001E003F0033806180618061806D4D
:10237000806D8061806180610033003F001E00003D
:102380000000000000000006000E001E00360026BF
:10239000000600060006000600060006000600060D
:1023A00000060000000000000000001E003F8073D7
:1023B00080618061800100030006000C001800307D
:1023C0000060807F807F0000000000000000001C93
:1023D000003E006300630003000E000E0003800156
:1023E000800180618073003F001E0000000000003B
:1023F00000000006000E000E001E001E0016003633
:1024000000360066807F807F000600060006000020
:10241000000000000000007F007F0060006000609E
:10242000006E007F80638001800180618073003FC7
:10243000001E0000000000000000001E003F80336E
:1024400080610060006E007F8073806180618061C8
:102450008033003F001E0000000000000000807F6D
:10246000807F80010003000300060006000C000CC2
:10247000000C000800180018001800000000000000
:102480000000001E003F8063806180610021001E0B
:10249000003F8061806180618061003F001E00001C
:1024A000000000000000001E003F0073806180619A
:1024B00080618073803F801D800180610073003FD8
:1024C000001E0000000000000000000000000000EE
:1024D0000000000C000C00000000000000000000E4
:1024E0000000000C000C00000000000000000000D4
:1024F0000000000000000000000C000C00000000C4
:10250000000000000000000C000C000400040008A3
:10251000000000000000000080008003000E003872
:1025200000600038000E8003800000000000000002
:102530000000000000000000000000000000807F9C
:10254000807F00000000807F807F0000000000008E
:10255000000000000000000000000000000000007B
:1025600000400070001C000780010007001C007084
:102570000040000000000000000000000000001FFC
:10258000803FC071C060C000C00180030007000E22
:10259000000C000C0000000C000C0000000000000B
:1025A0000000001E003F803180718063806F806D6D
:1025B000806D806F806700600032003E001C00006C
:1025C000000000000000000E000E001B001B001B9E
:1025D000001B80318031803F803F8031C060C0600F
:1025E000C0600000000000000000007C007E00636E
:1025F000006300630063007E007E00638061806191
:102600008063007F007E0000000000000000001ECC
:10261000003F803180610060006000600060006009
:10262000006080618031003F001E0000000000005B
:102630000000007C007F00638063806180618061B6
:1026400080618061806100630063007E007C000027
:10265000000000000000807F807F0060006000605C
:102660000060007F007F0060006000600060807F8D
:10267000807F0000000000000000807F807F0060FD
:10268000006000600060007F007F0060006000600C
:102690000060006000600000000000000000001EFC
:1026A000003F803180610060006000608063806373
:1026B000806180618031803F001E000000000000CA
:1026C0000000806180618061806180618061807FC5
:1026D000807F8061806180618061806180610000B5
:1026E000000000000000003F003F000C000C000C48
:1026F000000C000C000C000C000C000C000C003F47
:10270000003F000000000000000080018001800107
:1027100080018001800180018001800180618061F1
:102720008073003F001E0000000000000000C06039
:102730008061006300660066006C0078007C0066C3
:102740000066006380618061C060000000000000DE
:1027500000000060006000600060006000600060D9
:1027600000600060006000600060807F807F00008B
:10277000000000000000C071C071C07BC07AC06A58
:10278000C06AC06EC064C060C060C060C060C0602D
:10279000C06000000000000000008071807180793E
:1027A00080798079806D806D806D806580678067BD
:1027B0008067806380630000000000000000001E4E
:1027C000003F003380618061806180618061806151
:1027D000806180610033003F001E000000000000A7
:1027E0000000007E007F8063806180618061806383
:1027F000007F007E006000600060006000600000FC
:10280000000000000000001E003F00338061806176
:102810008061806180618061806580670033803F76
:10282000401E0000000000000000007E007F80636A
:10283000806180618063007F007E006600630063CA
:1028400080618061C0600000000000000000000E98
:10285000001F8031803100300038001E00078003E7
:10286000806180618031003F001E00000000000098
:102870000000C0FFC0FF000C000C000C000C000C9E
:10288000000C000C000C000C000C000C000C0000F4
:1028900000000000000080618061806180618061D3
:1028A0008061806180618061806180618073003FB0
:1028B000001E0000000000000000C060C060C0609A
:1028C000803180318031001B001B001B001B000E7B
:1028D000000E000E00040000000000000000C0C058
:1028E000C0C0C0C0C0C0C0C0C0CC804C804C805EE6
:1028F000805280528073806180610000000000007F
:102900000000C0C0806080610033003B001E000CEE
:10291000000C001E001F003B80718061C0C00000E1
:10292000000000000000C0C08061806100330033FF
:10293000001E001E000C000C000C000C000C000C13
:10294000000C0000000000000000803F803F80017C
:10295000000300030006000C000C001800180030F3
:102960000060807F807F000000000000000F000FEB
:10297000000C000C000C000C000C000C000C000CF7
:10298000000C000C000C000C000C000C000F000FE1
:102990000000001800180018000C000C000C000CBF
:1029A0000006000600060006000300030003000006
:1029B00000000000001E001E0006000600060006C3
:1029C00000060006000600060006000600060006D7
:1029D00000060006001E001E0000000C000C001E79
:1029E00000120033003380618061000000000000AD
:1029F00000000000000000000000000000000000D7
:102A000000000000000000000000000000000000C6
:102A1000000000000000000000000000E0FF0000D7
:102A2000000000380018000C00000000000000004A
:102A30000000000000000000000000000000000096
:102A40000000000000000000000000000000001F67
:102A5000803F80618001801F803F80618063807F34
:102A6000C03800000000000000000060006000604E
:102A70000060006E007F8073806180618061806192
:102A80008073007F006E0000000000000000000066
:102A9000000000000000001E003F807380610060A5
:102AA000006080618073003F001E00000000000095
:102AB00000008001800180018001801D803F8073C3
:102AC00080618061806180618073803F801D000033
:102AD0000000000000000000000000000000001ED8
:102AE000003F00738061807F807F00608071003FC5
:102AF000001E0000000000000000C007C00F000C16
:102B0000000C807F807F000C000C000C000C000C7F
:102B1000000C000C000C0000000000000000000091
:102B200000000000801D803F8073806180618061B3
:102B300080618073803F801D80018063007F003E44
:102B400000000060006000600060006F807F8071A6
:102B5000806180618061806180618061806100004E
:102B60000000000000000006000600000000003E1B
:102B7000003E0006000600060006000600060006ED
:102B80000006000000000000000600060000000033
:102B9000003E003E00060006000600060006000695
:102BA0000006000600060046007E003C00000060B3
:102BB000006000600060806100630066006C007C63
:102BC0000076006300638061C060000000000000C8
:102BD0000000003E003E000600060006000600065B
:102BE00000060006000600060006000600060000BB
:102BF000000000000000000000000000000080DD78
:102C0000C0FFC0CEC0CCC0CCC0CCC0CCC0CCC0CC2F
:102C1000C0CC000000000000000000000000000028
:102C20000000006F807F80718061806180618061C1
:102C300080618061806100000000000000000000F1
:102C4000000000000000001E003F80738061806172
:102C5000806180618073003F001E00000000000062
:102C60000000000000000000006E007F80738061A3
:102C70008061806180618073007F006E0060006011
:102C8000006000600000000000000000801D803F28
:102C9000807380618061806180618073803F801D6E
:102CA0008001800180018001000000000000000020
:102CB00000000067803F00390030003000300030F5
:102CC0000030003000300000000000000000000074
:102CD000000000000000001E803F80610060007F57
:102CE000803F80018061007F001E00000000000026
:102CF00000000000000800180018007F007F001886
:102D000000180018001800180018801F800F00001D
:102D100000000000000000000000000000008061D2
:102D20008061806180618061806180618063807F7B
:102D3000803D0000000000000000000000000000D6
:102D40000000C060803180318031001B001B001BFF
:102D5000000E000E00060000000000000000000051
:102D600000000000000080DD80DD80DD00550055A2
:102D700000550077007700220022000000000000CC
:102D800000000000000000000000806100330033FC
:102D9000001E000C000C001E003300338061000098
:102DA0000000000000000000000000008061806161
:102DB000803100330033001B001B001B000E000E8F
:102DC000000E001C007C00700000000000000000ED
:102DD0000000C07FC07F800100030006000C0018C7
:102DE0000030C07FC07F000000000000800380072B
:102DF00000060006000600060006000E001C001C6F
:102E0000000E00060006000600060006800780038C
:102E10000006000600060006000600060006000682
:102E20000006000600060006000600060006000672
:102E3000000600060038003C000C000C000C000CE2
:102E4000000C000E00070007000E000C000C000C28
:102E5000000C000C003C00380000000000000000E6
:102E60000000000000008038807F00470000000064
:102E7000000000000000000000000000010202034A
:102E80000405060708090A0B0C0D0E0F10100000B0
:102E9000000000000000010203040607080900000A
:102EA000000001020304040000080000000000000C
:102EB0000002000100001000D82E000800000020D1
:102EC00034000000280100080C2F00083400002006
:102ED0001C0B0000440100080B1200002021000818
:102EE00000000000000000000000000000000000E2
:102EF00000000000000000000000000001000000D1
:0C2F0000100000000000000000127A0029
:04000005080000ED02
:00000001FF
