:020000040800F2
:1000000018070020290200089B130008511000085F
:10001000991300085B040008491400080000000060
:100020000000000000000000000000009F13000816
:100030005D040008000000009D130008A1130008E3
:10004000430200084302000843020008430200087C
:10005000430200084302000843020008430200086C
:10006000430200084302000843020008430200085C
:10007000430200084302000843020008430200084C
:10008000430200084302000843020008430200083C
:10009000430200084302000843020008430200082C
:1000A000430200084302000843020008430200081C
:1000B000430200084302000843020008430200080C
:1000C00043020008430200084302000843020008FC
:1000D00043020008430200084302000843020008EC
:1000E00043020008430200084302000843020008DC
:1000F00043020008430200084302000843020008CC
:1001000043020008430200084302000843020008BB
:1001100043020008430200084302000843020008AB
:10012000430200084302000843020008430200089B
:10013000430200084302000843020008430200088B
:10014000430200084302000843020008430200087B
:10015000430200084302000843020008430200086B
:10016000430200084302000843020008430200085B
:100170004302000843020008430200080000000098
:10018000430200084302000800F002F800F03CF8C7
:100190000AA090E8000C82448344AAF10107DA45E2
:1001A00001D100F031F8AFF2090EBAE80F0013F0F8
:1001B000010F18BFFB1A43F0010318472414000075
:1001C00044140000103A24BF78C878C1FAD8520706
:1001D00024BF30C830C144BF04680C6070470000C1
:1001E0000023002400250026103A28BF78C1FBD840
:1001F000520728BF30C148BF0B6070471FB501F0E0
:10020000DDF91FBD10B510BD00F0EEF81146FFF787
:10021000F5FF01F095F900F00CF903B4FFF7F2FFD8
:1002200003BC00F013F90000094880470948004763
:10023000FEE7FEE7FEE7FEE7FEE7FEE7FEE7FEE796
:10024000FEE7FEE704480549054A064B70470000F3
:10025000391400088901000818010020180700203F
:10026000180300201803002053EA020C00F06980F4
:100270002DE9F04B4FF00006002B1FBFB3FA83F5BA
:1002800003FA05F424FA05F65E4012BF1643B2FAEB
:1002900082F502FA05F4C5F120051EBF22FA05FC1D
:1002A00044EA0C04203556EA044C4FEA144418BFC3
:1002B000641C4FF000084FF00009904271EB030CF2
:1002C00039D3002919BFB1FA81F701FA07F6B0FA5C
:1002D00080F700FA07F6C7F120071EBF20FA07FCD7
:1002E00046EA0C062037B6FBF4FCA7EB0507103FE7
:1002F00007F01F0BCBF120060CFA0BFB2CFA06F6CD
:1003000044BFB3460026202FA4BF5E464FF0000B2B
:100310005BEA060C08BF4FF0010B19EB0B09ABFBB6
:10032000027C48EB0608C01B06FB02CC0BFB03CC8F
:1003300071EB0C01C1E70B46024641464846BDE859
:10034000F08B13B54FF000004FF00001AFF30080C9
:10035000BDE81C40704710B5431C02E010F8011BBB
:1003600071B18107FAD14FF0013202C88C1A8C4367
:1003700014EAC211F9D0C01A0A0603D0C01E10BD7B
:10038000C01A10BD0A0401D0801E10BD0902FCD0A5
:10039000401E10BD4FF0000200B51346944696462D
:1003A000203922BFA0E80C50A0E80C50B1F1200188
:1003B000BFF4F7AF090728BFA0E80C5048BF0CC036
:1003C0005DF804EB890028BF40F8042B08BF704794
:1003D00048BF20F8022B11F0804F18BF00F8012B06
:1003E0007047704770477047754600F02BF8AE466F
:1003F00005006946534620F00700854618B020B531
:10040000FFF720FFBDE820404FF000064FF0000747
:100410004FF000084FF0000B21F00701AC46ACE8AC
:10042000C009ACE8C009ACE8C009ACE8C0098D4619
:10043000704710B50446AFF300802046BDE8104079
:10044000FFF7EBBE00487047B800002001491820B4
:10045000ABBEFEE7260002007047FEE770470000D3
:1004600070B5044600F00CF90546601C02D0044843
:100470000078044400F004F9401BA042FAD370BD98
:10048000000000202DE9F84FDFF8BCA10022012573
:1004900003264FF00F090AF1040BAAF1040E00BF66
:1004A0000B6805FA02F42340A34270D10F7907F0DC
:1004B0000307012F01D0022F16D187684FEA4208A7
:1004C00006FA08FC27EA0C07D1F80CC00CFA08FC65
:1004D0004CEA070CC0F808C04768A7430C79C4F37E
:1004E000001494403C4344600C79E443A4070AD0D0
:1004F000C4684FEA420C06FA0CF7BC438F6807FA4F
:100500000CF72743C7600C7904F00304022C12D1C6
:10051000D40800EB840CDCF820405707FF0E09FAE2
:1005200007F824EA0804D1F8108008FA07F848EA26
:100530000408CCF8208004684FEA420C06FA0CF755
:10054000BC430F7907F0030707FA0CF7274307604E
:100550004C6814F4403F70D03C4C276847F4804707
:100560002760246822F0030704F480440094384C88
:1005700007EB040CDCF8084897074FEA177809FAEC
:1005800008F7BC43334FB84202D1002724E054E0BF
:10059000314FB84201D101271EE0304FB84201D19E
:1005A000022719E02E4FB84201D1032714E02D4F46
:1005B000B84201D104270FE02B4FB84201D10527E3
:1005C0000AE02A4FB84201D1062705E0284FB84279
:1005D00001D1072700E0082707FA08F72743CCF8DE
:1005E0000878DAF800405746D1F804C09C435FEA27
:1005F000CC2C00D51C433C60DBF800405F46D1F8B2
:1006000004C09C435FEA8C2C00D51C433C60DEF8A0
:1006100000407746D1F804C09C435FEA8C3C00D58B
:100620001C433C60084F083F3C68D1F804C09C4321
:100630005FEACC3C00D51C433C60521C102AFFF4FE
:100640002FAFBDE8F88F0000083C0140443802405D
:100650000030014000000240000402400008024057
:10066000000C02400010024000140240001802403A
:10067000001C02400AB1816170470904FBE70000D9
:1006800001488068704700000000002070B5040039
:1006900025D094F83D00002520B984F83C50204630
:1006A00000F04EF9242084F83D002068016821F014
:1006B000010101602068016841F400410160206887
:1006C000016821F40041016000F0B6FA4D4A61680A
:1006D000914201D84C4900E04C49884201D20120A6
:1006E00070BD4B492368B0FBF1F15E6826F03F0610
:1006F0000E435E606368934206D94FF49673594384
:100700004FF47A73B1FBF3F12368491C1E6A26F09B
:100710003F06314319626168914210D84900401E7A
:10072000B0FBF1F2521CC2F30B02042A01D20420E6
:1007300022E0B0FBF1F0401CC0F30B001CE0A2680B
:10074000F2B301EBC10303EB0116431EB3FBF6F357
:100750005B1C43F480431B0549D092B301EBC102FB
:1007600002EB0111401EB0FBF1F0401CC0F30B0086
:1007700040F4804040F400402168CA694CF6FF73A1
:100780009A431043C861D4E9071001432068026806
:1007900022F0C00211430160D4E903010143206843
:1007A000826848F2FF339A4311438160D4E905011E
:1007B00008432168CA6822F0FF021043C86001E0C4
:1007C0000EE016E02068016841F001010160256437
:1007D000202084F83D00256384F83E50002070BD41
:1007E00001EB4106431EB3FBF6F35B1CB3E70120AC
:1007F000C2E701EB4101401EB0FBF1F0401CC0F329
:100800000B00B7E7A086010080841E0000093D00B0
:1008100040420F002DE9F84F1F4690468A46044695
:10082000DDF82890FFF72CFF054694F83D002028BE
:100830007FD11923012240492046009500F09AFCFF
:10084000002876D194F83C00012872D0012084F869
:100850003C0020680168C90703D1016841F001012B
:1008600001602068016821F400610160212084F8A2
:100870003D00102084F83E0000262664C4F8248041
:100880006785608D20852D48E0622B464A4651469B
:10089000204600F0F5FB90B920684169806900901E
:1008A00036E02A464946204600F00AFD50B1206C49
:1008B000042804D12068016841F40071016001201E
:1008C000BDE8F88F606A216800780861606A401CA2
:1008D0006062618D491E6185218D491E89B2218525
:1008E00022685369DB435B070BD451B10078106178
:1008F000606A401C6062608D401E6085208D401ED5
:1009000020852A464946204600F008FC0028CED122
:10091000208D0028C5D154F83D0B016841F40071C9
:100920000160202004F81E09E67766770020C7E7FB
:10093000FFE70220C4E70000020010000000FFFFF4
:10094000F0B587B0044614216846FFF723FD2768F9
:10095000234CDFF888C000222149122303250426F6
:1009600020481034674518D10F6847F002070F6020
:10097000096802AF01F002010591C021CDE9001321
:1009800087E864006946FFF77DFD206840F40010A9
:100990002060206800F400101CE0DFF84CC06745C0
:1009A00019D10F6847F002070F60096802AF01F024
:1009B000020105914FF44061CDE9001387E864001E
:1009C0006946FFF75FFD206840F4800020602068E2
:1009D00000F48000059007B0F0BD00000054004016
:1009E000303802400004024000580040024881684C
:1009F0000278114481607047000000200B4810B558
:100A0000016841F400710160016841F48061016096
:100A1000016841F480710160032000F061F80F204B
:100A200000F006F800F024F8002010BD003C024061
:100A300070B50D4D04464FF47A712878B1FBF0F093
:100A40000A490968B1FBF0F000F0EEFA48B9102C41
:100A500007D200222146501E00F022F800206C60D0
:100A600070BD012070BD0000000000200C000020BF
:100A70000A4808B5016841F480410160006800F44B
:100A8000804000900548001F016841F080510160DE
:100A9000006800F08050009008BD0000443802401B
:100AA000F0B40E4B1B680C46C3F30223C3F10705D9
:100AB000042D00D90425191D072901D2002300E0C7
:100AC000DB1E012606FA05F1491E214099409E4091
:100AD000761E16403143F0BC00F0B7BC0CED00E0D0
:100AE000064900F0070208684FF6FF03184040EA85
:100AF0000220034A10430860704700000CED00E03C
:100B00000000FA052DE9F0470E46050065D0DFF834
:100B10001481D8F80000F7B200F00700B04207D205
:100B200088F80070D8F8000000F00700B04254D1F7
:100B300028683D4C810712D5400703D5206840F452
:100B4000E05020602878000703D5206840F460401A
:100B500020602068A96820F0F00008432060287811
:100B6000C0072DD0304968680839012812D0022802
:100B700013D0032811D00968890700292DDA2168CC
:100B800021F0030101432160FFF77AFD814641F224
:100B9000883A0EE009688903EFE709688901ECE704
:100BA000FFF76EFDA0EB0901514502D90320BDE816
:100BB000F0872068696800F00C00B0EB810FEFD17E
:100BC000D8F80010404601F00701B14207D907707C
:100BD000006800F00700B04201D00120E7E7287864
:100BE000400705D52068E96820F4E05008432060FC
:100BF0002878000706D52068296920F4604040EA7B
:100C0000C100206000F028F82168084AC1F30311F0
:100C1000515CC8400649086006480068FFF708FFB5
:100C20000020C4E7003C024008380240C615000816
:100C30000C000020040000200448054900680968F1
:100C4000044AC1F38221515CC84070470C00002067
:100C500008380240D6150008154810B5006810F095
:100C60000C02144813D01449042A0FD0082A0ED1BC
:100C70000F4C241F2268236802F03F025B0207D555
:100C80002068C0F38810A0FB010106E0084610BDF3
:100C90002168C1F38811A1FB00010023FFF7E4FAEA
:100CA0002168C1F30141491C4900B0FBF1F010BDBE
:100CB000083802400024F40040787D012DE9F84F07
:100CC00004006ED02078DFF84C93C007A9F104052A
:100CD0004AD009F104000168C1F38101012908D05B
:100CE0000068C0F3810002280AD1D9F80000400250
:100CF00006D52868800337D560680028E1D033E046
:100D00006068B0F5803F10D0B0F5A02F286810D0F3
:100D100020F480302860286820F4802028606068F3
:100D2000A8B1FFF7ADFC06460DE0286840F480301E
:100D3000F4E740F480202860F7E700BFFFF7A0FC4D
:100D4000801B642873D828688003F7D50CE0FFF770
:100D500097FC064605E000BFFFF792FC801B642865
:100D6000F0D828688003F7D42078DFF8AC828007B9
:100D70004FF0000A3ED5A748001D016811F00C0F86
:100D800008D00068C0F3810002280BD1D9F8000018
:100D9000400207D42868800716D5E068012800D1F2
:100DA00012E033E1E068B8B10120C8F80000FFF7B5
:100DB00067FC064605E000BFFFF762FC801B0228C7
:100DC000C0D828688007F7D52868216920F0F80086
:100DD00040EAC10028600DE0C8F800A0FFF750FC11
:100DE000064604E0FFF74CFC801B02281FD8286849
:100DF0008007F7D42078000722D5864F874861699D
:100E0000703771B101210160FFF73AFC064604E03A
:100E1000FFF736FC801B022809D838688007F7D511
:100E20000EE0C0F800A0FFF72BFC064605E082E0CC
:100E3000FFF726FC801B02287DD838688007F7D48E
:100E40002078400768D5DFF8CCB100270BF13C0BC8
:100E5000DBF80000C0000BD4DBF8001041F080513B
:100E6000CBF80010DBF80000012700F08050009064
:100E70006B4E3068C00510D4306840F4807030602C
:100E8000FFF7FEFB009005E0FFF7FAFB0099401A20
:100E9000022850D83068C005F6D55E4EA0686C3682
:100EA00001280FD00528306810D020F001003060F4
:100EB000306820F004003060A068B8B1FFF7E0FBB4
:100EC00000900FE0306840F00100F4E740F00400CB
:100ED0003060F7E7FFF7D4FB0099411A41F2883000
:100EE000814266D830688007F4D50EE0FFF7C8FB72
:100EF000009007E0FFF7C4FB0099411A41F28830E7
:100F0000814256D830688007F4D42FB1DBF8001046
:100F100021F08051CBF80010A069C8B33D49091DEC
:100F20000968C1F3810102294AD00228504607D03E
:100F3000C8F8600000E03CE0FFF7A2FB04463BE09D
:100F40004746C8F86000FFF79BFB064605E000BF78
:100F5000FFF796FB801B02282BD828688001F7D466
:100F6000D4E907010843A16A2E4A490802EB01416E
:100F7000626A41EA8211084394F82C1040EA016148
:100F8000C9F8001001203866FFF77AFB044606E036
:100F90003EE000BFFFF774FB001B022809D8286859
:100FA0008001F7D534E000BFFFF76AFB001B022881
:100FB00002D90320BDE8F88F28688001F4D427E027
:100FC0000128F7D0D9F80000E26900F480019142CD
:100FD0001CD1226A00F03F01914217D147F6C0713F
:100FE000626A0140B1EB821F10D1A26A4FF0FF3359
:100FF00000F4403103EB5202B1EB024F06D194F8FA
:101000002C1000F07060B0EB016F01D00120D1E72F
:101010000020CFE70438024000004742800E4742DC
:10102000007000400000FFFF10B5401EB0F1807F4F
:1010300001D3012010BD4FF0E02460610F21601743
:1010400000F003FA0020A06107202061002010BDFD
:10105000FEE701684A69D24352050FD46FF48062FB
:101060004A61002140F8301F2022427381730269D7
:1010700042F00402026101730120704700207047B2
:10108000F8B50446C06A1E460D461746082807D024
:10109000012805D010F5803F02D0206B122804D122
:1010A0002068016841F480710160134600224FF00E
:1010B00001112046009600F05DF840B120680068FC
:1010C000C00502D54FF4007020640320F8BD2069EC
:1010D000B0F5804F0ED00620216800EAD51040F010
:1010E000F000086133463A460B49204600F08AF882
:1010F00078B902E005F0FE0000E0E8B2216808617E
:10110000054933463A46891F204600F07BF80028FF
:10111000DCD00120F8BD00000800010070B51646C3
:101120000D4604461EE02046FFF793FF08B101205C
:1011300070BD681C16D0FFF7A3FA801BA84200D828
:1011400085B920684069C04340070BD5002044F8AA
:10115000300F20216173A073216941F020012161CA
:101160002073E4E720684069C0434007DBD40020D7
:1011700070BD00002DE9F047984617460D4604461D
:10118000C1F30746DDF820902AE000BFB8F1FF3F29
:1011900026D0FFF775FAA0EB0901414502D8B8F156
:1011A000000F1DD12068012E16D0806925EA0000AD
:1011B0000004000C12D00020B84211D1002044F8E5
:1011C000300F20216173A073216941F0200121615A
:1011D00020730120BDE8F0874069E7E70120EBE7D5
:1011E0002068012E0AD0806925EA00000004000C66
:1011F00006D00020B842C9D00020EBE74069F3E7F1
:101200000120F7E72DE9F047984616460D460446BB
:101210004FF000094FF0200AC1F3074723E0206890
:101220004069C043400515D42068016841F400714D
:10123000016021686FF480604861C4F8309084F8E0
:101240003DA084F83E90216C41F00401216484F8B3
:101250003C9021E0701C06D0FFF712FAA0EB0800CA
:10126000B04203D816B1012F1FD021E02068012F12
:1012700015D0806925EA00000004000C18D000BFDA
:1012800044F8309F84F80DA084F80E90216941F055
:101290002001216184F80C900120BDE8F0874069AD
:1012A00025EA00000004000CEAD12068406901E052
:1012B0002068806925EA00000004000CAFD1ECE74B
:1012C00070B516460D4604461EE02046FFF7C1FEE7
:1012D00008B1012070BD681C16D0FFF7D1F9801B42
:1012E000A84200D885B920684069C04300060BD5E4
:1012F000002044F8300F20216173A073216941F070
:10130000200121612073E4E720684069C0430006A2
:10131000DBD4002070BD000070B586B01421684693
:10132000FFF738F81A480024016841F08001016095
:10133000016801F080010591016841F0020101603E
:10134000016801F002010591016841F008010160A6
:10135000016801F008010591016841F00101016097
:1013600000680C4E00F001004FF40045059000228B
:1013700029463046FFF77EF901200095CDE90104AA
:10138000694630460394FFF77DF806B070BD000053
:1013900030380240000C0240FEE7FEE7704770471D
:1013A000FFF724BB30B593B030216846FEF7F2FF5B
:1013B00014210CA8FEF7EEFF1D480025016841F03E
:1013C00080510160006800F0805011901948016858
:1013D00041F4804101600068022400F480401190D3
:1013E0000120039010200490009406940820CDE979
:1013F0000750A820CDE9090404200B906846FFF7A8
:101400005DFC08B172B6FEE70CA90F2081E831003F
:101410004FF4A0500F904FF48050109005210CA86D
:10142000FFF770FB002801D072B6FEE713B030BDA5
:1014300040380240007000400248016841F47001E9
:101440000160704788ED00E0FEE70907090E0028FB
:1014500004DB00F1E02080F80014704700F00F007A
:1014600000F1E02080F8141D704700001CB500F06A
:10147000F00141F00C028DF8042041F008018DF8D4
:1014800005100C2141EA00118DF80610082141EAEF
:1014900000108DF807000A200090042301AA4E21B5
:1014A0000148FFF7B7F91CBD640000201CB500F02F
:1014B000F00141F00D028DF8042041F009018DF892
:1014C00005100D2141EA00118DF80610092141EAAD
:1014D00000108DF807000A200090042301AA4E2175
:1014E0000348FFF797F90220FEF7BAFF1CBD000082
:1014F0006400002070B50546002403E0285DFFF776
:10150000D5FF641C2846FEF726FFA042F6D870BD22
:1015100010B53320FFF7AAFF3220FFF7A7FF2820DE
:10152000FFF7A4FF0C20FFF7A1FF0620FFF79EFFA7
:101530000120FFF79BFFBDE810400F20FEF790BF92
:10154000FFF75CFAFFF72EFFFFF7E6FE1548144998
:10155000154D00240160C0E901540E14C0E9034692
:1015600044618461C4610462FFF790F808B172B607
:10157000FEE70C480D4954300160C0E90154C0E950
:10158000034644618461C4610462FFF77FF808B1D7
:1015900072B6FEE7FFF7BCFF05A0FFF7ABFFFEE763
:1015A0000054004010000020A086010000580040B8
:1015B00048454C4C4F20574F524C44004FF0407020
:1015C000E1EE100A70470000000000000000010278
:1015D00003040607080900000000010203040000DC
:1015E000001600080000002010000000C4010008E0
:1015F000101600081000002008070000E001000895
:101600000100000010000000000000000024F400B1
:040000050800018965
:00000001FF
