:020000040800F2
:10000000E806002089010008570E0008750D000859
:10001000550E00088F020008AF0F00080000000016
:10002000000000000000000000000000490F000870
:100030009102000800000000590E00084B0F000854
:10004000A3010008A3010008A3010008A301000800
:10005000A3010008A3010008A3010008A3010008F0
:10006000A3010008A3010008A3010008A3010008E0
:10007000A3010008A3010008A3010008A3010008D0
:10008000A3010008A3010008A3010008A3010008C0
:10009000A3010008A3010008A3010008A3010008B0
:1000A000A3010008A3010008A3010008A3010008A0
:1000B000A3010008A3010008A3010008A301000890
:1000C000A3010008A3010008A3010008A301000880
:1000D000A3010008A3010008A3010008A301000870
:1000E000A3010008A3010008A301000800F002F822
:1000F00000F03AF80AA090E8000C82448344AAF188
:100100000107DA4501D100F02FF8AFF2090EBAE885
:100110000F0013F0010F18BFFB1A43F0010318473B
:1001200098120000B8120000103A24BF78C878C1B5
:10013000FAD8520724BF30C830C144BF04680C60ED
:10014000704700000023002400250026103A28BF35
:1001500078C1FBD8520728BF30C148BF0B60704739
:100160001FB51FBD10B510BD00F058F81146FFF7C0
:10017000F7FF00F06FFF00F076F803B4FFF7F2FF2F
:1001800003BC00F07DF8000009488047094800479B
:10019000FEE7FEE7FEE7FEE7FEE7FEE7FEE7FEE737
:1001A000FEE7FEE704480549054A064B7047000094
:1001B000AD0F0008ED000008E8000020E806002070
:1001C000E8020020E80200204FF0000200B51346CC
:1001D00094469646203922BFA0E80C50A0E80C5067
:1001E000B1F12001BFF4F7AF090728BFA0E80C5018
:1001F00048BF0CC05DF804EB890028BF40F8042B11
:1002000008BF704748BF20F8022B11F0804F18BF7D
:1002100000F8012B7047704770477047754600F033
:100220002BF8AE4605006946534620F00700854688
:1002300018B020B5FFF7B6FFBDE820404FF000062C
:100240004FF000074FF000084FF0000B21F00701BE
:10025000AC46ACE8C009ACE8C009ACE8C009ACE801
:10026000C0098D46704710B50446AFF300802046A4
:10027000BDE81040FFF781BF0048704784000020B0
:1002800001491820ABBEFEE7260002007047FEE7DA
:10029000704700002DE9F84FDFF8B8910024A9F16C
:1002A000040B23460F2709F1040AABF1040EC9E041
:1002B0000125A5402A40AA427DD1674ED1F804C04D
:1002C000ACEB0608B44532D014DCBCF1030F3AD0D5
:1002D00009DCBCF1000F2AD0BCF1010F1CD0BCF12D
:1002E000020F31D11DE0BCF1110F17D0BCF1120F7C
:1002F0002AD119E0B8F5881F19D006DCB8F5803F7F
:1003000015D0B8F5801F1FD111E0B8F5001F0ED031
:10031000B8F5041F18D10AE0CB6815E0CB681B1DA7
:1003200012E0CB6808330FE0CB680C330CE08B682D
:100330002BB1012B4FF0080303D0456104E00423E7
:1003400002E0056100E00023FF2A01D8064601E033
:1003500000F104064FEA840501D9A5F12005D6F87D
:10036000008007FA05FC28EA0C0803FA05F548EABC
:100370000508C6F800804D68ED0062D5374DAE69BE
:1003800046F00106AE61AD6924F0030605F00105F3
:100390000095334D06EB050CDCF80850A607360F28
:1003A00007FA06F825EA0805DFF8B880404503D1CA
:1003B0004FF0000817E044E0DFF8AC80404502D180
:1003C0004FF001080FE0DFF8A480404502D14FF064
:1003D000020808E0DFF89880404502D14FF003089A
:1003E00001E04FF0040808FA06F848EA0508CCF8DE
:1003F00008804D68D9F80060ED024D4601D51643DE
:1004000000E096432E604D68DAF80060AD02554674
:1004100001D5164300E096432E604D68DBF800607E
:10042000AD035D4601D5164300E096432E604D684E
:10043000DEF80060ED03754601D5164300E09643F3
:100440002E60641C0D682A46E5407FF431AFBDE89C
:10045000F88F000008040140000011100010024055
:100460000000014000080140000C01400010014064
:10047000001401400AB1016170470904FBE7000064
:1004800001488068704700000C0000200248816825
:1004900002781144816070470C000020074810B5B5
:1004A000016841F010010160032000F067F80F209F
:1004B00000F006F800F024F8002010BD00200240F3
:1004C00070B50D4D04464FF47A712878B1FBF0F009
:1004D0000A490968B1FBF0F000F038FC48B9102C6B
:1004E00007D200222146501E00F028F800206C6040
:1004F00070BD012070BD00000C000020180000201D
:100500000C4808B5816941F001018161816901F000
:1005100001010091C16941F08051C161C06900F0E1
:10052000805000900448416821F0E06141F0007182
:10053000416008BD0010024000000140F0B40E4BC5
:100540001B680C46C3F30223C3F10705042D00D931
:100550000425191D072901D2002300E0DB1E012616
:1005600006FA05F1491E214099409E40761E16402C
:100570003143F0BC00F01CBD0CED00E0064900F07A
:10058000070208684FF6FF03184040EA0220034ABA
:1005900010430860704700000CED00E00000FA0511
:1005A0002DE9F0470F46050061D0434E306800F05A
:1005B0000700B84209D2306820F0070038433060A5
:1005C000306800F00700B84251D128683B4C8107E1
:1005D00012D5400703D5606840F4E0606060287879
:1005E000000703D5606840F4605060606068A968E7
:1005F00020F0F000084360602878C00728D06868C1
:10060000012810D02168022810D0890700292EDA8D
:10061000616821F0030101436160FFF731FF80460B
:1006200041F288390DE021688903EFE78901EDE7A0
:10063000FFF726FFA0EB0801494502D90320BDE8DA
:10064000F0876068696800F00C00B0EB810FEFD1B3
:10065000306800F00700B8420BD9306820F007007E
:1006600038433060306800F00700B84201D0012004
:10067000E5E72878400705D56068E96820F4E06080
:10068000084360602878000706D56068296920F46F
:10069000605040EAC100606000F018F86168084AE4
:1006A000C1F30311515CC840064908600648006860
:1006B000FFF706FF0020C2E70020024000100240C2
:1006C000A813000818000020100000200E4A5168EE
:1006D0000E4801F00C03042B11D0082B0FD10C484D
:1006E000C1F38343C903C05C0AD55168084AC1F30A
:1006F0004041921E515C054A5043B0FBF1F07047F7
:1007000004494843704700000010024000127A007C
:100710009813000800093D002DE9F84F040070D03F
:100720002078C04DC00749D06868C0F38100012817
:1007300007D06868C0F38100022809D16868C00347
:1007400006D52868800339D560680028E7D035E0F1
:100750006068B0F5803F0BD010B1B0F5A02F11D07C
:10076000286820F480302860286820F4802002E087
:10077000286840F480302860606890B1FFF780FE00
:1007800006460AE0286840F480202860F0E700BFB1
:10079000FFF776FE801B642873D828688003F7D59E
:1007A0000CE0FFF76DFE064605E000BFFFF768FEB0
:1007B000801B6428F0D828688003F7D420789A4EEC
:1007C00080074FF001094FF0000839D5686810F034
:1007D0000C0F07D06868C0F38100022809D168684F
:1007E000C00306D42868800714D52069012808D1E1
:1007F00010E02069B0B1C6F80090FFF741FE07464F
:1008000005E00AE1FFF73CFEC01B0228C4D82868B7
:100810008007F7D52868616920F0F80040EAC10038
:1008200028600DE0C6F80080FFF72AFE074604E0C6
:10083000FFF726FEC01B022823D828688007F7D4BC
:10084000207800072CD57948A169D9B1C0F800906B
:10085000FFF716FE074604E0FFF712FEC01B022852
:100860000FD8686A8007F7D571484FF4FA510068CD
:10087000B0FBF1F0009000BF0098411E0091FAD249
:100880000EE080E0C0F80080FFF7FAFD074604E0C4
:10089000FFF7F6FDC01B022875D8686A8007F7D4F9
:1008A0002078400760D5E8690027C00008D4E869CF
:1008B00040F08050E861E869012700F08050009026
:1008C0005C480168C90513D40168834641F480710E
:1008D0000160FFF7D5FD824606E000BFFFF7D0FDBF
:1008E000A0EB0A0064284ED8DBF80000C005F5D55F
:1008F000E06801280AD008B1052813D0286A20F042
:1009000001002862286A20F0040002E0286A40F012
:1009100001002862E06841F2883B98B1FFF7B0FD22
:1009200082460BE0286A40F004002862EEE700BF30
:10093000FFF7A6FDA0EB0A0159455AD8286A80079F
:10094000F6D50CE0FFF79CFD824605E0FFF798FD29
:10095000A0EB0A0159454CD8286A8007F6D41FB18C
:10096000E86920F08050E861E06988B36968C1F304
:100970008101022944D00228C6F8608004D0FFF724
:100980007FFD044638E034E0FFF77AFD074604E0D7
:10099000FFF776FDC01B02282BD828688001F7D40A
:1009A000206AB0F5803F05D16868A16820F4003066
:1009B00008436860D4E908010843696821F47411A8
:1009C00008436860C6F86090FFF75AFD044606E0E9
:1009D00025E000BFFFF754FD001B022809D8286856
:1009E0008001F7D51BE000BFFFF74AFD001B02287E
:1009F00002D90320BDE8F88F28688001F4D40EE006
:100A00000128F7D06868226A00F48031914204D14D
:100A1000616A00F47010884201D00120EAE70020EA
:100A2000E8E7000000100240000042428004424219
:100A3000180000200070004070B5040009D0606A02
:100A4000002540B125616561A56294F8510040B16F
:100A50000CE0012070BD6068B0F5827FF4D0E561E4
:100A6000F2E784F85050204600F040F8022084F865
:100A700051002068016821F040010160A0882189AF
:100A800000F4827001F404410843A18901F400617B
:100A90000843217C01F002010843217D01F001019E
:100AA0000843218B01F400710843217F01F03801D4
:100AB000084394F8201001F080010843218D01F4CF
:100AC0000051084321680860A069042101EA104030
:100AD000216848602068C16921F40061C1616565D1
:100AE000012084F85100002070BD000030B585B0B1
:100AF00000240094019402940394006814498842ED
:100B000023D11448816941F480518161816901F4E4
:100B100080510491816941F00401816180690E4D29
:100B200000F004000490A020009002200190032017
:100B3000039069462846FFF7ADFB4020CDE900044D
:100B4000694628460294FFF7A5FB05B030BD0000BA
:100B50000030014000100240000801402DE9FF4F25
:100B600081B01D46934604464FF001090E9EFFF7E3
:100B700087FC074694F851006168012806D0B1F55A
:100B8000827F3CD1A168C9BB042838D102980028D3
:100B900071D0BBF1000FFBD0002DF9D094F85000BC
:100BA00001282CD04FF0010A84F850A094F851008D
:100BB000042802D0052084F851004FF00008C4F842
:100BC0005480C4F838B0E587A58702992163E5868B
:100BD000A586C4F84080C4F84480206801684906AE
:100BE00003D4016841F040010160E068B0F5006F96
:100BF000606808D0F0B3012D49D081E0FFE7022002
:100C000005B0BDE8F08F08B1012D39D1206B216806
:100C10000088C860206B801C2063E08E401EE08648
:100C20002EE02068816889070FD5E18E69B1B9F19E
:100C3000010F0AD1216B0988C160206B801C2063E1
:100C4000E08E401EE0864FF0000920688168C907E9
:100C50000CD0E18F51B1C068A16B0880A06B801CE3
:100C6000A063E08F401EE0874FF00109FFF708FC0A
:100C7000C01B01E00BE067E0B04201D3701C50D113
:100C8000E08E0028CDD1E08F0028CAD13EE0206B55
:100C9000216800780873206B401C2063E08E401EA2
:100CA000E0862DE02068816889070FD5E18E69B163
:100CB000B9F1010F0AD1216B09780173206B401C37
:100CC0002063E08E401EE0864FF0000920688168B6
:100CD000C9070CD0E18F51B1C068A16B0870A06B3F
:100CE000401CA063E08F401EE0874FF00109FFF732
:100CF000C7FBC01BB04202D3701C01D011E086B10B
:100D0000E08E0028CED1E08F0028CBD13A46314684
:100D1000204600F0A2F850B12020606584F8508091
:100D200012E084F851A084F85080032068E7A0689E
:100D300018B92068C1688068009084F851A084F8D0
:100D40005080606D0028F1D0012059E710B5401E99
:100D5000B0F1807F01D3012010BD4FF0E02460612D
:100D60000F21601700F024F90020A0610720206106
:100D7000002010BDFEE700002DE9F04186B0002400
:100D800020480094019402940394816941F0200169
:100D90008161816901F020010491816941F00401C0
:100DA0008161816901F004010491816941F00801C8
:100DB00081618069144F00F008004FF4C055049021
:100DC000002229463846FFF755FBDFF84080002215
:100DD00018214046FFF74EFB009502260125039699
:100DE000CDE9015469463846FFF754FA1820CDE999
:100DF0000005CDE9024669464046FFF74BFA06B0CA
:100E0000BDE8F0810010024000080140000C0140E4
:100E10000F4810B50D4901604FF482714160002107
:100E20008160C1604FF400720161C0E905121022B7
:100E3000C0E90721416281620A21C162FFF7FCFD1E
:100E4000002801D072B6FEE710BD0000003001405E
:100E50001C000020FEE7FEE77047F8B515460E4679
:100E60000B46009204460122022100F011F840B91D
:100E70003346002280212046009500F009F8002822
:100E800004D0606D40F0200060650320F8BD0000D4
:100E90002DE9F8431E46914688460446089DFFF713
:100EA000EFFA401B351AFFF7EBFA074625480068B2
:100EB000C0F3CB30684338E0701C37D0FFF7E0FA5E
:100EC000C01BA84203D215B1009860B32CE0206883
:100ED000416821F0E00141606068B0F5827F0BD18C
:100EE000A068B0F5004F02D0B0F5806F04D1206843
:100EF000016821F040010160A06AB0F5005F09D1EE
:100F00002068016821F4005101602068016841F403
:100F100000510160012084F85100002084F8500045
:100F20000320BDE8F8830025401E009020688168FA
:100F300038EA010004D000214945BDD10020F0E786
:100F40000121F9E7180000207047FFF79FBA30B57C
:100F50008FB028216846FFF737F914210AA8FFF758
:100F600033F901210804CDE9001000240294022580
:100F70000491CDE907504FF4E01009906846FFF75F
:100F8000CBFB08B172B6FEE70F20CDE90A054FF49E
:100F90008060CDE90C4002210AA80E94FFF700FB07
:100FA000002801D072B6FEE70FB030BD7047FEE7F3
:100FB0000907090E002804DB00F1E02080F8001486
:100FC000704700F00F0000F1E02080F8141D70471A
:100FD00010B5074A0021435C545CA34201D00020B5
:100FE00010BD491CC9B20529F5D3012010BD000070
:100FF0000100002070B50C46054600F07BF920EAA0
:1010000004012846BDE8704000F0A2B910B50D49B2
:10101000262000F0B9F80C4C0028207011D10948A6
:1010200000F054F8207000280BD1064907480A68E0
:1010300002600A790649027183780B70C0784870A3
:101040008A7010BD74000020000000200100002004
:1010500006000020FFF722FAFFF779FFFFF78CFE6A
:10106000FFF7D6FE00F064F80D4C00BFFFF7CEFF8F
:101070000C48FFF7ADFF08B1012200E0002210216B
:101080002046FFF7F7F90748401FFFF7A1FF08B117
:10109000012200E0002208212046FFF7EBF9E5E7F6
:1010A000000C01409113000810B5142000F022F943
:1010B00004460321142000F03BF9A00705D10321C9
:1010C000BDE81040142000F033B910BD30B505461E
:1010D000002485B021460D2000F03AF913A001ABA1
:1010E0000068049003A80090022204A90C2000F0DC
:1010F00063F8002804D1BDF80C10282902D0022082
:1011000005B030BD002101AA535C491C5C40C9B246
:101110000429F9D3515CA142F1D10021535C6B54F5
:10112000491CC9B20529F9D3EAE700009320000061
:1011300010B5144C0122D1022046FFF79BF9012281
:1011400011032046FFF796F900F0FEF88D212A20C2
:1011500000F0FEF83E212B2000F0FAF81E212C2092
:1011600000F0F6F800212D2000F0F2F840211520C3
:1011700000F0EEF83D21112000F0EAF8BDE8104043
:10118000FFF792BF000801407CB50C4605460721D9
:101190000D2000F0DDF8257001A823460090012203
:1011A00019460C2000F008F818B9BDF804101029F1
:1011B00000D002207CBD00002DE9FF5F0027DDF894
:1011C00038A015468B4606464FF00209B8460E2851
:1011D00002D00C2E03D005E01227102001E0772763
:1011E0003020804647F08001022000F0B1F88021D5
:1011F0000420FFF7FFFE80210A2000F099F800216B
:10120000012000F0A5F8002407E000BF1BF804103F
:10121000092000F09DF8641CA4B2AC42F6D331461C
:10122000012000F095F80C2E03D180210D2000F054
:101230007FF84FF4FA65042000F05CF86D1E2D0471
:1012400004462D0C04D0E00702D114EA080FF2D0B6
:1012500080210D20FFF7CEFE35B1062000F04AF8C0
:1012600010F01B0F04D032E0022004B0BDE8F09F64
:101270003C404FF00009E00701D04FF001090C2E6F
:1012800025D10A2000F036F804460C2000F032F890
:1012900010F007004FEAC40104D008390844AAF846
:1012A000000001E0AAF8001024B1102C04D9102489
:1012B000002503E00124FBE7002506E0092000F0FB
:1012C00019F8039948556D1CADB2A542F6D34846AE
:1012D000CBE7000001B582B04FF47A700090012393
:1012E00001AA02A90248FFF739FC9DF804000EBDCF
:1012F0001C00002070B50D4E04464FF4006500221E
:1013000029463046FFF7B6F87E2000EA440040F058
:101310008000FFF7DFFF0020FFF7DCFF044601221B
:1013200029463046FFF7A6F8204670BD0008014068
:1013300070B50C460546FFF7DDFF40EA040128467C
:10134000BDE8704000F004B80F210120AFF3008029
:101350002DE9F0410C4E0F4604464FF40065002283
:1013600029463046FFF786F87E2000EA4400FFF762
:10137000B1FF3846FFF7AEFF29463046BDE8F041E1
:101380000122FFF777B8000000080140B316782D5E
:10139000F0AA928D02B701020203040506070809AC
:1013A0000A0B0C0D0E0F10100000000000000000D2
:1013B0000102030406070809D813000800000020F2
:1013C0001C00000028010008F41300081C00002085
:1013D000CC060000440100080000000000000000EE
:1013E00000000000010000001000000000000000EC
:0413F00000127A006D
:04000005080000ED02
:00000001FF
