:020000040800F2
:10000000B00700202902000823130008731100081C
:10001000211300081F040008171500080000000045
:10002000000000000000000000000000271300088E
:10003000210400080000000025130008291300080F
:10004000430200084302000843020008430200087C
:10005000430200084302000843020008430200086C
:10006000430200084302000843020008430200085C
:10007000430200084302000843020008430200084C
:10008000430200084302000843020008430200083C
:10009000430200084302000843020008430200082C
:1000A000430200084302000843020008430200081C
:1000B000430200084302000843020008430200080C
:1000C00043020008430200084302000843020008FC
:1000D00043020008430200084302000843020008EC
:1000E00043020008430200084302000843020008DC
:1000F00043020008430200084302000843020008CC
:1001000043020008430200084302000843020008BB
:1001100043020008430200084302000843020008AB
:10012000430200084302000843020008430200089B
:10013000430200084302000843020008430200088B
:10014000430200084302000843020008430200087B
:10015000430200084302000843020008430200086B
:10016000430200084302000843020008430200085B
:100170004302000843020008430200080000000098
:10018000430200084302000800F002F800F03CF8C7
:100190000AA090E8000C82448344AAF10107DA45E2
:1001A00001D100F031F8AFF2090EBAE80F0013F0F8
:1001B000010F18BFFB1A43F001031847E4140000B5
:1001C00004150000103A24BF78C878C1FAD8520745
:1001D00024BF30C830C144BF04680C6070470000C1
:1001E0000023002400250026103A28BF78C1FBD840
:1001F000520728BF30C148BF0B6070471FB501F0E0
:100200003DFA1FBD10B510BD00F0CFF81146FFF745
:10021000F5FF01F0B3F900F0EDF803B4FFF7F2FFDA
:1002200003BC00F0F5F80000094880470948004782
:10023000FEE7FEE7FEE7FEE7FEE7FEE7FEE7FEE796
:10024000FEE7FEE704480549054A064B70470000F3
:10025000C513000889010008B0010020B007002084
:10026000B0030020B003002053EA020C00F06980C4
:100270002DE9F04B4FF00006002B1FBFB3FA83F5BA
:1002800003FA05F424FA05F65E4012BF1643B2FAEB
:1002900082F502FA05F4C5F120051EBF22FA05FC1D
:1002A00044EA0C04203556EA044C4FEA144418BFC3
:1002B000641C4FF000084FF00009904271EB030CF2
:1002C00039D3002919BFB1FA81F701FA07F6B0FA5C
:1002D00080F700FA07F6C7F120071EBF20FA07FCD7
:1002E00046EA0C062037B6FBF4FCA7EB0507103FE7
:1002F00007F01F0BCBF120060CFA0BFB2CFA06F6CD
:1003000044BFB3460026202FA4BF5E464FF0000B2B
:100310005BEA060C08BF4FF0010B19EB0B09ABFBB6
:10032000027C48EB0608C01B06FB02CC0BFB03CC8F
:1003300071EB0C01C1E70B46024641464846BDE859
:10034000F08B13B54FF000004FF00001AFF30080C9
:10035000BDE81C4070474FF0000200B513469446BC
:100360009646203922BFA0E80C50A0E80C50B1F10D
:100370002001BFF4F7AF090728BFA0E80C5048BF21
:100380000CC05DF804EB890028BF40F8042B08BFBF
:10039000704748BF20F8022B11F0804F18BF00F8BB
:1003A000012B7047704770477047754600F02CF876
:1003B000AE4605006946534620F00700854618B052
:1003C00020B5FFF73FFFBDE820404FF000064FF09B
:1003D00000074FF000084FF0000B21F00701AC467A
:1003E000ACE8C009ACE8C009ACE8C009ACE8C00999
:1003F0008D46704710B50446AFF300802046BDE837
:100400001040FFF70ABF000000487047500100206D
:1004100001491820ABBEFEE7260002007047FEE748
:10042000704700002DE9F84FDFF8BCA1002201253C
:1004300003264FF00F090AF1040BAAF1040E00BFC6
:100440000B6805FA02F42340A34270D10F7907F03C
:100450000307012F01D0022F16D187684FEA420807
:1004600006FA08FC27EA0C07D1F80CC00CFA08FCC5
:100470004CEA070CC0F808C04768A7430C79C4F3DE
:10048000001494403C4344600C79E443A4070AD030
:10049000C4684FEA420C06FA0CF7BC438F6807FAAF
:1004A0000CF72743C7600C7904F00304022C12D127
:1004B000D40800EB840CDCF820405707FF0E09FA43
:1004C00007F824EA0804D1F8108008FA07F848EA87
:1004D0000408CCF8208004684FEA420C06FA0CF7B6
:1004E000BC430F7907F0030707FA0CF727430760AF
:1004F0004C6814F4403F70D03C4C276847F4804768
:100500002760246822F0030704F480440094384CE8
:1005100007EB040CDCF8084897074FEA177809FA4C
:1005200008F7BC43334FB84202D1002724E054E01F
:10053000314FB84201D101271EE0304FB84201D1FE
:10054000022719E02E4FB84201D1032714E02D4FA6
:10055000B84201D104270FE02B4FB84201D1052743
:100560000AE02A4FB84201D1062705E0284FB842D9
:1005700001D1072700E0082707FA08F72743CCF83E
:100580000878DAF800405746D1F804C09C435FEA87
:10059000CC2C00D51C433C60DBF800405F46D1F812
:1005A00004C09C435FEA8C2C00D51C433C60DEF801
:1005B00000407746D1F804C09C435FEA8C3C00D5EC
:1005C0001C433C60084F083F3C68D1F804C09C4382
:1005D0005FEACC3C00D51C433C60521C102AFFF45F
:1005E0002FAFBDE8F88F0000083C014044380240BE
:1005F00000300140000002400004024000080240B8
:10060000000C02400010024000140240001802409A
:10061000001C02400069084000D0012070470AB168
:10062000816170470904FBE701488068704700005A
:100630000800002070B5040025D094F83D00002586
:1006400020B984F83C50204600F0B8F8242084F803
:100650003D002068016821F0010101602068016807
:1006600041F4004101602068016821F4004101600B
:1006700000F020FA4D4A6168914201D84C4900E0EF
:100680004C49884201D2012070BD4B492368B0FB20
:10069000F1F15E6826F03F060E435E6063689342A8
:1006A00006D94FF4967359434FF47A73B1FBF3F1C3
:1006B0002368491C1E6A26F03F06314319626168AF
:1006C000914210D84900401EB0FBF1F2521CC2F317
:1006D0000B02042A01D2042022E0B0FBF1F0401CFE
:1006E000C0F30B001CE0A268F2B301EBC10303EB03
:1006F0000116431EB3FBF6F35B1C43F480431B055A
:1007000049D092B301EBC10202EB0111401EB0FBD4
:10071000F1F0401CC0F30B0040F4804040F4004076
:100720002168CA694CF6FF739A431043C861D4E943
:10073000071001432068026822F0C00211430160E3
:10074000D4E9030101432068826848F2FF339A43E9
:1007500011438160D4E9050108432168CA6822F089
:10076000FF021043C86001E00EE016E02068016857
:1007700041F0010101602564202084F83D002563DB
:1007800084F83E50002070BD01EB4106431EB3FBD0
:10079000F6F35B1CB3E70120C2E701EB4101401E09
:1007A000B0FBF1F0401CC0F30B00B7E7A0860100DE
:1007B00080841E0000093D0040420F00F0B587B064
:1007C000044614216846FFF7C6FD2768234CDFF86E
:1007D00088C0002221491223032504262048103412
:1007E000674518D10F6847F002070F60096802AF2C
:1007F00001F002010591C021CDE9001387E86400F2
:100800006946FFF70FFE206840F400102060206862
:1008100000F400101CE0DFF84CC0674519D10F68E8
:1008200047F002070F60096802AF01F0020105916D
:100830004FF44061CDE9001387E864006946FFF793
:10084000F1FD206840F480002060206800F4800002
:10085000059007B0F0BD0000005400403038024061
:1008600000040240005800400248816802781144A8
:1008700081607047080000200B4810B5016841F402
:1008800000710160016841F480610160016841F418
:1008900080710160032000F061F80F2000F006F87D
:1008A00000F024F8002010BD003C024070B50D4D52
:1008B00004464FF47A712878B1FBF0F00A490968D0
:1008C000B1FBF0F000F0EEFA48B9102C07D200228C
:1008D0002146501E00F022F800206C6070BD0120FF
:1008E00070BD000008000020140000200A4808B570
:1008F000016841F480410160006800F4804000908C
:100900000548001F016841F080510160006800F057
:100910008050009008BD000044380240F0B40E4BF7
:100920001B680C46C3F30223C3F10705042D00D94D
:100930000425191D072901D2002300E0DB1E012632
:1009400006FA05F1491E214099409E40761E164048
:100950003143F0BC00F0E0BD0CED00E0064900F0D2
:10096000070208684FF6FF03184040EA0220034AD6
:1009700010430860704700000CED00E00000FA052D
:100980002DE9F0470E46050065D0DFF81481D8F850
:100990000000F7B200F00700B04207D288F80070FC
:1009A000D8F8000000F00700B04254D128683D4C50
:1009B000810712D5400703D5206840F4E05020603D
:1009C0002878000703D5206840F460402060206844
:1009D000A96820F0F000084320602878C0072DD0D7
:1009E000304968680839012812D0022813D003283A
:1009F00011D00968890700292DDA216821F0030147
:100A000001432160FFF710FE814641F2883A0EE073
:100A100009688903EFE709688901ECE7FFF704FE3D
:100A2000A0EB0901514502D90320BDE8F0872068F9
:100A3000696800F00C00B0EB810FEFD1D8F800101E
:100A4000404601F00701B14207D90770006800F085
:100A50000700B04201D00120E7E72878400705D51C
:100A60002068E96820F4E0500843206028780007F7
:100A700006D52068296920F4604040EAC100206062
:100A800000F028F82168084AC1F30311515CC840FE
:100A90000649086006480068FFF708FF0020C4E721
:100AA000003C02400838024086160008140000206E
:100AB0000C0000200448054900680968044AC1F395
:100AC0008221515CC8407047140000200838024061
:100AD00096160008154810B5006810F00C0214486E
:100AE00013D01449042A0FD0082A0ED10F4C241F0A
:100AF0002268236802F03F025B0207D52068C0F33A
:100B00008810A0FB010106E0084610BD2168C1F372
:100B10008811A1FB00010023FFF7A6FB2168C1F3A8
:100B20000141491C4900B0FBF1F010BD08380240FA
:100B30000024F40040787D012DE9F84F04006ED0C8
:100B40002078DFF84C93C007A9F104054AD009F1D9
:100B500004000168C1F38101012908D00068C0F3D5
:100B6000810002280AD1D9F80000400206D5286881
:100B7000800337D560680028E1D033E06068B0F5C5
:100B8000803F10D0B0F5A02F286810D020F480301E
:100B90002860286820F4802028606068A8B1FFF7EA
:100BA00043FD06460DE0286840F48030F4E740F449
:100BB00080202860F7E700BFFFF736FD801B642820
:100BC00073D828688003F7D50CE0FFF72DFD0646A3
:100BD00005E000BFFFF728FD801B6428F0D82868D7
:100BE0008003F7D42078DFF8AC8280074FF0000A4A
:100BF0003ED5A748001D016811F00C0F08D0006811
:100C0000C0F3810002280BD1D9F80000400207D4BC
:100C10002868800716D5E068012800D112E033E18A
:100C2000E068B8B10120C8F80000FFF7FDFC0646F7
:100C300005E000BFFFF7F8FC801B0228C0D8286839
:100C40008007F7D52868216920F0F80040EAC10044
:100C500028600DE0C8F800A0FFF7E6FC064604E0B7
:100C6000FFF7E2FC801B02281FD828688007F7D412
:100C70002078000722D5864F87486169703771B1A7
:100C800001210160FFF7D0FC064604E0FFF7CCFC31
:100C9000801B022809D838688007F7D50EE0C0F815
:100CA00000A0FFF7C1FC064605E082E0FFF7BCFCB0
:100CB000801B02287DD838688007F7D42078400749
:100CC00068D5DFF8CCB100270BF13C0BDBF8000056
:100CD000C0000BD4DBF8001041F08051CBF80010BD
:100CE000DBF80000012700F0805000906B4E306868
:100CF000C00510D4306840F480703060FFF794FC79
:100D0000009005E0FFF790FC0099401A022850D8A7
:100D10003068C005F6D55E4EA0686C3601280FD04D
:100D20000528306810D020F001003060306820F0D5
:100D300004003060A068B8B1FFF776FC00900FE0C7
:100D4000306840F00100F4E740F004003060F7E75D
:100D5000FFF76AFC0099411A41F28830814266D857
:100D600030688007F4D50EE0FFF75EFC009007E0E6
:100D7000FFF75AFC0099411A41F28830814256D857
:100D800030688007F4D42FB1DBF8001021F08051D7
:100D9000CBF80010A069C8B33D49091D0968C1F32B
:100DA000810102294AD00228504607D0C8F86000C5
:100DB00000E03CE0FFF738FC04463BE04746C8F85B
:100DC0006000FFF731FC064605E000BFFFF72CFC92
:100DD000801B02282BD828688001F7D4D4E90701AA
:100DE0000843A16A2E4A490802EB0141626A41EABE
:100DF0008211084394F82C1040EA0161C9F80010F0
:100E000001203866FFF710FC044606E03EE000BF14
:100E1000FFF70AFC001B022809D828688001F7D5D3
:100E200034E000BFFFF700FC001B022802D90320BA
:100E3000BDE8F88F28688001F4D427E00128F7D0B6
:100E4000D9F80000E26900F4800191421CD1226AC5
:100E500000F03F01914217D147F6C071626A01402C
:100E6000B1EB821F10D1A26A4FF0FF3300F4403182
:100E700003EB5202B1EB024F06D194F82C1000F0B4
:100E80007060B0EB016F01D00120D1E70020CFE707
:100E90000438024000004742800E47420070004084
:100EA0000000FFFF10B5401EB0F1807F01D301208C
:100EB00010BD4FF0E02460610F21601700F02CFBA3
:100EC0000020A06107202061002010BD70B590F8BF
:100ED0003C20012A32D0012480F83C40022280F8D4
:100EE0003D2003685A689D6822F070060A68324304
:100EF0005A60134B02689A4214D0B2F1804F11D05D
:100F0000104B9A420ED0104B9A420BD00F4B9A4284
:100F100008D00F4B9A4205D00E4B9A4202D00E4B8E
:100F20009A4204D1496825F080031943916080F802
:100F30003D40002180F83C10084670BD022070BD85
:100F4000000001400004004000080040000C004088
:100F500000040140004001400018004010B50400AA
:100F600003D094F83D0010B107E0012010BD00202F
:100F700084F83C00204600F01FF8022084F83D0071
:100F8000211D206800F026FA012084F8460084F82C
:100F90003E0084F83F0084F8400084F8410084F863
:100FA000420084F8430084F8440084F8450084F843
:100FB0003D00002010BD000008B50C4A01680C4837
:100FC000914207D1016841F001010160006800F021
:100FD000010009E0074A914207D1016841F002018E
:100FE0000160006800F00200009008BD00000140B0
:100FF000443802400004014090F83D10012901D01E
:1010000001207047022180F83D1000681149884294
:1010100014D0B0F1804F11D00F4988420ED00F4943
:1010200088420BD00E49884208D00E49884205D02C
:101030000D49884202D00D49884204D1816801F0EF
:101040000701062903D0016841F001010160002079
:10105000704700000000014000040040000800400C
:10106000000C004000040140004001400018004016
:1010700001680A6A41F211131A4207D10A6A9B10E9
:101080001A4203D10A6822F001020A60012180F8A5
:101090003D100020704770B5044690F83C000025D4
:1010A000012817D0012684F83C60022084F83D0016
:1010B0002068826822F0770222F47F42826008680A
:1010C000502838D00DDC20284FD005DC90B31028F4
:1010D00011D14AE0022070BD302846D040280AD104
:1010E0003BE060282FD070280DD0B0F5805F03D092
:1010F000B0F5005F12D0012584F83D60002084F82F
:101100003C00284670BDCB68D1E90121206800F081
:10111000CDF92068816841F0770109E0CB68D1E919
:101120000121206800F0C2F92068816841F4804103
:101130008160E1E719E0CA684968206800F0C8F9F1
:101140005021206806E0CA684968206800F0D1F99B
:101150006021206800F0B4F9CEE7CA6849682068C9
:1011600000F0B6F940212068F4E7226801461046F5
:10117000F0E7FEE72DE9F04387B014216846FFF75A
:10118000EAF82F480024016841F0800101600168FD
:1011900001F080010591016841F0010101600168E1
:1011A00001F001010591016841F010010160016841
:1011B00001F010010591016841F002010160016830
:1011C00001F002010591016841F008010160006829
:1011D000DFF8708000F008004FF4007605900022E0
:1011E00031464046FFF71BFADFF85C90B70100225A
:1011F00039464846FFF713FA042001258DE83100EF
:1012000069461248FFF70EF90096CDE90154694688
:1012100040460394FFF706F9A802CDE900046946A9
:1012200040460294FFF7FEF80097CDE90154694665
:1012300048460394FFF7F6F807B0BDE8F0830000D6
:101240003038024000100240000C02400000024012
:1012500010B586B0002417480094019402940394BA
:1012600004941349059401605321C0E901144FF619
:10127000FF71C0E9031444618461FFF76FFE08B198
:1012800072B6FEE74FF48050009069460948FFF7B8
:1012900002FF08B172B6FEE7049404A9054805945C
:1012A000FFF714FE002801D072B6FEE706B010BDAD
:1012B00000000140C000002010B586B0002417488F
:1012C00000940194029403940494134905940160DA
:1012D0005321C0E901144FF6FF71C0E903144461C2
:1012E0008461FFF73BFE08B172B6FEE74FF4805011
:1012F000009069460948FFF7CEFE08B172B6FEE7D6
:10130000049404A905480594FFF7E0FD002801D0E6
:1013100072B6FEE706B010BD0004014008010020CF
:10132000FEE7FEE770477047FFF79EBA30B593B00F
:1013300030216846FFF70FF814210CA8FFF70BF8CF
:101340001E480025016841F080510160006800F0EE
:10135000805011901A48016841F480410160006892
:10136000022400F4804011900120009000040190BC
:101370008001CDE90640192008904FF4A870CDE90E
:10138000090404200B906846FFF7D6FB08B172B63B
:10139000FEE70CA90F2081E831004FF4A0500F9018
:1013A0004FF48050109005210CA8FFF7E9FA0028AF
:1013B00001D072B6FEE713B030BD000040380240E5
:1013C000007000400248016841F4700101607047FC
:1013D00088ED00E0F0B50268294C2A4D2A4E2B4FCB
:1013E0002B4B4FF0804CA04209D0604507D0A8425B
:1013F00005D0B04203D0B84201D0984204D122F0C7
:10140000700E4A6842EA0E02A0421BD0604519D015
:10141000A84217D0B04215D0B84213D0984211D08C
:101420001C4DA8420ED01C4DA8420BD01B4DA8420B
:1014300008D01B4DA84205D01A4DA84202D01A4D23
:10144000A84203D122F44075CA682A434D6922F0AC
:1014500080022A4302608A68C2620A688262A042ED
:1014600001D0984201D109690163012141610169FB
:10147000C90703D0016921F001010161F0BD00003D
:10148000000001400004004000080040000C004043
:101490000004014000400140004401400048014078
:1014A00000180040001C00400020004010B5846877
:1014B00042EA032224F47F440A432243826010BD9F
:1014C000826822F070020A4342F00701816070478F
:1014D00010B5036A046A24F001040462846924F0EC
:1014E000F00444EA021423F00A020A43846102620F
:1014F00010BD10B5036A046A24F010040462846904
:1015000023F0A00324F4704444EA023243EA0111B8
:101510008261016210BDFEE70907090E002804DBA5
:1015200000F1E02080F80014704700F00F0000F197
:10153000E02080F8141D704770B5054600244FF474
:101540007A7603E0304600F005F8641CAC42F9D32B
:1015500070BD000010B504460748FFF74DFD064872
:101560000021026851620068416AA142FCD3BDE8D3
:1015700010400148FFF77CBDC0000020FFF77CF958
:10158000FFF7D4FEFFF7F6FD19481849194D00245E
:101590000160C0E901540E14C0E90346446184614E
:1015A000C4610462FFF746F808B172B6FEE710485E
:1015B000114954300160C0E90154C0E90346446157
:1015C0008461C4610462FFF735F808B172B6FEE7C2
:1015D000FFF73EFEFFF770FE084C00BF00F010F86A
:1015E000BCEEC00A84ED010AF8E700000054004098
:1015F00018000020A08601000058004000000020D4
:1016000070B501221A4C550229462046FFF707F80B
:101610000A20FFF79FFF002229462046FEF7FFFF22
:10162000251529462046FEF7F5FF0028F9D0114878
:10163000FFF7E2FC0F4E0020316848622946204641
:10164000FEF7E8FF0128F9D03068406A0A4C2060B4
:101650000848FFF70DFD20681D21B0FBF1F0C4B272
:101660003C20FFF769FF00EE104AB8EE400A70BD5B
:101670000010024008010020000000204FF04070E0
:10168000E1EE100A704700000000000000000102B7
:10169000030406070809000000000102030400001B
:1016A000C01600080000002018000000C401000857
:1016B000D81600081800002098070000E001000874
:1016C0000000000000000000010000001000000009
:0816D000000000000024F400FA
:040000050800018965
:00000001FF
