:020000040800F2
:1000000028070020290200087F1900082114000891
:100010007D1900081F040008A91A0008000000004C
:10002000000000000000000000000000831900082C
:10003000210400080000000081190008FD190008D3
:10004000430200084302000843020008430200087C
:10005000430200084302000843020008430200086C
:10006000430200084302000843020008430200085C
:10007000430200084302000843020008430200084C
:10008000430200084302000843020008430200083C
:10009000430200084302000843020008430200082C
:1000A000430200084302000843020008430200081C
:1000B000430200084302000843020008430200080C
:1000C00043020008430200084302000843020008FC
:1000D00043020008430200084302000843020008EC
:1000E00043020008430200084302000843020008DC
:1000F00043020008430200084302000843020008CC
:1001000043020008430200084302000843020008BB
:1001100043020008430200084302000843020008AB
:10012000430200084302000843020008430200089B
:10013000430200084302000843020008430200088B
:10014000430200084302000843020008430200087B
:10015000430200084302000843020008430200086B
:10016000430200084302000843020008430200085B
:100170004302000843020008430200080000000098
:10018000430200084302000800F002F800F03CF8C7
:100190000AA090E8000C82448344AAF10107DA45E2
:1001A00001D100F031F8AFF2090EBAE80F0013F0F8
:1001B000010F18BFFB1A43F0010318477820000015
:1001C00098200000103A24BF78C878C1FAD85207A6
:1001D00024BF30C830C144BF04680C6070470000C1
:1001E0000023002400250026103A28BF78C1FBD840
:1001F000520728BF30C148BF0B6070471FB502F0DF
:1002000003F81FBD10B510BD00F0CFF81146FFF781
:10021000F5FF01F0D5FC00F0EDF803B4FFF7F2FFB5
:1002200003BC00F0F5F80000094880470948004782
:10023000FEE7FEE7FEE7FEE7FEE7FEE7FEE7FEE796
:10024000FEE7FEE704480549054A064B70470000F3
:10025000991A0008890100082801002028070020B9
:10026000280300202803002053EA020C00F06980D4
:100270002DE9F04B4FF00006002B1FBFB3FA83F5BA
:1002800003FA05F424FA05F65E4012BF1643B2FAEB
:1002900082F502FA05F4C5F120051EBF22FA05FC1D
:1002A00044EA0C04203556EA044C4FEA144418BFC3
:1002B000641C4FF000084FF00009904271EB030CF2
:1002C00039D3002919BFB1FA81F701FA07F6B0FA5C
:1002D00080F700FA07F6C7F120071EBF20FA07FCD7
:1002E00046EA0C062037B6FBF4FCA7EB0507103FE7
:1002F00007F01F0BCBF120060CFA0BFB2CFA06F6CD
:1003000044BFB3460026202FA4BF5E464FF0000B2B
:100310005BEA060C08BF4FF0010B19EB0B09ABFBB6
:10032000027C48EB0608C01B06FB02CC0BFB03CC8F
:1003300071EB0C01C1E70B46024641464846BDE859
:10034000F08B13B54FF000004FF00001AFF30080C9
:10035000BDE81C4070474FF0000200B513469446BC
:100360009646203922BFA0E80C50A0E80C50B1F10D
:100370002001BFF4F7AF090728BFA0E80C5048BF21
:100380000CC05DF804EB890028BF40F8042B08BFBF
:10039000704748BF20F8022B11F0804F18BF00F8BB
:1003A000012B7047704770477047754600F02CF876
:1003B000AE4605006946534620F00700854618B052
:1003C00020B5FFF73FFFBDE820404FF000064FF09B
:1003D00000074FF000084FF0000B21F00701AC467A
:1003E000ACE8C009ACE8C009ACE8C009ACE8C00999
:1003F0008D46704710B50446AFF300802046BDE837
:100400001040FFF70ABF000000487047C4000020FA
:1004100001491820ABBEFEE7260002007047FEE748
:100420007047000000B54FF47A722DED028B85B055
:10043000022103A88DE8070001231122D0211048D2
:1004400000F0CCFA9DF80D00800901F0E1FC9FED71
:100450000D1B53EC112B01F0EFFC41EC180B9DF838
:100460000C0001F0D5FC53EC182B01F029FC01F035
:10047000F5FB05B000EE100ABDEC028B00BD0000DC
:100480001C000020000000000000D03F00B585B037
:100490004FF47A72072103A88DE807000123002298
:1004A000D021144800F09AFA9DF80C0001F00DFBE1
:1004B000114A10709DF80D0001F007FB50709DF877
:1004C0000E0001F002FB90709DF80F0001F0FDFAA4
:1004D000D0709DF8100001F0F8FA10719DF811002D
:1004E00001F0F3FA50719DF8120001F0EEFA9071EC
:1004F00005B000BD1C0000200400002070B50446BB
:1005000000F00CF90546601C02D004480078044451
:1005100000F004F9401BA042FAD370BD0C0000208B
:100520002DE9F84FDFF8BCA10022012503264FF08A
:100530000F090AF1040BAAF1040E00BF0B6805FABB
:1005400002F42340A34270D10F7907F00307012F73
:1005500001D0022F16D187684FEA420806FA08FC3C
:1005600027EA0C07D1F80CC00CFA08FC4CEA070C7F
:10057000C0F808C04768A7430C79C4F3001494403E
:100580003C4344600C79E443A4070AD0C4684FEAB2
:10059000420C06FA0CF7BC438F6807FA0CF72743A6
:1005A000C7600C7904F00304022C12D1D40800EBCC
:1005B000840CDCF820405707FF0E09FA07F824EAFC
:1005C0000804D1F8108008FA07F848EA0408CCF8C3
:1005D000208004684FEA420C06FA0CF7BC430F79FE
:1005E00007F0030707FA0CF7274307604C6814F479
:1005F000403F70D03C4C276847F480472760246810
:1006000022F0030704F480440094384C07EB040CF8
:10061000DCF8084897074FEA177809FA08F7BC434F
:10062000334FB84202D1002724E054E0314FB842A2
:1006300001D101271EE0304FB84201D1022719E055
:100640002E4FB84201D1032714E02D4FB84201D1FB
:1006500004270FE02B4FB84201D105270AE02A4FAB
:10066000B84201D1062705E0284FB84201D107273B
:1006700000E0082707FA08F72743CCF80878DAF8EB
:1006800000405746D1F804C09C435FEACC2C00D50B
:100690001C433C60DBF800405F46D1F804C09C433B
:1006A0005FEA8C2C00D51C433C60DEF800407746A6
:1006B000D1F804C09C435FEA8C3C00D51C433C60ED
:1006C000084F083F3C68D1F804C09C435FEACC3C2B
:1006D00000D51C433C60521C102AFFF42FAFBDE82C
:1006E000F88F0000083C01404438024000300140CF
:1006F000000002400004024000080240000C0240DA
:10070000001002400014024000180240001C024089
:100710000AB1816170470904FBE700000148806865
:10072000704700000C00002070B5040025D094F83C
:100730003D00002520B984F83C50204600F0E8FA3E
:10074000242084F83D002068016821F00101016047
:100750002068016841F4004101602068016821F4CB
:100760000041016000F050FC4D4A6168914201D89F
:100770004C4900E04C49884201D2012070BD4B49F0
:100780002368B0FBF1F15E6826F03F060E435E6021
:100790006368934206D94FF4967359434FF47A73C2
:1007A000B1FBF3F12368491C1E6A26F03F06314372
:1007B00019626168914210D84900401EB0FBF1F205
:1007C000521CC2F30B02042A01D2042022E0B0FB27
:1007D000F1F0401CC0F30B001CE0A268F2B301EB87
:1007E000C10303EB0116431EB3FBF6F35B1C43F49A
:1007F00080431B0549D092B301EBC10202EB01110A
:10080000401EB0FBF1F0401CC0F30B0040F48040F0
:1008100040F400402168CA694CF6FF739A431043C4
:10082000C861D4E9071001432068026822F0C002C1
:1008300011430160D4E9030101432068826848F252
:10084000FF339A4311438160D4E9050108432168CD
:10085000CA6822F0FF021043C86001E00EE016E013
:100860002068016841F0010101602564202084F8BE
:100870003D00256384F83E50002070BD01EB410629
:10088000431EB3FBF6F35B1CB3E70120C2E701EBA9
:100890004101401EB0FBF1F0401CC0F30B00B7E774
:1008A000A086010080841E0000093D0040420F0028
:1008B0002DE9F84F1F4690468A460446DDF82890F9
:1008C000FFF72CFF054694F83D0020287FD119231F
:1008D000012240492046009500F006FF002876D10D
:1008E00094F83C00012872D0012084F83C00206874
:1008F0000168C90703D1016841F001010160206866
:10090000016821F400610160212084F83D0010207D
:1009100084F83E0000262664C4F824806785608D34
:1009200020852D48E0622B464A465146204600F07D
:100930008FFD90B9206841698069009036E02A46B1
:100940004946204600F0AEFF50B1206C042804D187
:100950002068016841F4007101600120BDE8F88F52
:10096000606A216800780861606A401C6062618D7D
:10097000491E6185218D491E89B2218522685369EE
:10098000DB435B070BD451B100781061606A401CF7
:100990006062608D401E6085208D401E20852A4645
:1009A0004946204600F074FE0028CED1208D002854
:1009B000C5D154F83D0B016841F40071016020205D
:1009C00004F81E09E67766770020C7E7FFE70220F4
:1009D000C4E70000020010000000FFFF2DE9FF4FF8
:1009E00083B09A46DDE9118793460446DDF84090CE
:1009F000FFF794FE054694F83D00202870D1192396
:100A0000012274492046009500F06EFE0028F5D1C1
:100A100094F83C00012863D0012084F83C00206851
:100A20000168C90703D1016841F001010160206834
:100A3000016821F400610160222084F83D0040201B
:100A400084F83E0000262664C4F82490A4F82A8086
:100A5000608D20856048E062CDE9007553465A46B6
:100A60002046049900F042FD002879D1208DD0B1B4
:100A7000012821D00228206824D041698069009093
:100A8000208D032866D801282BD0544902283B46E4
:100A90004FF00002009557D08846204600F024FE13
:100AA00000285DD13AE020684169816900910168C0
:100AB00041F4007101607DE02068016821F48061EB
:100AC0000160F0E7016821F480610160206801683D
:100AD00041F400610160206841698069009069E02B
:100AE00075E02A463946204600F0A4FE88BB54E053
:100AF0002068016841F40071016020680069616A42
:100B00000870606A401C6062218D491E2185618DDC
:100B1000491E618521680969017042E02068016809
:100B200021F48061016020680069616A0870606A70
:100B3000401C6062208D401E2085608D401E6085B7
:100B40003B46002241460095204600F0CDFD00B90D
:100B5000CEE705E02A463946204600F06BFE18B184
:100B6000012007B0BDE8F08F20680069616A087055
:100B7000606A401C6062208D401E81B22185608DBC
:100B8000401E608520684269D243520712D403296F
:100B900003D1016821F48061016020680069616A05
:100BA0000870606A401C6062208D401E2085608D48
:100BB000401E6085208D00287FF462AF202084F8DD
:100BC0003D0084F83E6084F83C600020C9E70220C4
:100BD000C7E70000020010000000FFFF0400010052
:100BE0002DE9FF4F83B09A46DDE9119793460446FD
:100BF000DDF84080FFF792FD054694F83D0020287F
:100C00007FD11923012240492046009500F06CFD58
:100C1000002876D194F83C00012872D0012084F895
:100C20003C0020680168C90703D1016841F0010157
:100C300001602068016821F400610160212084F8CE
:100C40003D00402084F83E0000262664C4F824803D
:100C5000A4F82A90608D20852C48E062CDE90075CB
:100C600053465A462046049900F0BEFC70B930E065
:100C70002A463946204600F015FE58B1206C04285B
:100C800004D12068016841F400710160012007B0BF
:100C9000BDE8F08F606A216800780861606A401CD6
:100CA0006062218D491E89B22185628D521E628546
:100CB00022685369DB435B070BD469B1007810618C
:100CC000606A401C6062208D401E2085608D401E41
:100CD0006085208D0028CBD12A463946204600F079
:100CE000D7FC0028CAD154F83D0B016841F40071CB
:100CF0000160202004F81E09E67766770020C6E729
:100D0000FFE70220C3E70000020010000000FFFF21
:100D1000F0B587B0044614216846FFF71CFB27682E
:100D2000234CDFF888C00022214912230325042622
:100D300020481034674518D10F6847F002070F604C
:100D4000096802AF01F002010591C021CDE900134D
:100D500087E864006946FFF7E3FB206840F4001071
:100D60002060206800F400101CE0DFF84CC06745EC
:100D700019D10F6847F002070F60096802AF01F050
:100D8000020105914FF44061CDE9001387E864004A
:100D90006946FFF7C5FB206840F4800020602068AA
:100DA00000F48000059007B0F0BD00000054004042
:100DB0003038024000040240005800400248816878
:100DC00002781144816070470C0000200B4810B578
:100DD000016841F400710160016841F480610160C3
:100DE000016841F480710160032000F061F80F2078
:100DF00000F006F800F024F8002010BD003C02408E
:100E000070B50D4D04464FF47A712878B1FBF0F0BF
:100E10000A490968B1FBF0F000F0EEFA48B9102C6D
:100E200007D200222146501E00F022F800206C60FC
:100E300070BD012070BD00000C00002018000020D3
:100E40000A4808B5016841F480410160006800F477
:100E5000804000900548001F016841F0805101600A
:100E6000006800F08050009008BD00004438024047
:100E7000F0B40E4B1B680C46C3F30223C3F1070505
:100E8000042D00D90425191D072901D2002300E0F3
:100E9000DB1E012606FA05F1491E214099409E40BD
:100EA000761E16403143F0BC00F0FFBD0CED00E0B3
:100EB000064900F0070208684FF6FF03184040EAB1
:100EC0000220034A10430860704700000CED00E068
:100ED0000000FA052DE9F0470E46050065D0DFF861
:100EE0001481D8F80000F7B200F00700B04207D232
:100EF00088F80070D8F8000000F00700B04254D124
:100F000028683D4C810712D5400703D5206840F47E
:100F1000E05020602878000703D5206840F4604046
:100F200020602068A96820F0F0000843206028783D
:100F3000C0072DD0304968680839012812D002282E
:100F400013D0032811D00968890700292DDA2168F8
:100F500021F0030101432160FFF7E0FB814641F2EC
:100F6000883A0EE009688903EFE709688901ECE730
:100F7000FFF7D4FBA0EB0901514502D90320BDE8DE
:100F8000F0872068696800F00C00B0EB810FEFD1AA
:100F9000D8F80010404601F00701B14207D90770A8
:100FA000006800F00700B04201D00120E7E7287890
:100FB000400705D52068E96820F4E0500843206028
:100FC0002878000706D52068296920F4604040EAA7
:100FD000C100206000F028F82168084AC1F303111D
:100FE000515CC8400649086006480068FFF708FFE2
:100FF0000020C4E7003C0240083802401C220008E0
:101000001800002010000020044805490068096805
:10101000044AC1F38221515CC84070471800002087
:10102000083802402C220008154810B5006810F05E
:101030000C02144813D01449042A0FD0082A0ED1E8
:101040000F4C241F2268236802F03F025B0207D581
:101050002068C0F38810A0FB010106E0084610BD1F
:101060002168C1F38811A1FB00010023FFF7FCF800
:101070002168C1F30141491C4900B0FBF1F010BDEA
:10108000083802400024F40040787D012DE9F84F33
:1010900004006ED02078DFF84C93C007A9F1040556
:1010A0004AD009F104000168C1F38101012908D087
:1010B0000068C0F3810002280AD1D9F8000040027C
:1010C00006D52868800337D560680028E1D033E072
:1010D0006068B0F5803F10D0B0F5A02F286810D020
:1010E00020F480302860286820F480202860606820
:1010F000A8B1FFF713FB06460DE0286840F48030E6
:10110000F4E740F480202860F7E700BFFFF706FB14
:10111000801B642873D828688003F7D50CE0FFF79C
:10112000FDFA064605E000BFFFF7F8FA801B6428C9
:10113000F0D828688003F7D42078DFF8AC828007E5
:101140004FF0000A3ED5A748001D016811F00C0FB2
:1011500008D00068C0F3810002280BD1D9F8000044
:10116000400207D42868800716D5E068012800D11E
:1011700012E033E1E068B8B10120C8F80000FFF7E1
:10118000CDFA064605E000BFFFF7C8FA801B02282B
:10119000C0D828688007F7D52868216920F0F800B2
:1011A00040EAC10028600DE0C8F800A0FFF7B6FAD9
:1011B000064604E0FFF7B2FA801B02281FD8286811
:1011C0008007F7D42078000722D5864F87486169C9
:1011D000703771B101210160FFF7A0FA064604E003
:1011E000FFF79CFA801B022809D838688007F7D5DA
:1011F0000EE0C0F800A0FFF791FA064605E082E095
:10120000FFF78CFA801B02287DD838688007F7D456
:101210002078400768D5DFF8CCB100270BF13C0BF4
:10122000DBF80000C0000BD4DBF8001041F0805167
:10123000CBF80010DBF80000012700F08050009090
:101240006B4E3068C00510D4306840F48070306058
:10125000FFF764FA009005E0FFF760FA0099401A82
:10126000022850D83068C005F6D55E4EA0686C36AE
:1012700001280FD00528306810D020F00100306020
:10128000306820F004003060A068B8B1FFF746FA7B
:1012900000900FE0306840F00100F4E740F00400F7
:1012A0003060F7E7FFF73AFA0099411A41F28830C7
:1012B000814266D830688007F4D50EE0FFF72EFA39
:1012C000009007E0FFF72AFA0099411A41F28830AE
:1012D000814256D830688007F4D42FB1DBF8001073
:1012E00021F08051CBF80010A069C8B33D49091D19
:1012F0000968C1F3810102294AD00228504607D06B
:10130000C8F8600000E03CE0FFF708FA04463BE064
:101310004746C8F86000FFF701FA064605E000BF3F
:10132000FFF7FCF9801B02282BD828688001F7D42E
:10133000D4E907010843A16A2E4A490802EB01419A
:10134000626A41EA8211084394F82C1040EA016174
:10135000C9F8001001203866FFF7E0F9044606E0FE
:101360003EE000BFFFF7DAF9001B022809D8286821
:101370008001F7D534E000BFFFF7D0F9001B022849
:1013800002D90320BDE8F88F28688001F4D427E053
:101390000128F7D0D9F80000E26900F480019142F9
:1013A0001CD1226A00F03F01914217D147F6C0716B
:1013B000626A0140B1EB821F10D1A26A4FF0FF3385
:1013C00000F4403103EB5202B1EB024F06D194F826
:1013D0002C1000F07060B0EB016F01D00120D1E75C
:1013E0000020CFE70438024000004742800E474209
:1013F000007000400000FFFF10B5401EB0F1807F7C
:1014000001D3012010BD4FF0E02460610F2160176F
:1014100000F04BFB0020A06107202061002010BDE0
:10142000FEE701684A69D24352050FD46FF4806227
:101430004A61002140F8301F202242738173026903
:1014400042F00402026101730120704700207047DE
:10145000F8B50446C06A1E460D461746082807D050
:10146000012805D010F5803F02D0206B122804D14E
:101470002068016841F480710160134600224FF03A
:1014800001112046009600F02FF940B12068006855
:10149000C00502D54FF4007020640320F8BD206918
:1014A000B0F5804F0ED00620216800EAD51040F03C
:1014B000F000086133463A460B49204600F05CF9DB
:1014C00078B902E005F0FE0000E0E8B221680861AA
:1014D000054933463A46891F204600F04DF9002859
:1014E000DCD00120F8BD0000080001002DE9F84F14
:1014F0000446006889460B9D01689846174641F4EA
:10150000806101602068016841F48071016000958C
:101510004FF0011B0022594620460A9B00F0E4F8D8
:101520004FF4007A40B120680068C00501D5C4F8C6
:1015300040A00320BDE8F88F216809F0FE00086193
:101540002B46284920460A9A00F016F9F0BB20687D
:101550004169806900902A4620460A9900F0A2F964
:1015600040B1206C04283AD12068016841F4007130
:10157000016034E0FEB2B8F1010F09D02168380AE9
:1015800008612A4620460A9900F08CF90028E8D123
:10159000206806612A4620460A9900F083F900284F
:1015A000DFD12068016841F480710160009500225C
:1015B000594620460A9B00F097F80028B3D12168CD
:1015C00009F0FF0040F00100086100E007E02B4651
:1015D000044920460A9A00F0CFF80028AAD001203A
:1015E000A8E70000020001002DE9F8430446006866
:1015F0000D46DDE9089701689846164641F480716A
:1016000001604B4600224FF001112046009700F088
:101610006BF848B120680068C00502D54FF400702F
:1016200020640320BDE8F883216805F0FE0008610E
:101630003B464A461549204600F09EF888B9206886
:101640004169806900903A464946204600F02AF9EF
:1016500048B1206C042804D12068016841F400716D
:1016600001600120DEE7F5B2B8F1010F09D0216871
:10167000300A08613A464946204600F013F900282E
:10168000E7D1206805610020CCE7000002000100DE
:1016900070B516460D4604461EE02046FFF7C1FE13
:1016A00008B1012070BD681C16D0FFF737F8801B09
:1016B000A84200D885B920684069C04340070BD5CF
:1016C000002044F8300F20216173A073216941F09C
:1016D000200121612073E4E720684069C04340078E
:1016E000DBD4002070BD00002DE9F0479846174676
:1016F0000D460446C1F30746DDF820902AE000BFFE
:10170000B8F1FF3F26D0FFF709F8A0EB09014145EA
:1017100002D8B8F1000F1DD12068012E16D08069C3
:1017200025EA00000004000C12D00020B84211D1BC
:10173000002044F8300F20216173A073216941F02B
:101740002001216120730120BDE8F0874069E7E7AF
:101750000120EBE72068012E0AD0806925EA00000D
:101760000004000C06D00020B842C9D00020EBE7EE
:101770004069F3E70120F7E72DE9F0479846164660
:101780000D4604464FF000094FF0200AC1F3074709
:1017900023E020684069C043400515D420680168F3
:1017A00041F40071016021686FF480604861C4F801
:1017B000309084F83DA084F83E90216C41F0040103
:1017C000216484F83C9021E0701C06D0FEF7A6FF4F
:1017D000A0EB0800B04203D816B1012F1FD021E0C2
:1017E0002068012F15D0806925EA00000004000C54
:1017F00018D000BF44F8309F84F80DA084F80E90F4
:10180000216941F02001216184F80C900120BDE89C
:10181000F087406925EA00000004000CEAD1206846
:10182000406901E02068806925EA00000004000C9E
:10183000AFD1ECE72DE9F041002590460E46044675
:10184000202728E04069C043C0060CD454F8301B60
:101850006FF01000486144F810596777A577206A47
:101860002062257714E0FEF759FFA0EB0800B04294
:1018700000D886B920684069C04340060BD544F8BB
:10188000305F6773A573206940F0200020612573E5
:101890000120BDE8F08120684169C9434906D1D4DF
:1018A0000020F6E770B516460D4604461EE02046B9
:1018B000FFF7B7FD08B1012070BD681C16D0FEF718
:1018C0002DFF801BA84200D885B920684069C0431D
:1018D00000060BD5002044F8300F20216173A0735F
:1018E000216941F0200121612073E4E7206840690B
:1018F000C0430006DBD4002070BD000070B586B088
:1019000014216846FEF727FD1A480024016841F0BB
:1019100080010160016801F080010591016841F0DA
:1019200002010160016801F002010591016841F0C6
:1019300008010160016801F008010591016841F0AA
:101940000101016000680C4E00F001004FF40045F9
:101950000590002229463046FEF7DAFE0120009568
:10196000CDE90104694630460394FEF7D9FD06B07F
:1019700070BD000030380240000C0240FEE7FEE778
:10198000704770472DE9F04186B00F460CA9984684
:1019900091E83800164600F0A0F88DF80C003846A3
:1019A00000F09BF88DF80D00304600F096F88DF8A9
:1019B0000E00404600F091F88DF80F00184600F038
:1019C0008CF88DF81000204600F087F88DF8110093
:1019D000284600F082F88DF812004FF47A72072141
:1019E00003A88DE8070001230022D0210248FFF759
:1019F000F7F806B0BDE8F0811C000020FFF7DEB963
:101A000030B593B030216846FEF7A5FC14210CA830
:101A1000FEF7A1FC1E480025016841F080510160DD
:101A2000006800F0805011901A48016841F480412C
:101A300001600068022400F48040119001200090B1
:101A4000000401908001CDE90640192008904FF470
:101A5000A870CDE9090404200B906846FFF716FB37
:101A600008B172B6FEE70CA90F2081E831004FF4EF
:101A7000A0500F904FF48050109005210CA8FFF754
:101A800029FA002801D072B6FEE713B030BD00007D
:101A900040380240007000400248016841F4700183
:101AA0000160704788ED00E0FEE70907090E002895
:101AB00004DB00F1E02080F80014704700F00F0014
:101AC00000F1E02080F8141D704700F00F010009BC
:101AD00000EB800001EB400070470A2190FBF1F21F
:101AE00001FB120290FBF1F002EB0010C0B2704754
:101AF00030B585B000208DF80C008DF81000012560
:101B000003A8CDE9000564242B460F22D0210294BE
:101B10000F48FEF763FF9DF80C00400716D404A899
:101B2000CDE9000501230E22D02102940848FEF7DA
:101B300055FF9DF81000012340F02000CDE900057D
:101B40000E22D02102940248FFF74AF805B030BDBA
:101B50001C0000201CB500F0F00141F00C028DF8D3
:101B6000042041F008018DF805100C2141EA001114
:101B70008DF80610082141EA00108DF807000A20B0
:101B80000090042301AA4E210148FEF791FE1CBDDE
:101B90001C00002010B53320FFF7DCFF3220FFF7D8
:101BA000D9FF2820FFF7D6FF0C20FFF7D3FF062030
:101BB000FFF7D0FFBDE810400120FFF7CBBF0000CA
:101BC0000EB5FFF703F9FFF71BFFFFF797FE1F485E
:101BD0001D491F4E00240160C0E901640D14C0E9D5
:101BE000034544618461C4610462FEF79DFD08B150
:101BF00072B6FEE71548174954300160C0E9016428
:101C0000C0E9034544618461C4610462FEF78CFD50
:101C100008B172B6FEE7FFF7BDFF00230094019400
:101C20001A46194618460294FFF7ACFE0A4C00BF4C
:101C3000FEF72CFCFFF75CFFFEF7F4FB84ED000AD7
:101C40000120FEF75BFCF3E7005400401C0000207D
:101C5000A0860100005800400000002021F0004252
:101C6000A2F16052B2F5801F01F0004328BFD2F10B
:101C70007F6C0BD95FEA001C43EAC20242EB507052
:101C800018BF704728BF20F001007047B2F5801FD1
:101C9000BCBF184670474FEA410C1CF5001F02D22A
:101CA000084600F0B6BA70B500F070F9000000897F
:101CB000FFF7F6BF4FF00040A0F58000704700002E
:101CC00010B591EA030F48BF83F0004300F1BA81D9
:101CD000841A71EB030C05D2121943EB0C03001BA1
:101CE00061EB0C01DFF824E14FEA1154A4EB135C23
:101CF0001EEA430F18BF9EEA445F73D023EA0E0327
:101D0000DCF1200E21EA045143F4801332D322FA8D
:101D10000CFE10EB0E0023FA0CFE41EB0E01CCF191
:101D2000200E03FA0EFE10EB0E0051F10001B1F58A
:101D3000801FCCF1200E32D201EB045112FA0EF2C8
:101D4000BDE8104058BF7047401C38BF5FEA4202F0
:101D500018BF7047002814BF20F0010041F10001B6
:101D60004FEA410313F5001F38BF7047A1F1C0418E
:101D700000F05AB9012A43EB0302ACF1200CDCF16C
:101D80001F0E32BF4FF0000E23FA0CF310EB0300CE
:101D900041EB0451B4EB115FD0D0A1EB045101F53C
:101DA000801149085FEA300001EB04510ED350F175
:101DB000000038BF12FA0EFE08D1BDE81040C9E796
:101DC000401C38BF5FEA4202CAD1C3E7BDE81040F9
:101DD0004FEA410313F5001F38BF7047A1F1C0411E
:101DE00000F022B99EEA445F08D011EA5E0FBDE818
:101DF000104004BF01F0004100207047BDE81040D2
:101E000070B500F0C3F800BF64FBBE3E0000E0FF09
:101E1000B0FA80F310FA03F10AD0C3F11D0303F501
:101E200080634FEA41504FEA035202EBD1217047E1
:101E30004FF0000070470000DFF848C170B51CEAA1
:101E4000111E1EBF1CEA13159EEA0C0F95EA0C0F1B
:101E500000F06F8081EA030423EA4C134EEAD47E3B
:101E600021EA4C1141F4801143F48013AE44A1FBEC
:101E7000024CA0FB0365AEF17F7E361955EB0C05D5
:101E8000A1FB034C4CF10003A0FB021C16EB0C065B
:101E9000654153F10003094218BF46F0010613F4EF
:101EA000007F0BD14FEA03314FEA0530340341EA9A
:101EB000155140EA16506FF003020AE04FEAC321C1
:101EC0004FEAC520F40241EA555140EA56506FF0FE
:101ED000020202EB2E4201EB025585EACE710AD0D6
:101EE0005FEA440C18BF24F0004450F1000041F1B7
:101EF000000120EAD47040F2FE7C624500D270BD41
:101F0000A84214BF4FF080444FF04044002E08BF59
:101F10000024BEF1806FA8BFA1F1C041BDE87040B0
:101F200080F282804FF0000001F1C04101F00041D9
:101F300070479EEA0C0F0CEA131518BF95EA0C0FB8
:101F400006D04FF0000081EA030E0EF0004170BD94
:101F500000F01CF88900013E00F007B800F009B855
:101F60004FEA430C5FEA5C5C08D081EA030100F0B1
:101F70005BB84FEA410C5FEA5C5CF6D14FF00000C1
:101F8000014970470000FF070000F87F0EF1020EC4
:101F90002EF0030E5EF8046B364205D4012A43EBA3
:101FA000030515F5001F12D8012841EB010C1CF5A3
:101FB000001F0CD80ED14FEAD17C15F5001F0CEB99
:101FC0004C0C0CF1020C08BF4CEBD37C04E04FF03E
:101FD000080C01E04FEAD37C0CEB4C0526FA05F621
:101FE00006F00706B6F1040C06D20EEB860CBDE82F
:101FF00070404CF0010C6047DFE80CF0090B020266
:102000004FF000414FF00000A1F5002170BD1946CE
:102010001046012851EB010418BFD4F5001484BF09
:10202000002001F0004170BD0808A0F500114FEA42
:102030003101704710B591EA030F48BF83F00043A8
:102040003FF546AE841A71EB030C07D212198CF0DF
:10205000004C43EB0C03001B61EB0C01DFF8A4E127
:102060004FEA1154A4EB135C1EEA430F18BF9EEA1B
:10207000445F00F0B08023EA6E03524221EA04512B
:10208000C3EB6E0338BF5B1EDCF1200E25D322FAB2
:102090000CFE10EB0E0043FA0CFE41EB0E01CCF1EE
:1020A000200E03FA0EFE10EB0E0051F10001CCF1F0
:1020B000200E29D412FA0EF201EB0451BDE81040B3
:1020C00058BF7047401C1CBFB2F1004F704700283A
:1020D0000CBF491C20F00100704712EB020E43EBCD
:1020E000030218BF4FF0010E4EEA4202ACF1200C81
:1020F000DCF11E0E54D943FA0CFE10EB0E0051F128
:10210000FF31CCF11E0ED5D50EF1010E12FA0EFEE6
:10211000404141EB010101EB445C5FEA5C5C10D99A
:1021200010EBDE7001EB045138BFBEF1004FBDE88B
:10213000104018BF704700280CBF491C20F0010058
:10214000704730D24FEAD42C11F5001124F400640A
:102150001BD0B1FA81F20B3AA41AA41ED2F12003CB
:10216000914030FA03F31943904001EBCC71002CFD
:1021700001EB0451BDE81040A8BF704701F1C04118
:102180004FF0000001F000417047B0FA80F310FA00
:1021900003F100D110BDE41A173C4805C90AE4E771
:1021A00001EB045110BD491001EB0451BDE8104092
:1021B0004FEA300002E04FF0000170474A0008BFCC
:1021C0000042F8D0B2F5001F28BF704701F000416F
:1021D0004FF0000070479EEA445F07D011EA5E0F9F
:1021E000BDE8104004BF002100207047BDE810404A
:1021F00070B5FFF7CBFE00BF40DFF63E83F0004135
:10220000104670470000E0FF4FF04070E1EE100A0A
:102210007047FF2141EAD050C00570470000000020
:102220000000000001020304060708090000000086
:102230000102030454220008000000201C000000DA
:10224000C4010008702200081C0000200C070000D8
:10225000E001000800000000000000000000000095
:102260000100000010000000000000000024F40045
:040000050800018965
:00000001FF
