:020000040800F2
:1000000038070020890100082B130008E7110008B9
:10001000291300088F020008BF1600080000000026
:100020000000000000000000000000000B140008A9
:100030009102000800000000091400080D140008D7
:10004000A3010008A3010008A3010008A301000800
:10005000A3010008A3010008A3010008A3010008F0
:10006000A3010008A3010008A3010008A3010008E0
:10007000A3010008A3010008A3010008A3010008D0
:10008000A3010008A3010008A3010008A3010008C0
:10009000A3010008A3010008A3010008A3010008B0
:1000A000A301000871140008A3010008A3010008BF
:1000B000A3010008A3010008A3010008A301000890
:1000C000A3010008A3010008A3010008A301000880
:1000D000A3010008A3010008A3010008A301000870
:1000E000A3010008A3010008A301000800F002F822
:1000F00000F03AF80AA090E8000C82448344AAF188
:100100000107DA4501D100F02FF8AFF2090EBAE885
:100110000F0013F0010F18BFFB1A43F0010318473B
:10012000781D0000981D0000103A24BF78C878C1DF
:10013000FAD8520724BF30C830C144BF04680C60ED
:10014000704700000023002400250026103A28BF35
:1001500078C1FBD8520728BF30C148BF0B60704739
:100160001FB51FBD10B510BD00F058F81146FFF7C0
:10017000F7FF01F0F3FA00F076F803B4FFF7F2FFAF
:1001800003BC00F07DF8000009488047094800479B
:10019000FEE7FEE7FEE7FEE7FEE7FEE7FEE7FEE737
:1001A000FEE7FEE704480549054A064B7047000094
:1001B0006F140008ED000008380100203807002007
:1001C00038030020380300204FF0000200B513462A
:1001D00094469646203922BFA0E80C50A0E80C5067
:1001E000B1F12001BFF4F7AF090728BFA0E80C5018
:1001F00048BF0CC05DF804EB890028BF40F8042B11
:1002000008BF704748BF20F8022B11F0804F18BF7D
:1002100000F8012B7047704770477047754600F033
:100220002BF8AE4605006946534620F00700854688
:1002300018B020B5FFF7B6FFBDE820404FF000062C
:100240004FF000074FF000084FF0000B21F00701BE
:10025000AC46ACE8C009ACE8C009ACE8C009ACE801
:10026000C0098D46704710B50446AFF300802046A4
:10027000BDE81040FFF781BF00487047D80000205C
:1002800001491820ABBEFEE7260002007047FEE7DA
:10029000704700002DE9F84FDFF8B8910024A9F16C
:1002A000040B23460F2709F1040AABF1040EC9E041
:1002B0000125A5402A40AA427DD1674ED1F804C04D
:1002C000ACEB0608B44532D014DCBCF1030F3AD0D5
:1002D00009DCBCF1000F2AD0BCF1010F1CD0BCF12D
:1002E000020F31D11DE0BCF1110F17D0BCF1120F7C
:1002F0002AD119E0B8F5881F19D006DCB8F5803F7F
:1003000015D0B8F5801F1FD111E0B8F5001F0ED031
:10031000B8F5041F18D10AE0CB6815E0CB681B1DA7
:1003200012E0CB6808330FE0CB680C330CE08B682D
:100330002BB1012B4FF0080303D0456104E00423E7
:1003400002E0056100E00023FF2A01D8064601E033
:1003500000F104064FEA840501D9A5F12005D6F87D
:10036000008007FA05FC28EA0C0803FA05F548EABC
:100370000508C6F800804D68ED0062D5374DAE69BE
:1003800046F00106AE61AD6924F0030605F00105F3
:100390000095334D06EB050CDCF80850A607360F28
:1003A00007FA06F825EA0805DFF8B880404503D1CA
:1003B0004FF0000817E044E0DFF8AC80404502D180
:1003C0004FF001080FE0DFF8A480404502D14FF064
:1003D000020808E0DFF89880404502D14FF003089A
:1003E00001E04FF0040808FA06F848EA0508CCF8DE
:1003F00008804D68D9F80060ED024D4601D51643DE
:1004000000E096432E604D68DAF80060AD02554674
:1004100001D5164300E096432E604D68DBF800607E
:10042000AD035D4601D5164300E096432E604D684E
:10043000DEF80060ED03754601D5164300E09643F3
:100440002E60641C0D682A46E5407FF431AFBDE89C
:10045000F88F000008040140000011100010024055
:100460000000014000080140000C01400010014064
:10047000001401400AB1016170470904FBE7000064
:1004800001488068704700003800002002488168F9
:10049000027811448160704738000020074810B589
:1004A000016841F010010160032000F075F80F2091
:1004B00000F006F800F024F8002010BD00200240F3
:1004C00070B50D4D04464FF47A712878B1FBF0F009
:1004D0000A490968B1FBF0F000F0BCFA48B9102CE9
:1004E00007D200222146501E00F036F800206C6032
:1004F00070BD012070BD00003800002044000020C5
:100500000C4808B5816941F001018161816901F000
:1005100001010091C16941F08051C161C06900F0E1
:10052000805000900448416821F0E06141F0007182
:10053000416008BD0010024000000140002809DBB6
:1005400000F01F02012191404009800000F1E020ED
:10055000C0F8001170470000F0B40E4B1B680C4649
:10056000C3F30223C3F10705042D00D90425191D87
:10057000072901D2002300E0DB1E012606FA05F15F
:10058000491E214099409E40761E16403143F0BCE2
:1005900001F096B80CED00E0064900F0070208688B
:1005A0004FF6FF03184040EA0220034A1043086058
:1005B000704700000CED00E00000FA052DE9F0475F
:1005C0000F46050061D0434E306800F00700B84286
:1005D00009D2306820F0070038433060306800F0FE
:1005E0000700B84251D128683B4C810712D540071B
:1005F00003D5606840F4E06060602878000703D5A8
:10060000606840F4605060606068A96820F0F000A5
:10061000084360602878C00728D06868012810D097
:100620002168022810D0890700292EDA616821F09C
:10063000030101436160FFF723FF804641F28839DF
:100640000DE021688903EFE78901EDE7FFF718FF67
:10065000A0EB0801494502D90320BDE8F087606896
:10066000696800F00C00B0EB810FEFD1306800F04A
:100670000700B8420BD9306820F0070038433060DB
:10068000306800F00700B84201D00120E5E7287883
:10069000400705D56068E96820F4E06008436060C1
:1006A0002878000706D56068296920F4605040EA80
:1006B000C100606000F018F86168084AC1F30311D6
:1006C000515CC8400649086006480068FFF7F8FE1C
:1006D0000020C2E70020024000100240881E0008EF
:1006E000440000203C0000200E4A51680E4801F0F2
:1006F0000C03042B11D0082B0FD10C48C1F38343FA
:10070000C903C05C0AD55168084AC1F34041921E32
:10071000515C054A5043B0FBF1F07047044948432F
:10072000704700000010024000127A00781E000896
:1007300000093D002DE9F84F040070D02078C04D2D
:10074000C00749D06868C0F38100012807D06868F5
:10075000C0F38100022809D16868C00306D5286863
:10076000800339D560680028E7D035E06068B0F5CF
:10077000803F0BD010B1B0F5A02F11D0286820F425
:1007800080302860286820F4802002E0286840F447
:1007900080302860606890B1FFF772FE06460AE07C
:1007A000286840F480202860F0E700BFFFF768FE6B
:1007B000801B642873D828688003F7D50CE0FFF706
:1007C0005FFE064605E000BFFFF75AFE801B642867
:1007D000F0D828688003F7D420789A4E80074FF02D
:1007E00001094FF0000839D5686810F00C0F07D0E8
:1007F0006868C0F38100022809D16868C00306D484
:100800002868800714D52069012808D110E02069E4
:10081000B0B1C6F80090FFF733FE074605E00AE1E5
:10082000FFF72EFEC01B0228C4D828688007F7D522
:100830002868616920F0F80040EAC10028600DE0F6
:10084000C6F80080FFF71CFE074604E0FFF718FE1D
:10085000C01B022823D828688007F7D42078000717
:100860002CD57948A169D9B1C0F80090FFF708FEEE
:10087000074604E0FFF704FEC01B02280FD8686A91
:100880008007F7D571484FF4FA510068B0FBF1F0DA
:10089000009000BF0098411E0091FAD20EE080E067
:1008A000C0F80080FFF7ECFD074604E0FFF7E8FD25
:1008B000C01B022875D8686A8007F7D420784007E3
:1008C00060D5E8690027C00008D4E86940F080508E
:1008D000E861E869012700F0805000905C480168F9
:1008E000C90513D40168834641F480710160FFF7A4
:1008F000C7FD824606E000BFFFF7C2FDA0EB0A007D
:1009000064284ED8DBF80000C005F5D5E068012862
:100910000AD008B1052813D0286A20F00100286207
:10092000286A20F0040002E0286A40F001002862F2
:10093000E06841F2883B98B1FFF7A2FD82460BE0E8
:10094000286A40F004002862EEE700BFFFF798FD38
:10095000A0EB0A0159455AD8286A8007F6D50CE061
:10096000FFF78EFD824605E0FFF78AFDA0EB0A0146
:1009700059454CD8286A8007F6D41FB1E86920F0A1
:100980008050E861E06988B36968C1F38101022998
:1009900044D00228C6F8608004D0FFF771FD0446F9
:1009A00038E034E0FFF76CFD074604E0FFF768FD30
:1009B000C01B02282BD828688001F7D4206AB0F524
:1009C000803F05D16868A16820F400300843686062
:1009D000D4E908010843696821F474110843686088
:1009E000C6F86090FFF74CFD044606E025E000BF26
:1009F000FFF746FD001B022809D828688001F7D5BB
:100A00001BE000BFFFF73CFD001B022802D90320BA
:100A1000BDE8F88F28688001F4D40EE00128F7D0F3
:100A20006868226A00F48031914204D1616A00F45E
:100A30007010884201D00120EAE70020E8E70000BA
:100A40000010024000004242800442424400002064
:100A50000070004010B5401EB0F1807F01D301202E
:100A600010BD4FF0E02460610F21601700F028FEF8
:100A70000020A06107202061002010BD7047704752
:100A800010B590F83C20012A22D0012280F83C20A9
:100A9000CA688C6822F4407222434C6822F4806257
:100AA00022430C6822F4006222430C6922F4805233
:100AB00022434C6922F400522243C969002322F4E4
:100AC00080420A4301684A6480F83C30002010BD2F
:100AD000022010BD70B590F83C20012A26D00124D8
:100AE00080F83C40022280F83D2003685A689D68E7
:100AF00022F070060A6832435A600D4B02689A422F
:100B000008D0B2F1804F05D00A4B9A4202D00A4B6E
:100B10009A4204D1496825F080031943916080F816
:100B20003D40002180F83C10084670BD022070BD99
:100B3000002C0140000400400008004010B50400F3
:100B400003D094F83D0010B107E0012010BD002053
:100B500084F83C00204600F01FF8022084F83D0095
:100B6000211D206800F08AFC012084F8460084F8EA
:100B70003E0084F83F0084F8400084F8410084F887
:100B8000420084F8430084F8440084F8450084F867
:100B90003D00002010BD000008B500680B498842E8
:100BA00012D10B48816941F40061816180690022A2
:100BB00000F40060009011461920FFF7CDFCBDE85D
:100BC00008401920FFF7BABC08BD0000002C014006
:100BD0000010024090F83D10012901D0012070471B
:100BE000022180F83D100168CA6842F00102CA6023
:100BF00000680B49884208D0B0F1804F05D0094900
:100C0000884202D00849884204D1816801F0070176
:100C1000062903D0016841F00101016000207047FE
:100C2000002C0140000400400008004070B504465C
:100C300090F83C000025012817D0012684F83C607C
:100C4000022084F83D002068826822F0770222F4B6
:100C50007F4282600868502838D00DDC20284FD0B1
:100C600005DC90B3102811D14AE0022070BD302875
:100C700046D040280AD13BE060282FD070280DD004
:100C8000B0F5805F03D0B0F5005F12D0012584F885
:100C90003D60002084F83C00284670BDCB68D1E957
:100CA0000121206800F033FC2068816841F0770161
:100CB00009E0CB68D1E90121206800F028FC206818
:100CC000816841F480418160E1E719E0CA684968C0
:100CD000206800F0D1FC5021206806E0CA6849680D
:100CE000206800F0DAFC6021206800F01AFCCEE7F2
:100CF000CA684968206800F0BFFC40212068F4E71A
:100D0000226801461046F0E72DE9F0410D46040047
:100D100003D094F83D0018B108E00120BDE8F0814F
:100D2000002084F83C00204600F040F8022084F8BF
:100D30003D002068816844F2070291438160211DD3
:100D4000206800F09BFB226890689169166A2B6806
:100D5000AF69034340F20330814341EA0721A868A9
:100D6000EF6908434FF6FC418843E96840EA0720F1
:100D7000014328692F6A000140EA07300843696887
:100D80006D6926F0220646EA05152943936022681C
:100D9000906154F8460B0162012004F81F09E075C8
:100DA0002076E0762077A0750020B7E700B585B003
:100DB000002100910191029103910068B0F1804FF0
:100DC00016D10C48C16941F00101C161C16901F04E
:100DD00001010491816941F00401816180696946E2
:100DE00000F004000490032000900348FFF752FA3B
:100DF00005B000BD001002400008014070B590F839
:100E00003E60044690F83F5090F8423090F84320FE
:100E1000022021B104290ED0012E1BD114E0012E95
:100E200018D1012B16D184F83E0084F8420001222B
:100E30000021206820E0012D0CD1012A0AD184F87C
:100E40003F0084F8430014E0012D03D1012B01D1B0
:100E5000012A01D0012070BD84F83E0084F83F00D3
:100E600084F8420084F8430001220021206800F049
:100E700041FB01220421206800F03CFB206801684E
:100E800041F001010160002070BD70472DE9F04183
:100E900004460068C66805694FF00007A90713D526
:100EA000B10711D5F91E0161012020772068806902
:100EB0008007204602D0FFF7E8FF04E000F0A4F826
:100EC000204600F036F92777680716D5700714D545
:100ED00021686FF004000861022020772068806993
:100EE00010F4407F204602D0FFF7CFFF04E000F06F
:100EF0008BF8204600F01DF92777280715D5300715
:100F000013D521686FF0080008610420207720685D
:100F1000C0698007204602D0FFF7B7FF04E000F069
:100F200073F8204600F005F92777E80616D5F00695
:100F300014D521686FF01000086108202077206820
:100F4000C06910F4407F204602D0FFF79EFF04E006
:100F500000F05AF8204600F0ECF82777E80708D0B0
:100F6000F00706D021686FF001000861204600F00C
:100F70002FF9280608D5300606D521686FF08000C5
:100F800008612046FFF77AFD680608D5700606D589
:100F900021686FF040000861204600F023F9A806A0
:100FA0000AD5B00608D521686FF0200008612046F8
:100FB000BDE8F041FFF763BDBDE8F08100B585B045
:100FC0000021009101910291039100680B49884230
:100FD00012D10B48816941F0040181618069694641
:100FE00000F0040004904FF4407000900220019043
:100FF00003900448FFF74EF905B000BD002C0140F6
:101000000010024000080140704770B5044690F897
:101010003C0000260D4601280FD0012084F83C003A
:101020006AB1042A1DD0082A2FD00C2A3FD00126ED
:10103000002084F83C00304670BD022070BD20685E
:1010400000F078FA2068816941F008018161206828
:10105000816921F004018161206881692A69114355
:1010600011E0206800F08EFA2068816941F4006187
:1010700081612068816921F48061816120688169D2
:101080002A6941EA02218161D2E7206800F0A6FACC
:101090002068C16941F00801C1612068C16921F07F
:1010A0000401C1612068C1692A69114311E0206807
:1010B00000F0C0FA2068C16941F40061C161206894
:1010C000C16921F48061C1612068C1692A6941EA6E
:1010D0000221C161ACE710B5040003D094F83D00D3
:1010E00010B107E0012010BD002084F83C0020462C
:1010F00000F01EF8022084F83D00211D206800F059
:10110000BDF9012084F8460084F83E0084F83F00D1
:1011100084F8400084F8410084F8420084F84300D9
:1011200084F8440084F8450084F83D00002010BD98
:101130007047704710B50446022249B104290ED009
:10114000082913D094F84100012816D0012010BDC1
:1011500094F83E000128F9D184F83E200FE094F87D
:101160003F000128F2D184F83F2008E094F84000C5
:101170000128EBD184F8402001E084F841200122CD
:10118000206800F0B7F90F492068884203D1426C0B
:1011900042F4004242642068884208D0B0F1804F97
:1011A00005D00949884202D00849884204D18168A3
:1011B00001F00701062903D0016841F00101016037
:1011C000002010BD002C0140000400400008004039
:1011D00000680349884202D1502000F0A7B8704748
:1011E000002C01407047FEE710B596B000240F9424
:1011F00010941194129413941C2168461494FEF7D1
:10120000E3FF202107A8FEF7DFFF2C482A490160F1
:1012100040F6FB21C0E90114FF21C0E90314446139
:101220008461FFF78BFC08B172B6FEE74FF4805083
:101230000F900FA92148FFF7F9FC08B172B6FEE73D
:101240001E48FFF748FF08B172B6FEE7139413A9D2
:101250001A481494FFF73EFC08B172B6FEE760200E
:10126000CDE9000402940394049405940022694695
:1012700012480694FFF7C9FE08B172B6FEE70422D1
:1012800069460E48FFF7C1FE08B172B6FEE7079443
:10129000089409944FF400500A94CDE90B4007A933
:1012A00006480E94FFF7ECFB08B172B6FEE7034860
:1012B000FFF784FE16B010BD002C0140480000204E
:1012C00010B58CB024216846FEF77EFF0024154837
:1012D00009944FF080410A94C0E900144FF6FF7161
:1012E000C0E90241046184610120CDE90004CDE937
:1012F00002040494CDE9054007946946094808941E
:10130000FFF702FD08B172B6FEE7099409A9054886
:101310000A94FFF7DFFB002801D072B6FEE70CB09D
:1013200010BD000090000020FEE7FEE72DE9F04729
:10133000824600F05BFA314C6080B4F9020000F0A4
:10134000CFF905466062504600F0AEFB294600F03A
:10135000ADFC206261680546894600F0A7FC616922
:1013600000F0CEFB0746A0624946284600F052FA3C
:1013700006464FF0FF31A06900F03FFDDFF88080A6
:10138000414600F0BDFB314600F0BAFB0646E06284
:101390000121484600F031FD294600F07DFCA1689E
:1013A00000F038FA05464146E06900F09BFA29460C
:1013B00000F0A6FB054620633946E06800F02AFAF3
:1013C000314600F027FA294600F024FA00F04CFBE1
:1013D0002070BAF1000F01DB002000E0012000F0D6
:1013E000A3F908492078096848636168A160216A07
:1013F000616000F071FBE060BDE8F0870000002054
:101400000AD7233C4800002070477047FFF73EB8DA
:1014100030B58FB028216846FEF7D6FE14210AA801
:10142000FEF7D2FE01210804CDE900100024029449
:1014300002250491CDE907504FF4E0100990684669
:10144000FFF778F908B172B6FEE70F20CDE90A057B
:101450004FF48060CDE90C4002210AA80E94FFF7FA
:10146000ADF8002801D072B6FEE70FB030BD70476E
:101470000148FFF70BBD000048000020F0B50268EE
:10148000194B1A4C1A4D4FF08047984205D0B8427C
:1014900003D0A04201D0A84203D122F070064A68CE
:1014A0003243984205D0B84203D0A04201D0A842AE
:1014B00003D122F44074CA6822434C6922F08002AE
:1014C000224302608A68C2620A688262984201D13D
:1014D00009690163012141610169C90703D00169FB
:1014E00021F001010161F0BD002C01400004004029
:1014F0000008004010B501F01F030121046A994063
:101500008C430462016A9A401143016210BD10B518
:10151000846842EA032224F47F440A43224382601F
:1015200010BD826822F070020A4342F00701816018
:101530007047000030B5036A026A22F001020262BD
:101540004268846924F073050C682C4323F002057B
:101550008B682B430A4DA8420BD123F00805CB68BA
:1015600022F440722B434D6923F0040315438A692A
:101570002A434260846149684163036230BD0000D0
:10158000002C014030B5026A036A23F010030362A5
:10159000436884690D6824F4E64444EA05248D68B0
:1015A00022F0200242EA05120B4DA8420ED1CD686E
:1015B00022F0800242EA05124D6923F4406343EAB7
:1015C00085038D6922F0400243EA8503436084610C
:1015D00049688163026230BD002C014030B5036A66
:1015E000026A22F4807202624268C46923F40073C2
:1015F00024F073050C682C438D6843EA05230C4DD9
:10160000A8420ED1CD6823F4006343EA05234D6957
:1016100022F4405242EA05128D6923F4806342EAC3
:1016200005124260C4614968C163036230BD0000B5
:10163000002C014030B5046A026A22F48052026232
:101640004268C3690D6823F4E64343EA05238D68C5
:1016500024F4005444EA0534064DA84204D14D69EF
:1016600022F4804242EA85124260C3614968016403
:10167000046230BD002C014010B5036A046A24F0F6
:1016800001040462846924F0F00444EA021423F0A3
:101690000A020A438461026210BD10B5036A046A3B
:1016A00024F010040462846923F0A00324F470443D
:1016B00044EA023243EA01118261016210BDFEE791
:1016C0000907090E002804DB00F1E02080F800146F
:1016D000704700F00F0000F1E02080F8141D704703
:1016E00070B50E4C05462069281A00F0DDF94FF060
:1016F0008F416063B0F18E4F02DD00F0D7FA04E055
:10170000B0F1474F02D900F085F86063044900F05A
:10171000F7F9044900F0E6F8256170BD00000020EB
:101720000000704299991D4170B54FF480610A4CD8
:101730004D0028B101222046FEF79CFE002204E065
:1017400000222046FEF796FE012229462046BDE8EB
:101750007040FEF78FBE00000008014086B0FEF723
:101760009DFEFFF755FE00241D480094019402944D
:101770000394816941F020018161816901F02001B8
:101780000491816941F0040181618069154E00F086
:1017900004004FF440650490002229463046FEF7CD
:1017A00069FE01200095CDE90104022003906946FD
:1017B0003046FEF76FFDFFF717FDFFF781FD0A4882
:1017C000FFF708FA08483C214830FFF717FB0021D3
:1017D0000548FFF7AFFC0449FF2009684863FEE7AE
:1017E000001002400008014048000020084801683D
:1017F000486A4FF4004280B2904201D3A0F5803095
:10180000904202DA10F5004F01DC00204862704778
:101810009000002090EA010F48BF81F0004100F1E4
:101820004C82421A3CBF801A89184FEAD0524FF0BE
:101830007F4C1CEA410FA2EBD15318BF9CEA026F08
:1018400000F03B804FF0004C4CEA00204CEA0121B4
:1018500021FA03FC10EB0C0C1ED202F1FF325FEAFE
:101860001C2040EBC25038BF70471CF07F0F4FEA7E
:10187000400C18BFBCF17F4F38BF7047C3F1200345
:10188000994008BF20F00100BCF17F4F38BF70477E
:10189000A0F1C04000F0FBB94FEA3C00000A40EB69
:1018A000C25028BF1CF0FF0F4FEA400CE6D018BF13
:1018B000BCF17F4F38BF7047EAE79CEA026F05D062
:1018C00010EA5C0F08BF00F00040704710B500F050
:1018D00098F900BF64FBBE3E014800F05CBA00BF4F
:1018E0000000C07F4FF47F0C1CEAD0121EBF1CEA20
:1018F000D11392EA0C0F93EA0C0F00F0858090EA66
:10190000010F48BF42F4807240F4000C41F4000023
:101910002CF07F4120F07F4000B58142A2EB030212
:101920000FF2081CACEB504EC0F100009EF800E036
:101930004FEA4E0E00FB0EFC38BF49004FEA2C1C4C
:1019400002F5FA020CFB0EF34FEACE1E4FEA112C01
:101950004FEAC1210EEB635E42EB22420EFB0CFC10
:101960004FEA1C5300FB03114FEA112C4FEA0131DF
:101970000EFB0CFC4FEADC4C00FB0C11C14228BFF3
:1019800009184CEB03335DF804EB10EB410143EB1A
:10199000C250B2F57C0F38BF704729D512F0F00F56
:1019A0001CBF00F1C04000F00040704700818283FE
:1019B0008485868788898B8C8D8E8F91929395965E
:1019C00097999A9C9D9FA0A2A3A5A7A8AAACAEB0E8
:1019D000B2B3B5B7B9BCBEC0C2C5C7C9CCCED1D4ED
:1019E000D7D9DCDFE2E6E9ECF0F3F7FAFE0000001D
:1019F0004FEA400C0CF1807CBCF17E4F28BF704751
:101A0000B0F1C04000F043B990EA010F0CEAD113E5
:101A100048BF42F48072624538BF634507D213F471
:101A20007F0F16D080EA010000F00040704710B52B
:101A300000F0E7F8097EFC3E00F005B880EA0100FE
:101A400000F00040704780EA010000F0004000F024
:101A50001EB912F47F0F04BF0248704780EA0100EC
:101A600000F015B90000C07FC10DD1F19E0206DB68
:101A70004FEA002343F0004323FA02F0704700428C
:101A800007D54FEA4001B1F1FE4F02D24FF00000FE
:101A9000704710B500F0B5F84992248000207047D7
:101AA0006FEA20007047000010F0004148BF40423C
:101AB000B0FA80F310FA03F2C3F19D030BD051EAA0
:101AC000C35101EB1220530638BF704700F10100EB
:101AD00008BF20F001007047B0FA80F310FA03F25B
:101AE000C3F19D030AD0D90501EB1220530638BF7C
:101AF000704700F1010008BF20F0010070470000AE
:101B00004FF47F0C1CEAD0121EBF1CEAD11392EADC
:101B10000C0F93EA0C0F00F0478090EA010F48BFCA
:101B200042F480724FF0004C4CEA00204CEA012154
:101B300002EB0302A0FB0113A2F50002002918BF6B
:101B400043F001035B0028BF4FEA330342EB22421C
:101B50005FEA132C4CEBC2502EBFBCEB436FB2F5C7
:101B60007C0F70474FEA036CBCF1004F08BF20F0B8
:101B70000100B2F57C0F38BF70470BD582F0FF0231
:101B800012F5803FC8BF704700F1C040D8BF00F0D9
:101B90000040704700F5000C5FEA4C0C48BF7047EE
:101BA000B0F1C04000F073B890EA010F0CEAD11315
:101BB00048BF42F48072624538BF634504D280EA70
:101BC000010000F00040704710B500F01AF800BFA7
:101BD0008900013E00F007B800F009B85FEA410C47
:101BE0005FEA1C6C08D080EA010000F050B85FEAA0
:101BF000400C5FEA1C6CF6D14FF00040A0F580006D
:101C000070470EF1020E2EF0030E5EF8044B2442D4
:101C100004D44FEA4102B2F17F4F11D84FEA40039A
:101C2000B3F17F4F0CD80ED14FEAD07CB2F17F4F89
:101C30000CEB4C0C0CF1020C08BF4CEBD17C04E01B
:101C40004FF0080C01E04FEAD17C0CEB4C0324FA76
:101C500003F404F00704B4F1040C06D20EEB840C78
:101C6000BDE810404CF0010C6047DFE80CF00708BD
:101C700002024FF00040A0F5800010BD084642006F
:101C800018BFD2F1807288BF00F0004010BDFF2164
:101C900041EAD050C005704780F0004090EA010F43
:101CA0007FF5BFAD81F0004100F007B890EA010F69
:101CB00048BF81F000413FF5B4AD421A04D882F02C
:101CC0000042A0EB020011444FEAD0524FF07F4C8B
:101CD0001CEA410FA2EBD15318BF9CEA026F4AD015
:101CE0004FF0004C4CEA00204CEA012121FA03FCA1
:101CF000B0EB0C0C0FD412F0FE0F36D05FEA4C00A4
:101D00001DD5001240EBC25038BF70471CF03F0F8A
:101D100018BF70470BE0A2F101025FEA1C2040EB04
:101D2000C25038BF70471CF07F0F18BF7047C3F117
:101D30002003994014BF401E20F001007047800826
:101D40004FEA122308BF7047B0FA80FCA2EB0C02E6
:101D5000CCF1280C60FA0CF093EA122F04BF00EBD0
:101D6000C25070474FEAC3707047130A5FEADC1035
:101D700008BF7047F6E79CEA026F04D010EA5C0FD8
:101D800008BF0020704710B5FFF73BFF40DFF63E6D
:101D900081F0004070470CF00F03092B08BF0820AA
:101DA00000F051800A2B0BD0082B18BF704708BFDA
:101DB0001CF0400F0AD04FF000004FF000017047B8
:101DC0001CF0400F18BF4FF0004070471CF0100F80
:101DD00008D020F0704300F07F4242EAD3014FEA7E
:101DE0004370704700F0604021F07F4242EA0002F9
:101DF00001F07F4040EA727070474FF0FF0212EA34
:101E0000D0521CBF92F0FF038B42C2BFD14200EB05
:101E1000C1507047002A0AD0002B0BD0002900F0D7
:101E20000040A4BF40F0FE4040F40000704700F0C6
:101E30000040704743024FF00B0C18BF4CF0806C11
:101E40007FF44AAD70471CF4801F11D01CF4E02FC2
:101E500003D06FEACC31490070474FF04050EFF3A8
:101E6000008222F0704242EA000282F3008870474A
:101E70004FF000007047010202030405060708093D
:101E80000A0B0C0D0E0F10100000000000000000E7
:101E90000102030406070809B81E0008000000201C
:101EA0004800000028010008001F0008480000202A
:101EB000F0060000440100080000000000000000DF
:101EC0000000000000000000000000000000A04032
:101ED0000000A04347034040000000000000000055
:101EE00000000000000000000000000000000000F2
:101EF00001000000100000000000000000127A0045
:04000005080000ED02
:00000001FF
