:020000040800F2
:10000000C8060020290200080F1000081F0F000872
:100010000D1000081F040008E11100080000000096
:10002000000000000000000000000000391100087E
:100030002104000800000000111000083B11000816
:10004000430200084302000843020008430200087C
:10005000430200084302000843020008430200086C
:10006000430200084302000843020008430200085C
:10007000430200084302000843020008430200084C
:10008000430200084302000843020008430200083C
:10009000430200084302000843020008430200082C
:1000A000430200084302000843020008430200081C
:1000B000430200084302000843020008430200080C
:1000C00043020008430200084302000843020008FC
:1000D00043020008430200084302000843020008EC
:1000E00043020008430200084302000843020008DC
:1000F00043020008430200084302000843020008CC
:1001000043020008430200084302000843020008BB
:1001100043020008430200084302000843020008AB
:10012000430200084302000843020008430200089B
:10013000430200084302000843020008430200088B
:10014000430200084302000843020008430200087B
:10015000430200084302000843020008430200086B
:10016000430200084302000843020008430200085B
:100170004302000843020008430200080000000098
:10018000430200084302000800F002F800F03CF8C7
:100190000AA090E8000C82448344AAF10107DA45E2
:1001A00001D100F031F8AFF2090EBAE80F0013F0F8
:1001B000010F18BFFB1A43F001031847CC130000CE
:1001C000EC130000103A24BF78C878C1FAD852075F
:1001D00024BF30C830C144BF04680C6070470000C1
:1001E0000023002400250026103A28BF78C1FBD840
:1001F000520728BF30C148BF0B6070471FB501F0E0
:10020000B5F91FBD10B510BD00F0CFF81146FFF7CE
:10021000F5FF01F01DF800F0EDF803B4FFF7F2FF71
:1002200003BC00F0F5F80000094880470948004782
:10023000FEE7FEE7FEE7FEE7FEE7FEE7FEE7FEE796
:10024000FEE7FEE704480549054A064B70470000F3
:10025000D111000889010008C8000020C80600204C
:10026000C8020020C802002053EA020C00F0698096
:100270002DE9F04B4FF00006002B1FBFB3FA83F5BA
:1002800003FA05F424FA05F65E4012BF1643B2FAEB
:1002900082F502FA05F4C5F120051EBF22FA05FC1D
:1002A00044EA0C04203556EA044C4FEA144418BFC3
:1002B000641C4FF000084FF00009904271EB030CF2
:1002C00039D3002919BFB1FA81F701FA07F6B0FA5C
:1002D00080F700FA07F6C7F120071EBF20FA07FCD7
:1002E00046EA0C062037B6FBF4FCA7EB0507103FE7
:1002F00007F01F0BCBF120060CFA0BFB2CFA06F6CD
:1003000044BFB3460026202FA4BF5E464FF0000B2B
:100310005BEA060C08BF4FF0010B19EB0B09ABFBB6
:10032000027C48EB0608C01B06FB02CC0BFB03CC8F
:1003300071EB0C01C1E70B46024641464846BDE859
:10034000F08B13B54FF000004FF00001AFF30080C9
:10035000BDE81C4070474FF0000200B513469446BC
:100360009646203922BFA0E80C50A0E80C50B1F10D
:100370002001BFF4F7AF090728BFA0E80C5048BF21
:100380000CC05DF804EB890028BF40F8042B08BFBF
:10039000704748BF20F8022B11F0804F18BF00F8BB
:1003A000012B7047704770477047754600F02CF876
:1003B000AE4605006946534620F00700854618B052
:1003C00020B5FFF73FFFBDE820404FF000064FF09B
:1003D00000074FF000084FF0000B21F00701AC467A
:1003E000ACE8C009ACE8C009ACE8C009ACE8C00999
:1003F0008D46704710B50446AFF300802046BDE837
:100400001040FFF70ABF0000004870476800002056
:1004100001491820ABBEFEE7260002007047FEE748
:100420007047000070B5044600F00CF90546601CEA
:1004300002D004480078044400F004F9401BA042B4
:10044000FAD370BD000000202DE9F84FDFF8BCA101
:100450000022012503264FF00F090AF1040BAAF12F
:10046000040E00BF0B6805FA02F42340A34270D1CA
:100470000F7907F00307012F01D0022F16D18768EB
:100480004FEA420806FA08FC27EA0C07D1F80CC02C
:100490000CFA08FC4CEA070CC0F808C04768A743F0
:1004A0000C79C4F3001494403C4344600C79E44359
:1004B000A4070AD0C4684FEA420C06FA0CF7BC4302
:1004C0008F6807FA0CF72743C7600C7904F0030420
:1004D000022C12D1D40800EB840CDCF82040570722
:1004E000FF0E09FA07F824EA0804D1F8108008FA88
:1004F00007F848EA0408CCF8208004684FEA420C68
:1005000006FA0CF7BC430F7907F0030707FA0CF75C
:10051000274307604C6814F4403F70D03C4C276878
:1005200047F480472760246822F0030704F48044DE
:100530000094384C07EB040CDCF8084897074FEAA6
:10054000177809FA08F7BC43334FB84202D10027A5
:1005500024E054E0314FB84201D101271EE0304F72
:10056000B84201D1022719E02E4FB84201D103272A
:1005700014E02D4FB84201D104270FE02B4FB842B1
:1005800001D105270AE02A4FB84201D1062705E02C
:10059000284FB84201D1072700E0082707FA08F7DB
:1005A0002743CCF80878DAF800405746D1F804C061
:1005B0009C435FEACC2C00D51C433C60DBF8004038
:1005C0005F46D1F804C09C435FEA8C2C00D51C43E5
:1005D0003C60DEF800407746D1F804C09C435FEAF7
:1005E0008C3C00D51C433C60084F083F3C68D1F868
:1005F00004C09C435FEACC3C00D51C433C60521CC9
:10060000102AFFF42FAFBDE8F88F0000083C01402E
:100610004438024000300140000002400004024023
:1006200000080240000C024000100240001402408A
:1006300000180240001C02400AB1816170470904A1
:10064000FBE70000014880687047000000000020C0
:1006500002488168027811448160704700000020E0
:100660000B4810B5016841F400710160016841F464
:1006700080610160016841F480710160032000F035
:1006800061F80F2000F006F800F024F8002010BDFB
:10069000003C024070B50D4D04464FF47A71287845
:1006A000B1FBF0F00A490968B1FBF0F000F023FC5F
:1006B00048B9102C07D200222146501E00F022F823
:1006C00000206C6070BD012070BD000000000020A3
:1006D0000C0000200A4808B5016841F4804101601F
:1006E000006800F4804000900548001F016841F058
:1006F00080510160006800F08050009008BD00004B
:1007000044380240F0B40E4B1B680C46C3F302237E
:10071000C3F10705042D00D90425191D072901D2AD
:10072000002300E0DB1E012606FA05F1491E2140E8
:1007300099409E40761E16403143F0BC00F051BDFA
:100740000CED00E0064900F0070208684FF6FF03D1
:10075000184040EA0220034A104308607047000036
:100760000CED00E00000FA052DE9F0470E4605000B
:1007700065D0DFF81481D8F80000F7B200F0070068
:10078000B04207D288F80070D8F8000000F00700E7
:10079000B04254D128683D4C810712D5400703D59B
:1007A000206840F4E05020602878000703D52068D6
:1007B00040F4604020602068A96820F0F000084301
:1007C00020602878C0072DD0304968680839012892
:1007D00012D0022813D0032811D0096889070029F4
:1007E0002DDA216821F0030101432160FFF72AFF80
:1007F000814641F2883A0EE009688903EFE709680B
:100800008901ECE7FFF71EFFA0EB0901514502D972
:100810000320BDE8F0872068696800F00C00B0EBA9
:10082000810FEFD1D8F80010404601F00701B14226
:1008300007D90770006800F00700B04201D001201E
:10084000E7E72878400705D52068E96820F4E050FC
:10085000084320602878000706D52068296920F41D
:10086000604040EAC100206000F018F82168084AA2
:10087000C1F30311515CC84006490860064800688E
:10088000FFF708FF0020C4E7003C024008380240A0
:10089000761500080C00002004000020154810B553
:1008A000006810F00C02144813D01449042A0FD029
:1008B000082A0ED10F4C241F2268236802F03F0241
:1008C0005B0207D52068C0F38810A0FB010106E099
:1008D000084610BD2168C1F38811A1FB0001002367
:1008E000FFF7C2FC2168C1F30141491C4900B0FB7C
:1008F000F1F010BD083802400024F40040787D017A
:100900002DE9F84F04006ED02078DFF84C93C00733
:10091000A9F104054AD009F104000168C1F381017D
:10092000012908D00068C0F3810002280AD1D9F853
:100930000000400206D52868800337D5606800288B
:10094000E1D033E06068B0F5803F10D0B0F5A02F63
:10095000286810D020F480302860286820F4802097
:1009600028606068A8B1FFF76DFE06460DE02868B4
:1009700040F48030F4E740F480202860F7E700BFBF
:10098000FFF760FE801B642873D828688003F7D5C2
:100990000CE0FFF757FE064605E000BFFFF752FEEA
:1009A000801B6428F0D828688003F7D42078DFF80B
:1009B000AC8280074FF0000A3ED5A748001D0168B1
:1009C00011F00C0F08D00068C0F3810002280BD191
:1009D000D9F80000400207D42868800716D5E068DF
:1009E000012800D112E033E1E068B8B10120C8F875
:1009F0000000FFF727FE064605E000BFFFF722FED6
:100A0000801B0228C0D828688007F7D5286821698C
:100A100020F0F80040EAC10028600DE0C8F800A00E
:100A2000FFF710FE064604E0FFF70CFE801B0228CD
:100A30001FD828688007F7D42078000722D5864F72
:100A400087486169703771B101210160FFF7FAFDD4
:100A5000064604E0FFF7F6FD801B022809D8386837
:100A60008007F7D50EE0C0F800A0FFF7EBFD0646C3
:100A700005E082E0FFF7E6FD801B02287DD838689C
:100A80008007F7D42078400768D5DFF8CCB100277D
:100A90000BF13C0BDBF80000C0000BD4DBF80010BE
:100AA00041F08051CBF80010DBF80000012700F086
:100AB000805000906B4E3068C00510D4306840F410
:100AC00080703060FFF7BEFD009005E0FFF7BAFDD3
:100AD0000099401A022850D83068C005F6D55E4EFD
:100AE000A0686C3601280FD00528306810D020F09F
:100AF00001003060306820F004003060A068B8B1B8
:100B0000FFF7A0FD00900FE0306840F00100F4E72F
:100B100040F004003060F7E7FFF794FD0099411AB8
:100B200041F28830814266D830688007F4D50EE003
:100B3000FFF788FD009007E0FFF784FD0099411A58
:100B400041F28830814256D830688007F4D42FB102
:100B5000DBF8001021F08051CBF80010A069C8B379
:100B60003D49091D0968C1F3810102294AD00228C3
:100B7000504607D0C8F8600000E03CE0FFF762FD97
:100B800004463BE04746C8F86000FFF75BFD0646B9
:100B900005E000BFFFF756FD801B02282BD8286810
:100BA0008001F7D4D4E907010843A16A2E4A490815
:100BB00002EB0141626A41EA8211084394F82C1069
:100BC00040EA0161C9F8001001203866FFF73AFDDC
:100BD000044606E03EE000BFFFF734FD001B02289C
:100BE00009D828688001F7D534E000BFFFF72AFD57
:100BF000001B022802D90320BDE8F88F2868800175
:100C0000F4D427E00128F7D0D9F80000E26900F415
:100C1000800191421CD1226A00F03F01914217D11C
:100C200047F6C071626A0140B1EB821F10D1A26A1F
:100C30004FF0FF3300F4403103EB5202B1EB024FAF
:100C400006D194F82C1000F07060B0EB016F01D069
:100C50000120D1E70020CFE70438024000004742DE
:100C6000800E4742007000400000FFFF70B5040096
:100C700009D0606A002540B125616561A56294F8DC
:100C8000510040B10CE0012070BD6068B0F5827F7A
:100C9000F4D0E561F2E784F85050204600F044F8C3
:100CA000022084F851002068016821F040010160B1
:100CB000A088218900F4827001F404410843A189CD
:100CC00001F400610843217C01F002010843217D09
:100CD00001F001010843218B01F400710843217FD9
:100CE00001F03801084394F8201001F08001084316
:100CF000218D01F40051084321680860A069042196
:100D000001EA104094F8241001F010010843216812
:100D100048602068C16921F40061C16165650120F6
:100D200084F85100002070BD10B586B0044614212F
:100D30006846FFF710FB13492068884220D112480B
:100D40000021026842F480520260006800F4805082
:100D500005900D481438026842F0010202600068F4
:100D600000F001000590E02000900220CDE9010193
:100D7000032003900520049069460448FFF764FBB4
:100D800006B010BD0030014044380240000002406F
:100D90002DE9F84F984616468A460446FFF752FC5E
:100DA000814694F8510001281ED1BAF1000F73D08A
:100DB000002E71D094F85000012815D0012784F836
:100DC0005070032084F8510000256565C4F830A0F8
:100DD000A686E686A563A587E58765642564A06881
:100DE000B0F5004F03D00CE00220BDE8F88F20687A
:100DF000016821F0400101602068016841F48041F0
:100E0000016020680168490603D4016841F040018F
:100E10000160E068B0F5006F606803D048B3012E50
:100E200027D047E008B1012E1FD1206B2168008830
:100E3000C86006E020688168890709D5216B0988A8
:100E4000C160206B801C2063E08E401EE0860CE0B9
:100E5000FFF7F8FBA0EB0901414503D3B8F1FF3FD1
:100E600003D035E0B8F1000F32D0E08E0028E1D198
:100E700023E0206B21680078087306E02068816811
:100E800089070AD5216B09780173206B401C206308
:100E9000E08E401EE0860DE02BE0FFF7D3FBA0EBD9
:100EA0000901414503D3B8F1FF3F03D010E0B8F189
:100EB000000F0DD0E08E0028E0D14A464146204682
:100EC00000F0A8F808B120206065A06830B109E002
:100ED00084F8517084F85050032086E72068C16878
:100EE0008068009084F8517004F8505F60680028B2
:100EF000F3D0012079E710B5401EB0F1807F01D317
:100F0000012010BD4FF0E02460610F21601700F058
:100F100068F90020A06107202061002010BDFEE7D5
:100F20002DE9F04186B014216846FFF714FA2348F2
:100F30000024016841F010010160016801F0100116
:100F40000591016841F004010160016801F00401AC
:100F50000591016841F080010160016801F08001A4
:100F60000591016841F0010101600068144F00F033
:100F700001000590002220213846FFF75DFBDFF8D5
:100F800044804FF42046002231464046FFF754FB90
:100F9000202000900125CDE901546946384603948C
:100FA000FFF752FA0096CDE9015469464046039492
:100FB000FFF74AFA06B0BDE8F08100003038024081
:100FC00000100240000802400F4810B50D490160B2
:100FD0004FF48271416000218160C1604FF4007262
:100FE0000161C0E905120822C0E90721416281625E
:100FF0000A21C162FFF73AFE002801D072B6FEE76F
:1010000010BD00000030014010000020FEE7FEE7A8
:1010100070470000F8B515460E460B460092044690
:101020000122022100F02CF8A0B9134813490068EE
:10103000B0FBF1F04FF47A71484300906068B0F56E
:10104000827F0DD13346002280212046009500F09A
:1010500017F870B1606D40F0200060650320F8BDA6
:10106000009830B1401E009020688068C0430006A0
:10107000F6D50020F8BD00000C00002000366E01FF
:101080002DE9F8431E46914688460446089DFFF721
:10109000D9FA401B351AFFF7D5FA074625480068EC
:1010A000C0F3CB30684338E0701C37D0FFF7CAFA82
:1010B000C01BA84203D215B1009860B32CE0206891
:1010C000416821F0E00141606068B0F5827F0BD19A
:1010D000A068B0F5004F02D0B0F5806F04D1206851
:1010E000016821F040010160A06AB0F5005F09D1FC
:1010F0002068016821F4005101602068016841F412
:1011000000510160012084F85100002084F8500053
:101110000320BDE8F8830025401E00902068816808
:1011200038EA010004D000214945BDD10020F0E794
:101130000121F9E70C0000207047FFF789BA000091
:1011400030B593B030216846FFF705F914210CA89B
:10115000FFF701F91C480025016841F0805101604A
:10116000006800F0805011901848016841F48041F7
:1011700001600068022400F480401190012000907A
:10118000000401908001CDE90640192008909020CC
:10119000CDE9090404200B906846FFF7B1FB08B1C4
:1011A00072B6FEE70CA90F2081E831004FF48050A1
:1011B000CDE90F0502210CA8FFF7D6FA002801D0CF
:1011C00072B6FEE713B030BD4038024000700040F8
:1011D0000248016841F470010160704788ED00E049
:1011E000FEE70907090E002804DB00F1E02080F883
:1011F0000014704700F00F0000F1E02080F8141D8B
:10120000704700002DE9F047DFF8409005464FF4A5
:101210000048002241464846FFF70EFA2C2000F015
:1012200061F900244FF448572E0AE8B200F07CF927
:10123000304600F079F9641CA4B2BC42F5D34146B3
:101240004846BDE8F0470122FFF7F6B90008024022
:10125000FFF706FAFFF774FFFFF762FEFFF7B4FE31
:1012600000F02CF84FF47840FFF7CCFFFEE72DE9B3
:10127000F04104461D4616460F462A2000F032F97A
:10128000002000F051F9204600F04EF9002000F057
:101290004BF9304600F048F92B2000F023F90020EC
:1012A00000F042F9384600F03FF9002000F03CF928
:1012B0002846BDE8F04100F037B9000070B5884C11
:1012C0004FF40055002229462046FFF7B5F9322099
:1012D000FFF7A8F8012229462046FFF7ADF9322092
:1012E000FFF7A0F8AD00002229462046FFF7A4F939
:1012F000012000F0F7F89620FFF794F8112000F095
:10130000F1F89620FFF78EF8B12000F0EBF80520F9
:1013100000F00AF93C2000F007F93C2000F004F945
:10132000B22000F0DFF8052000F0FEF83C2000F0CD
:10133000FBF83C2000F0F8F8B32000F0D3F80520CB
:1013400000F0F2F83C2000F0EFF83C2000F0ECF860
:10135000052000F0E9F83C2000F0E6F83C2000F021
:10136000E3F8B42000F0BEF8032000F0DDF8C02060
:1013700000F0B8F8282000F0D7F8082000F0D4F8E2
:10138000042000F0D1F8C12000F0ACF8C02000F03B
:10139000CBF8C22000F0A6F80D2000F0C5F8002020
:1013A00000F0C2F8C32000F09DF88D2000F0BCF8DA
:1013B0002A2000F0B9F8C42000F094F88D2000F045
:1013C000B3F8EE2000F0B0F8C52000F08BF81A203A
:1013D00000F0AAF8E02000F085F8042000F0A4F85E
:1013E000222000F0A1F8072000F09EF80A2000F06B
:1013F0009BF82E2000F098F8302000F095F825207A
:1014000000F092F82A2000F08FF8282000F08CF8E5
:10141000262000F089F82E2000F086F83A2000F00F
:1014200083F8002000F080F8012000F07DF8032010
:1014300000F07AF8132000F077F8E12000F052F87D
:10144000042000F071F8162000F06EF8062000F07D
:101450006BF80D2000F068F82D2000F065F82620CC
:1014600000F062F8232000F05FF8272000F05CF81D
:10147000272000F059F8252000F056F82D2000F024
:1014800053F83B2000F050F8002000F04DF8012008
:1014900000F04AF8042000F047F8132000F044F868
:1014A000362000F01FF8002000F03EF83A2000F04F
:1014B00019F8052000F038F8A023692201211A202C
:1014C000FFF7D5FE292000F00DF89620FEF7AAFFC1
:1014D00029462046BDE870400122FFF7ADB8000064
:1014E0000008024031B50D4D4FF400440022214662
:1014F0002846FFF7A1F8002220210948FFF79CF8B1
:101500004FF47A73012269460648FFF741FC012235
:1015100021462846FFF790F838BD00000008024039
:10152000001002401000002031B50D4D4FF4004472
:10153000002221462846FFF77FF801222021094892
:10154000FFF77AF84FF47A73012269460648FFF7ED
:101550001FFC012221462846FFF76EF838BD000027
:101560000008024000100240100000204FF04070C0
:10157000E1EE100A704700000000000000000102C8
:101580000304060708090000A81500080000002051
:1015900010000000C4010008B81500081000002069
:1015A000B8060000E0010008010000001000000083
:0815B000000000000024F4001B
:040000050800018965
:00000001FF
