:020000040800F2
:1000000018070020890100088B130008D90F000889
:10001000891300088F020008AD14000800000000DA
:100020000000000000000000000000008F13000826
:1000300091020008000000008D13000891130008D1
:10004000A3010008A3010008A3010008A301000800
:10005000A3010008A3010008A3010008A3010008F0
:10006000A3010008A3010008A3010008A3010008E0
:10007000A3010008A3010008A3010008A3010008D0
:10008000A3010008A3010008A3010008A3010008C0
:10009000A3010008A3010008A3010008A3010008B0
:1000A000A3010008A3010008A3010008A3010008A0
:1000B000A3010008A3010008A3010008A301000890
:1000C000A3010008A3010008A3010008A301000880
:1000D000A3010008A3010008A3010008A301000870
:1000E000A3010008A3010008A301000800F002F822
:1000F00000F03AF80AA090E8000C82448344AAF188
:100100000107DA4501D100F02FF8AFF2090EBAE885
:100110000F0013F0010F18BFFB1A43F0010318473B
:1001200088170000A8170000103A24BF78C878C1CB
:10013000FAD8520724BF30C830C144BF04680C60ED
:10014000704700000023002400250026103A28BF35
:1001500078C1FBD8520728BF30C148BF0B60704739
:100160001FB51FBD10B510BD00F058F81146FFF7C0
:10017000F7FF01F0ADF900F076F803B4FFF7F2FFF6
:1001800003BC00F07DF8000009488047094800479B
:10019000FEE7FEE7FEE7FEE7FEE7FEE7FEE7FEE737
:1001A000FEE7FEE704480549054A064B7047000094
:1001B000F3130008ED0000081801002018070020C4
:1001C00018030020180300204FF0000200B513466A
:1001D00094469646203922BFA0E80C50A0E80C5067
:1001E000B1F12001BFF4F7AF090728BFA0E80C5018
:1001F00048BF0CC05DF804EB890028BF40F8042B11
:1002000008BF704748BF20F8022B11F0804F18BF7D
:1002100000F8012B7047704770477047754600F033
:100220002BF8AE4605006946534620F00700854688
:1002300018B020B5FFF7B6FFBDE820404FF000062C
:100240004FF000074FF000084FF0000B21F00701BE
:10025000AC46ACE8C009ACE8C009ACE8C009ACE801
:10026000C0098D46704710B50446AFF300802046A4
:10027000BDE81040FFF781BF00487047B400002080
:1002800001491820ABBEFEE7260002007047FEE7DA
:100290007047000070B5044600F004F90546601C84
:1002A00002D004480078044400F0FCF8401BA0424F
:1002B000FAD370BD080000202DE9F84FDFF8B8919F
:1002C0000024A9F1040B23460F2709F1040AABF11E
:1002D000040EC9E00125A5402A40AA427DD1674EFF
:1002E000D1F804C0ACEB0608B44532D014DCBCF144
:1002F000030F3AD009DCBCF1000F2AD0BCF1010F8A
:100300001CD0BCF1020F31D11DE0BCF1110F17D090
:10031000BCF1120F2AD119E0B8F5881F19D006DCFC
:10032000B8F5803F15D0B8F5801F1FD111E0B8F5A2
:10033000001F0ED0B8F5041F18D10AE0CB6815E0F5
:10034000CB681B1D12E0CB6808330FE0CB680C3381
:100350000CE08B682BB1012B4FF0080303D04561F3
:1003600004E0042302E0056100E00023FF2A01D835
:10037000064601E000F104064FEA840501D9A5F123
:100380002005D6F8008007FA05FC28EA0C0803FAD5
:1003900005F548EA0508C6F800804D68ED0062D50D
:1003A000374DAE6946F00106AE61AD6924F0030633
:1003B00005F001050095334D06EB050CDCF80850FF
:1003C000A607360F07FA06F825EA0805DFF8B88011
:1003D000404503D14FF0000817E044E0DFF8AC805F
:1003E000404502D14FF001080FE0DFF8A4804045FE
:1003F00002D14FF0020808E0DFF89880404502D1B2
:100400004FF0030801E04FF0040808FA06F848EA44
:100410000508CCF808804D68D9F80060ED024D461B
:1004200001D5164300E096432E604D68DAF800606F
:10043000AD02554601D5164300E096432E604D6847
:10044000DBF80060AD035D4601D5164300E096433E
:100450002E604D68DEF80060ED03754601D5164349
:1004600000E096432E60641C0D682A46E5407FF448
:1004700031AFBDE8F88F0000080401400000111002
:10048000001002400000014000080140000C014043
:1004900000100140001401400AB1016170470904D5
:1004A000FBE700000148806870470000080000205A
:1004B00070B5040025D094F83D00002520B984F8DB
:1004C0003C50204600F0E6F9242084F83D002068E6
:1004D000016821F0010101602068016841F40041D8
:1004E00001602068016821F40041016000F020FBF8
:1004F0004D4A6168914201D84C4900E04C4988421C
:1005000001D2012070BD4B492368B0FBF1F15E6858
:1005100026F03F060E435E606368934206D94FF4AF
:10052000967359434FF47A73B1FBF3F12368491C76
:100530001E6A26F03F06314319626168914210D865
:100540004900401EB0FBF1F2521CC2F30B02042A18
:1005500001D2042022E0B0FBF1F0401CC0F30B00FC
:100560001CE0A268F2B301EBC10303EB0116431ECA
:10057000B3FBF6F35B1C43F480431B0549D092B3F5
:1005800001EBC10202EB0111401EB0FBF1F0401C77
:10059000C0F30B0040F4804040F400402168CA6979
:1005A0004CF6FF739A431043C861D4E90710014326
:1005B0002068026822F0C00211430160D4E90301FF
:1005C00001432068826848F2FF339A4311438160F7
:1005D000D4E9050108432168CA6822F0FF021043EC
:1005E000C86001E00EE016E02068016841F00101FA
:1005F00001602564202084F83D00256384F83E5086
:10060000002070BD01EB4106431EB3FBF6F35B1CFB
:10061000B3E70120C2E701EB4101401EB0FBF1F05E
:10062000401CC0F30B00B7E7A086010080841E00C9
:1006300000093D0040420F002DE9FF4F83B0002527
:10064000DDE910799A4693460446DDF84880009526
:10065000FFF728FF064694F83D0020287CD1192397
:10066000012288492046009600F04CFD0028F5D173
:1006700094F83C0001286FD0012084F83C002068E9
:100680000168C90703D1016841F0010101602068D8
:10069000016821F400610160222084F83D004020BF
:1006A00084F83E0025646762A4F82A90608D208556
:1006B0007548E062CDE9008653465A4620460499C3
:1006C00000F0A2FC00287CD1208DDFF8C09120270B
:1006D00068B1012814D00228206801681ED041F4B6
:1006E000806101602068416980690090BCE02068F9
:1006F000416981690091016841F400710160B3E0D2
:100700002068016821F48061016072B62068416947
:1007100081690091016841F400710AE041F40061CF
:10072000016072B62068416981690091016821F415
:100730008061016062B697E0032865D801280CD07B
:10074000022843464FF000024946204600960BD04F
:1007500000F0D8FCA8BB0CE091E0324641462046B0
:1007600000F076FD68BB72E000F0CCFC48BB72B6CE
:1007700033E02068016821F48061016072B620686E
:100780000069616A0870606A401C6062208D401ECA
:100790002085608D401E60853D4846F2A8110068A6
:1007A000B0FBF1F0C0EBC00000EB80000090401EF9
:1007B000009007D020684069C04340070DD50098DD
:1007C000F5E727E044F8305F6773A573206940F0D0
:1007D0002000206162B625731CE02068016841F4A6
:1007E0000071016020680069616A0870606A401CDD
:1007F0006062218D491E2185618D491E618562B629
:1008000021680969017026E032464146204600F021
:100810001FFD18B1012007B0BDE8F08F2068006906
:10082000616A0870606A401C6062208D401E81B25F
:100830002185608D401E608520684269D243520741
:1008400012D4032903D1016821F48061016020687A
:100850000069616A0870606A401C6062208D401EF9
:100860002085608D401E6085208D00287FF464AF58
:1008700084F83D7084F83E5084F83C50CBE7022069
:10088000C9E70000020010000000FFFF04000100A3
:100890001400002010B586B0002100910191029152
:1008A000039100680F4988421AD10F4CA06940F0AB
:1008B0000800A061A069694600F008000490C0200B
:1008C000009012200190032003900848FFF7F4FCE9
:1008D000E06940F40010E061E06900F40010049069
:1008E00006B010BD0054004000100240000C014052
:1008F0000248816802781144816070470800002036
:10090000074810B5016841F010010160032000F0B4
:1009100067F80F2000F006F800F024F8002010BD62
:100920000020024070B50D4D04464FF47A712878CE
:10093000B1FBF0F00A490968B1FBF0F000F0CEFA23
:1009400048B9102C07D200222146501E00F028F88A
:1009500000206C6070BD012070BD00000800002008
:10096000140000200C4808B5816941F00101816143
:10097000816901F001010091C16941F08051C161BB
:10098000C06900F0805000900448416821F0E061A7
:1009900041F00071416008BD0010024000000140BC
:1009A000F0B40E4B1B680C46C3F30223C3F10705DA
:1009B000042D00D90425191D072901D2002300E0C8
:1009C000DB1E012606FA05F1491E214099409E4092
:1009D000761E16403143F0BC00F069BD0CED00E01E
:1009E000064900F0070208684FF6FF03184040EA86
:1009F0000220034A10430860704700000CED00E03D
:100A00000000FA052DE9F0470F46050061D0434E7E
:100A1000306800F00700B84209D2306820F00700C3
:100A200038433060306800F00700B84251D1286880
:100A30003B4C810712D5400703D5606840F4E06065
:100A400060602878000703D5606840F460506060FB
:100A50006068A96820F0F000084360602878C0074B
:100A600028D06868012810D02168022810D0890792
:100A700000292EDA616821F0030101436160FFF76C
:100A800011FD804641F288390DE021688903EFE7C6
:100A90008901EDE7FFF706FDA0EB0801494502D902
:100AA0000320BDE8F0876068696800F00C00B0EBD7
:100AB000810FEFD1306800F00700B8420BD93068E1
:100AC00020F0070038433060306800F00700B8427B
:100AD00001D00120E5E72878400705D56068E9687E
:100AE00020F4E060084360602878000706D560685D
:100AF000296920F4605040EAC100606000F038F8D5
:100B00006168084AC1F30311515CC8400649086096
:100B100006480068FFF706FF0020C2E700200240F9
:100B2000001002408E180008140000200C00002065
:100B30000448054900684968044AC1F30221515C30
:100B4000C840704714000020001002409E180008A2
:100B50000448054900684968044AC1F3C221515C50
:100B6000C840704714000020001002409E18000882
:100B70000E4A51680E4801F00C03042B11D0082BCB
:100B80000FD10C48C1F38343C903C05C0AD5516837
:100B9000084AC1F34041921E515C054A5043B0FBE4
:100BA000F1F07047044948437047000000100240CC
:100BB00000127A007E18000800093D002DE9F84F68
:100BC000040070D02078C04DC00749D06868C0F3D9
:100BD0008100012807D06868C0F38100022809D18C
:100BE0006868C00306D52868800339D56068002886
:100BF000E7D035E06068B0F5803F0BD010B1B0F5BC
:100C0000A02F11D0286820F480302860286820F4B4
:100C1000802002E0286840F480302860606890B14D
:100C2000FFF740FC06460AE0286840F48020286070
:100C3000F0E700BFFFF736FC801B642873D82868F4
:100C40008003F7D50CE0FFF72DFC064605E000BF5A
:100C5000FFF728FC801B6428F0D828688003F7D4AD
:100C600020789A4E80074FF001094FF0000839D5DF
:100C7000686810F00C0F07D06868C0F38100022884
:100C800009D16868C00306D42868800714D5206994
:100C9000012808D110E02069B0B1C6F80090FFF734
:100CA00001FC074605E00AE1FFF7FCFBC01B022838
:100CB000C4D828688007F7D52868616920F0F80053
:100CC00040EAC10028600DE0C6F80080FFF7EAFBAB
:100CD000074604E0FFF7E6FBC01B022823D828687C
:100CE0008007F7D4207800072CD57948A169D9B1BD
:100CF000C0F80090FFF7D6FB074604E0FFF7D2FBF1
:100D0000C01B02280FD8686A8007F7D571484FF4D6
:100D1000FA510068B0FBF1F0009000BF0098411E4E
:100D20000091FAD20EE080E0C0F80080FFF7BAFB35
:100D3000074604E0FFF7B6FBC01B022875D8686AB7
:100D40008007F7D42078400760D5E8690027C00005
:100D500008D4E86940F08050E861E869012700F0B4
:100D6000805000905C480168C90513D4016883462F
:100D700041F480710160FFF795FB824606E000BFF9
:100D8000FFF790FBA0EB0A0064284ED8DBF80000C8
:100D9000C005F5D5E06801280AD008B1052813D0B0
:100DA000286A20F001002862286A20F0040002E08E
:100DB000286A40F001002862E06841F2883B98B15F
:100DC000FFF770FB82460BE0286A40F004002862BF
:100DD000EEE700BFFFF766FBA0EB0A0159455AD8C2
:100DE000286A8007F6D50CE0FFF75CFB824605E039
:100DF000FFF758FBA0EB0A0159454CD8286A800739
:100E0000F6D41FB1E86920F08050E861E06988B34A
:100E10006968C1F38101022944D00228C6F86080C4
:100E200004D0FFF73FFB044638E034E0FFF73AFB1D
:100E3000074604E0FFF736FBC01B02282BD82868C2
:100E40008001F7D4206AB0F5803F05D16868A168B9
:100E500020F4003008436860D4E908010843696859
:100E600021F4741108436860C6F86090FFF71AFB1C
:100E7000044606E025E000BFFFF714FB001B022834
:100E800009D828688001F7D51BE000BFFFF70AFBEF
:100E9000001B022802D90320BDE8F88F28688001D2
:100EA000F4D40EE00128F7D06868226A00F480319B
:100EB000914204D1616A00F47010884201D001208F
:100EC000EAE70020E8E7000000100240000042428C
:100ED00080044242140000200070004010B5401E03
:100EE000B0F1807F01D3012010BD4FF0E02460619C
:100EF0000F21601700F0DBFA0020A06107202061BD
:100F0000002010BD70B5040004D094F84100002505
:100F100010B106E0012070BD84F84050204600F07A
:100F200023F8242084F841002068C16821F400518E
:100F3000C160204600F05EFA2068016921F490410A
:100F400001612068416921F02A0141612068C1687E
:100F500041F40051C1606564202084F8410084F8A8
:100F600042006563002070BD30B585B00024009458
:100F700001940294039400681449884223D11448D0
:100F8000C16941F40031C161C16901F400310491CA
:100F9000816941F00401816180690E4D00F0040017
:100FA00004900420009002200190032003906946E1
:100FB0002846FFF781F90820CDE900046946284654
:100FC0000294FFF779F905B030BD000000440040FD
:100FD0000010024000080140FEE701684A69D24360
:100FE00052050FD46FF480624A61002140F8301F2F
:100FF000202242738173026942F00402026101738C
:1010000001207047002070472DE9F84F0446006822
:1010100089460B9D01689846174641F4806101603E
:101020002068016841F48071016000954FF0011B58
:101030000022594620460A9B00F064F84FF4007ADB
:1010400040B120680068C00501D5C4F840A0032065
:10105000BDE8F88F216809F0FE0008612B46284999
:1010600020460A9A00F096F8F0BB20684169806932
:1010700000902A4620460A9900F022F940B1206CDF
:1010800004283AD12068016841F40071016034E01D
:10109000FEB2B8F1010F09D02168380A08612A466A
:1010A00020460A9900F00CF90028E8D12068066172
:1010B0002A4620460A9900F003F90028DFD120686B
:1010C000016841F480710160009500225946204674
:1010D0000A9B00F017F80028B3D1216809F0FF003F
:1010E00040F00100086100E007E02B46044920467B
:1010F0000A9A00F04FF80028AAD00120A8E70000C3
:10110000020001002DE9F047984617460D460446B7
:10111000C1F30746DDF820902AE000BFB8F1FF3F99
:1011200026D0FFF7BFF9A0EB0901414502D8B8F17D
:10113000000F1DD12068012E16D0806925EA00001D
:101140000004000C12D00020B84211D1002044F855
:10115000300F20216173A073216941F020012161CA
:1011600020730120BDE8F0874069E7E70120EBE745
:101170002068012E0AD0806925EA00000004000CD6
:1011800006D00020B842C9D00020EBE74069F3E761
:101190000120F7E72DE9F047984616460D4604462C
:1011A0004FF000094FF0200AC1F3074723E0206801
:1011B0004069C043400515D42068016841F40071BE
:1011C000016021686FF480604861C4F8309084F851
:1011D0003DA084F83E90216C41F00401216484F824
:1011E0003C9021E0701C06D0FFF75CF9A0EB0800F2
:1011F000B04203D816B1012F1FD021E02068012F83
:1012000015D0806925EA00000004000C18D000BF4A
:1012100044F8309F84F80DA084F80E90216941F0C5
:101220002001216184F80C900120BDE8F08740691D
:1012300025EA00000004000CEAD12068406901E0C2
:101240002068806925EA00000004000CAFD1ECE7BB
:101250002DE9F041002590460E460446202728E05F
:101260004069C043C0060CD454F8301B6FF0100026
:10127000486144F810596777A577206A206225777E
:1012800014E0FFF70FF9A0EB0800B04200D886B9D0
:1012900020684069C04340060BD544F8305F67734F
:1012A000A573206940F02000206125730120BDE86E
:1012B000F08120684169C9434906D1D40020F6E78E
:1012C00070B516460D4604461EE02046FFF785FE23
:1012D00008B1012070BD681C16D0FFF7E3F8801B31
:1012E000A84200D885B920684069C04300060BD5E4
:1012F000002044F8300F20216173A073216941F070
:10130000200121612073E4E720684069C0430006A2
:10131000DBD4002070BD000030B585B00024184833
:101320000094019402940394816941F02001816149
:10133000816901F020010491816941F0040181611A
:10134000816901F004010491816941F00801816122
:1013500080690C4D00F008000490002220212846EE
:10136000FFF79AF8202000900120CDE90104022027
:10137000039069462846FEF79FFF05B030BD000088
:1013800000100240000C0140FEE7FEE77047704786
:10139000FFF7AEBA30B58FB028216846FEF714FFCC
:1013A00014210AA8FEF710FF01210804CDE900105E
:1013B0000024029402250491CDE907504FF4E01077
:1013C00009906846FFF7FAFB08B172B6FEE70F20F6
:1013D000CDE90A054FF48060CDE90C4002210AA84E
:1013E0000E94FFF70FFB002801D072B6FEE70FB096
:1013F00030BD704770B5044600680169E26821F4A9
:101400004051114301612169A068084361690843A3
:101410002168CA6841F20C639A430243CA6020689B
:101420004169A26921F44071114341611E4920685C
:10143000884202D1FFF78CFB01E0FFF779FB00EB5C
:10144000C00101EB0012606864218000B2FBF0F380
:10145000B3FBF1F36FF018067343B2FBF0F5B2FB88
:10146000F0F605EB8305322303EB0515B5FBF1F52B
:10147000B6FBF1F605F0F00505EB0615B2FBF0F64C
:10148000B2FBF0F0B0FBF1F06FF01802504306EB46
:10149000800003EB0010B0FBF1F0216800F00F00BA
:1014A0002844886070BD000000380140FEE709074D
:1014B000090E002804DB00F1E02080F800147047DA
:1014C00000F00F0000F1E02080F8141D70470000CC
:1014D000FFF716FAFFF75EFFFFF71EFF16481549E4
:1014E000002401601549C0E901144FF48041C0E9AE
:1014F000034144618461C4610462FEF7D9FF08B10D
:1015000072B6FEE70C480E49543001604FF4E131E9
:10151000C0E901140C21C460C0E904418461C461C4
:10152000FFF7F0FC08B172B6FEE7064C00F00CF8CD
:101530006060FBE70054004018000020A086010016
:1015400000440040000000203EB501251B48CDE9C5
:1015500000054FF47A742B460B226C210294184834
:10156000FFF76AF815480123401CCDE900050C225D
:101570006C2102941248FFF75FF810480123801C89
:10158000CDE900050D226C2102940D48FFF754F8B7
:101590006420FEF77FFE09488178407841EA002008
:1015A000C0F30B0000F016F8064900F02BF803B06A
:1015B0006FF00B01BDE8304000F022B900000020C0
:1015C000180000200000B443014800F0E7B800BF55
:1015D0000000C07F10F0004148BF4042B0FA80F3E5
:1015E00010FA03F2C3F19D030BD051EAC35101EB92
:1015F0001220530638BF704700F1010008BF20F0E9
:10160000010070474FF47F0C1CEAD0121EBF1CEA89
:10161000D11392EA0C0F93EA0C0F00F0478090EA86
:10162000010F48BF42F480724FF0004C4CEA00209A
:101630004CEA012102EB0302A0FB0113A2F5000218
:10164000002918BF43F001035B0028BF4FEA3303B2
:1016500042EB22425FEA132C4CEBC2502EBFBCEB94
:10166000436FB2F57C0F70474FEA036CBCF1004F3B
:1016700008BF20F00100B2F57C0F38BF70470BD5D2
:1016800082F0FF0212F5803FC8BF704700F1C040F2
:10169000D8BF00F00040704700F5000C5FEA4C0C2A
:1016A00048BF7047B0F1C04000F073B890EA010F36
:1016B0000CEAD11348BF42F48072624538BF6345DB
:1016C00004D280EA010000F00040704710B500F03D
:1016D0001AF800BF8900013E00F007B800F009B811
:1016E0005FEA410C5FEA1C6C08D080EA010000F060
:1016F00050B85FEA400C5FEA1C6CF6D14FF0004036
:10170000A0F5800070470EF1020E2EF0030E5EF879
:10171000044B244204D44FEA4102B2F17F4F11D866
:101720004FEA4003B3F17F4F0CD80ED14FEAD07C83
:10173000B2F17F4F0CEB4C0C0CF1020C08BF4CEBE0
:10174000D17C04E04FF0080C01E04FEAD17C0CEBB7
:101750004C0324FA03F404F00704B4F1040C06D299
:101760000EEB840CBDE810404CF0010C6047DFE844
:101770000CF0070802024FF00040A0F5800010BDF9
:101780000846420018BFD2F1807288BF00F00040C6
:1017900010BDFF2141EAD050C00570470CF00F0387
:1017A000092B08BF082000F051800A2B0BD0082B12
:1017B00018BF704708BF1CF0400F0AD04FF0000060
:1017C0004FF0000170471CF0400F18BF4FF0004071
:1017D00070471CF0100F08D020F0704300F07F42DB
:1017E00042EAD3014FEA4370704700F0604021F0B5
:1017F0007F4242EA000201F07F4040EA7270704787
:101800004FF0FF0212EAD0521CBF92F0FF038B424E
:10181000C2BFD14200EBC1507047002A0AD0002B52
:101820000BD0002900F00040A4BF40F0FE4040F47F
:101830000000704700F00040704743024FF00B0C6F
:1018400018BF4CF0806C7FF4BFAE70471CF4801F53
:1018500011D01CF4E02F03D06FEACC31490070475F
:101860004FF04050EFF3008222F0704242EA000253
:1018700082F3008870474FF00000704701020203B6
:101880000405060708090A0B0C0D0E0F10100000C6
:101890000000000000000102030406070809000020
:1018A0000000010203040000C81800080000002026
:1018B0001800000028010008E018000818000020A7
:1018C00000070000440100080000000000000000C4
:1018D00001000000100000000000000000127A006B
:04000005080000ED02
:00000001FF
